{
  "contractName": "baseLib",
  "abi": [
    {
      "constant": false,
      "inputs": [
        {
          "name": "code",
          "type": "bytes"
        }
      ],
      "name": "createContractFromBytes",
      "outputs": [
        {
          "name": "newContract",
          "type": "address"
        }
      ],
      "payable": false,
      "stateMutability": "nonpayable",
      "type": "function"
    }
  ],
  "bytecode": "0x6060604052341561000f57600080fd5b6101548061001e6000396000f300606060405260043610610041576000357c0100000000000000000000000000000000000000000000000000000000900463ffffffff1680635281042714610046575b600080fd5b610096600480803590602001908201803590602001908080601f016020809104026020016040519081016040528093929190818152602001838380828437820191505050505050919050506100d8565b604051808273ffffffffffffffffffffffffffffffffffffffff1673ffffffffffffffffffffffffffffffffffffffff16815260200191505060405180910390f35b600081518201602083016000f09050600073ffffffffffffffffffffffffffffffffffffffff168173ffffffffffffffffffffffffffffffffffffffff161415151561012357600080fd5b9190505600a165627a7a723058200b3481946c0efc3b029b5721308324c0e3581bf4b70cbc7b7956cd38ec5ea8040029",
  "source": "pragma solidity ^0.4.8;\n\nimport \"./IbaseLib.sol\";\n\n/**\n * IbaseLib implementation v1.0\n *\n * Copyright (c) 2017 Cognate, Inc.\n */\nlibrary baseLib {\n\n    function createContractFromBytes(bytes memory code) returns (address newContract) {     \n        assembly {\n            newContract := create(0, add(code, 32), add(code, mload(code)))\n        }\n        require(newContract != address(0));\n    }\n}",
  "sourcePath": "/Users/MasterChief/Cog/cog-contract/contracts/base/baseLib.sol",
  "compiler": {
    "name": "solc",
    "version": "0.4.18+commit.9cf6e910.Emscripten.clang"
  },
  "schemaVersion": "1.0.1",
  "updatedAt": "2018-01-15T19:32:46.194Z"
}