{
  "contractName": "CertifierLib",
  "abi": [
    {
      "constant": false,
      "inputs": [
        {
          "name": "self",
          "type": "CertifierLib.Certifier storage"
        }
      ],
      "name": "selectCertifiers",
      "outputs": [],
      "payable": false,
      "stateMutability": "nonpayable",
      "type": "function"
    },
    {
      "constant": false,
      "inputs": [
        {
          "name": "self",
          "type": "CertifierLib.Certifier storage"
        },
        {
          "name": "proof",
          "type": "bytes"
        }
      ],
      "name": "createProof",
      "outputs": [],
      "payable": false,
      "stateMutability": "nonpayable",
      "type": "function"
    },
    {
      "constant": false,
      "inputs": [
        {
          "name": "self",
          "type": "CertifierLib.Certifier storage"
        },
        {
          "name": "proof",
          "type": "TimelineDocument"
        }
      ],
      "name": "addProof",
      "outputs": [],
      "payable": false,
      "stateMutability": "nonpayable",
      "type": "function"
    }
  ],
  "bytecode": "0x6060604052341561000f57600080fd5b6102f18061001e6000396000f300606060405260043610610057576000357c0100000000000000000000000000000000000000000000000000000000900463ffffffff1680635bb06c9d1461005c578063a3b3c06214610074578063cfe438bd146100cf575b600080fd5b6100726004808035906020019091905050610106565b005b6100cd600480803590602001909190803590602001908201803590602001908080601f01602080910402602001604051908101604052809392919081815260200183838082843782019150505050505091905050610109565b005b610104600480803590602001909190803573ffffffffffffffffffffffffffffffffffffffff1690602001909190505061020b565b005b50565b610207828273__IbaseLib______________________________635281042790916000604051602001526040518263ffffffff167c01000000000000000000000000000000000000000000000000000000000281526004018080602001828103825283818151815260200191508051906020019080838360005b8381101561019e578082015181840152602081019050610183565b50505050905090810190601f1680156101cb5780820380516001836020036101000a031916815260200191505b509250505060206040518083038186803b15156101e757600080fd5b6102c65a03f415156101f857600080fd5b5050506040518051905061020b565b5050565b8160020180548060010182816102219190610274565b9160005260206000209001600083909190916101000a81548173ffffffffffffffffffffffffffffffffffffffff021916908373ffffffffffffffffffffffffffffffffffffffff160217905550505050565b81548183558181151161029b5781836000526020600020918201910161029a91906102a0565b5b505050565b6102c291905b808211156102be5760008160009055506001016102a6565b5090565b905600a165627a7a72305820f248bd62991918f18c1a35323e74fb4d4cddc7f8793855771044eae99369d49b0029",
  "source": "pragma solidity ^0.4.8;\n\nimport \"../base/IbaseLib.sol\";\nimport \"../timeline/TimelineLib.sol\";\nimport \"../timeline/Timeline.sol\";\nimport \"../timeline/timelineDocuments/TimelineDocument.sol\";\n\n/**\n * TODO\n *\n * Copyright (c) 2017 Cognate, Inc.\n */\nlibrary CertifierLib {\n    using IbaseLib for bytes;\n    \n    struct Certifier {\n        Timeline timeline;\n        TimelineDocument claim;\n        TimelineDocument[] proofs;\n        address[] certifiers;\n    }\n\n    function createProof(Certifier storage self, bytes proof) {\n        addProof(self, TimelineDocument(proof.createContractFromBytes()));\n    }\n\n    function addProof(Certifier storage self, TimelineDocument proof) {\n        self.proofs.push(proof);\n    }\n\n    /**\n     * Selects the certifiers to participate in this instance of the certification protocol\n     */\n    function selectCertifiers(Certifier storage self) {}\n}",
  "sourcePath": "/Users/MasterChief/Cog/cog-contract/contracts/protocol/CertifierLib.sol",
  "compiler": {
    "name": "solc",
    "version": "0.4.18+commit.9cf6e910.Emscripten.clang"
  },
  "schemaVersion": "1.0.1",
  "updatedAt": "2018-01-15T19:32:46.196Z"
}