{
  "contractName": "Claim",
  "abi": [
    {
      "constant": true,
      "inputs": [],
      "name": "proofs",
      "outputs": [
        {
          "name": "",
          "type": "address[]"
        }
      ],
      "payable": false,
      "stateMutability": "view",
      "type": "function"
    },
    {
      "constant": true,
      "inputs": [],
      "name": "next",
      "outputs": [
        {
          "name": "",
          "type": "address"
        }
      ],
      "payable": false,
      "stateMutability": "view",
      "type": "function"
    },
    {
      "constant": false,
      "inputs": [
        {
          "name": "_owner",
          "type": "address"
        }
      ],
      "name": "transferOwnershipTo",
      "outputs": [],
      "payable": false,
      "stateMutability": "nonpayable",
      "type": "function"
    },
    {
      "constant": true,
      "inputs": [],
      "name": "owner",
      "outputs": [
        {
          "name": "",
          "type": "address"
        }
      ],
      "payable": false,
      "stateMutability": "view",
      "type": "function"
    },
    {
      "constant": false,
      "inputs": [
        {
          "name": "next",
          "type": "address"
        }
      ],
      "name": "setNext",
      "outputs": [],
      "payable": false,
      "stateMutability": "nonpayable",
      "type": "function"
    },
    {
      "constant": true,
      "inputs": [],
      "name": "timestamp",
      "outputs": [
        {
          "name": "",
          "type": "uint256"
        }
      ],
      "payable": false,
      "stateMutability": "view",
      "type": "function"
    },
    {
      "constant": true,
      "inputs": [],
      "name": "interfaceID",
      "outputs": [
        {
          "name": "",
          "type": "bytes32"
        }
      ],
      "payable": false,
      "stateMutability": "view",
      "type": "function"
    },
    {
      "constant": true,
      "inputs": [],
      "name": "createdAt",
      "outputs": [
        {
          "name": "",
          "type": "uint256"
        }
      ],
      "payable": false,
      "stateMutability": "view",
      "type": "function"
    },
    {
      "constant": false,
      "inputs": [
        {
          "name": "proof",
          "type": "address"
        }
      ],
      "name": "addProof",
      "outputs": [],
      "payable": false,
      "stateMutability": "nonpayable",
      "type": "function"
    }
  ],
  "bytecode": "0x606060405233806000806101000a81548173ffffffffffffffffffffffffffffffffffffffff021916908373ffffffffffffffffffffffffffffffffffffffff16021790555050426001819055507f79056e9bb24f897d7f885dacdb2d506599944c0cdfd6b7495eb7f3ea624ac5af600102600260000181600019169055506106708061008d6000396000f300606060405260043610610099576000357c0100000000000000000000000000000000000000000000000000000000900463ffffffff168063435d53f21461009e5780634c8fe5261461010857806352effe111461015d5780638da5cb5b14610196578063b2b2b44d146101eb578063b80777ea14610224578063ba19322d1461024d578063cf09e0d01461027e578063ec3d670c146102a7575b600080fd5b34156100a957600080fd5b6100b16102e0565b6040518080602001828103825283818151815260200191508051906020019060200280838360005b838110156100f45780820151818401526020810190506100d9565b505050509050019250505060405180910390f35b341561011357600080fd5b61011b610377565b604051808273ffffffffffffffffffffffffffffffffffffffff1673ffffffffffffffffffffffffffffffffffffffff16815260200191505060405180910390f35b341561016857600080fd5b610194600480803573ffffffffffffffffffffffffffffffffffffffff169060200190919050506103a4565b005b34156101a157600080fd5b6101a961047e565b604051808273ffffffffffffffffffffffffffffffffffffffff1673ffffffffffffffffffffffffffffffffffffffff16815260200191505060405180910390f35b34156101f657600080fd5b610222600480803573ffffffffffffffffffffffffffffffffffffffff169060200190919050506104a3565b005b341561022f57600080fd5b61023761055b565b6040518082815260200191505060405180910390f35b341561025857600080fd5b610260610561565b60405180826000191660001916815260200191505060405180910390f35b341561028957600080fd5b61029161056e565b6040518082815260200191505060405180910390f35b34156102b257600080fd5b6102de600480803573ffffffffffffffffffffffffffffffffffffffff16906020019091905050610578565b005b6102e8610630565b600460000180548060200260200160405190810160405280929190818152602001828054801561036d57602002820191906000526020600020905b8160009054906101000a900473ffffffffffffffffffffffffffffffffffffffff1673ffffffffffffffffffffffffffffffffffffffff1681526020019060010190808311610323575b5050505050905090565b6000600260010160009054906101000a900473ffffffffffffffffffffffffffffffffffffffff16905090565b6000809054906101000a900473ffffffffffffffffffffffffffffffffffffffff1673ffffffffffffffffffffffffffffffffffffffff163373ffffffffffffffffffffffffffffffffffffffff161415156103ff57600080fd5b600073ffffffffffffffffffffffffffffffffffffffff168173ffffffffffffffffffffffffffffffffffffffff161415151561043b57600080fd5b806000806101000a81548173ffffffffffffffffffffffffffffffffffffffff021916908373ffffffffffffffffffffffffffffffffffffffff16021790555050565b6000809054906101000a900473ffffffffffffffffffffffffffffffffffffffff1681565b600273__ITimelineDocumentLib__________________632d637bc69091836040518363ffffffff167c0100000000000000000000000000000000000000000000000000000000028152600401808381526020018273ffffffffffffffffffffffffffffffffffffffff1673ffffffffffffffffffffffffffffffffffffffff1681526020019250505060006040518083038186803b151561054457600080fd5b6102c65a03f4151561055557600080fd5b50505050565b60015481565b6000600260000154905090565b6000600154905090565b600473__ITimelineDocumentLib__________________63427221c19091836040518363ffffffff167c0100000000000000000000000000000000000000000000000000000000028152600401808381526020018273ffffffffffffffffffffffffffffffffffffffff1673ffffffffffffffffffffffffffffffffffffffff1681526020019250505060006040518083038186803b151561061957600080fd5b6102c65a03f4151561062a57600080fd5b50505050565b6020604051908101604052806000815250905600a165627a7a72305820cda44c72fd87ab0318e26cd34bc3e86749e798b07e589f63179610cfc637a85f0029",
  "source": "pragma solidity ^0.4.8;\n\nimport \"./TimelineDocument.sol\";\n\n/**\n * A TimelineDocument that requires proof to backup the claim\n * of the data and intention of that document. Proof is represented\n * by the addresses of other contracts that store the proof documentation.\n *\n * Copyright (c) 2017 Cognate, Inc.\n */\ncontract Claim is TimelineDocument {\n    using ITimelineDocumentLib for ITimelineDocumentLib.ClaimStorage;\n\n    ITimelineDocumentLib.ClaimStorage claim;\n\n    // calls ITimelineDocumentLib.addProof()\n    function addProof(address proof) public {\n        claim.addProof(proof);\n    }\n\n\n    // Getters\n    //--------\n    \n    function proofs() public constant returns (address[]) {\n        return claim._proofs;\n    }\n}",
  "sourcePath": "/Users/MasterChief/Cog/cog-contract/contracts/timeline/timelineDocuments/Claim.sol",
  "compiler": {
    "name": "solc",
    "version": "0.4.18+commit.9cf6e910.Emscripten.clang"
  },
  "schemaVersion": "1.0.1",
  "updatedAt": "2018-01-15T19:32:46.201Z"
}