{
  "contractName": "Classification",
  "abi": [
    {
      "constant": true,
      "inputs": [],
      "name": "proofs",
      "outputs": [
        {
          "name": "",
          "type": "address[]"
        }
      ],
      "payable": false,
      "stateMutability": "view",
      "type": "function"
    },
    {
      "constant": true,
      "inputs": [],
      "name": "next",
      "outputs": [
        {
          "name": "",
          "type": "address"
        }
      ],
      "payable": false,
      "stateMutability": "view",
      "type": "function"
    },
    {
      "constant": false,
      "inputs": [
        {
          "name": "_owner",
          "type": "address"
        }
      ],
      "name": "transferOwnershipTo",
      "outputs": [],
      "payable": false,
      "stateMutability": "nonpayable",
      "type": "function"
    },
    {
      "constant": true,
      "inputs": [],
      "name": "details",
      "outputs": [
        {
          "name": "",
          "type": "string"
        }
      ],
      "payable": false,
      "stateMutability": "view",
      "type": "function"
    },
    {
      "constant": true,
      "inputs": [],
      "name": "classOfGoods",
      "outputs": [
        {
          "name": "",
          "type": "uint8"
        }
      ],
      "payable": false,
      "stateMutability": "view",
      "type": "function"
    },
    {
      "constant": true,
      "inputs": [],
      "name": "owner",
      "outputs": [
        {
          "name": "",
          "type": "address"
        }
      ],
      "payable": false,
      "stateMutability": "view",
      "type": "function"
    },
    {
      "constant": false,
      "inputs": [
        {
          "name": "next",
          "type": "address"
        }
      ],
      "name": "setNext",
      "outputs": [],
      "payable": false,
      "stateMutability": "nonpayable",
      "type": "function"
    },
    {
      "constant": true,
      "inputs": [],
      "name": "timestamp",
      "outputs": [
        {
          "name": "",
          "type": "uint256"
        }
      ],
      "payable": false,
      "stateMutability": "view",
      "type": "function"
    },
    {
      "constant": true,
      "inputs": [],
      "name": "interfaceID",
      "outputs": [
        {
          "name": "",
          "type": "bytes32"
        }
      ],
      "payable": false,
      "stateMutability": "view",
      "type": "function"
    },
    {
      "constant": true,
      "inputs": [],
      "name": "createdAt",
      "outputs": [
        {
          "name": "",
          "type": "uint256"
        }
      ],
      "payable": false,
      "stateMutability": "view",
      "type": "function"
    },
    {
      "constant": false,
      "inputs": [
        {
          "name": "proof",
          "type": "address"
        }
      ],
      "name": "addProof",
      "outputs": [],
      "payable": false,
      "stateMutability": "nonpayable",
      "type": "function"
    },
    {
      "inputs": [
        {
          "name": "_classOfGoods",
          "type": "uint8"
        },
        {
          "name": "_details",
          "type": "string"
        }
      ],
      "payable": false,
      "stateMutability": "nonpayable",
      "type": "constructor"
    }
  ],
  "bytecode": "0x6060604052341561000f57600080fd5b60405161098f38038061098f8339810160405280805190602001909190805182019190505033806000806101000a81548173ffffffffffffffffffffffffffffffffffffffff021916908373ffffffffffffffffffffffffffffffffffffffff16021790555050426001819055507f79056e9bb24f897d7f885dacdb2d506599944c0cdfd6b7495eb7f3ea624ac5af6001026002600001816000191690555081600560006101000a81548160ff021916908360ff16021790555080600690805190602001906100df9291906100e7565b50505061018c565b828054600181600116156101000203166002900490600052602060002090601f016020900481019282601f1061012857805160ff1916838001178555610156565b82800160010185558215610156579182015b8281111561015557825182559160200191906001019061013a565b5b5090506101639190610167565b5090565b61018991905b8082111561018557600081600090555060010161016d565b5090565b90565b6107f48061019b6000396000f3006060604052600436106100af576000357c0100000000000000000000000000000000000000000000000000000000900463ffffffff168063435d53f2146100b45780634c8fe5261461011e57806352effe1114610173578063565974d3146101ac5780638a7be8e51461023a5780638da5cb5b14610269578063b2b2b44d146102be578063b80777ea146102f7578063ba19322d14610320578063cf09e0d014610351578063ec3d670c1461037a575b600080fd5b34156100bf57600080fd5b6100c76103b3565b6040518080602001828103825283818151815260200191508051906020019060200280838360005b8381101561010a5780820151818401526020810190506100ef565b505050509050019250505060405180910390f35b341561012957600080fd5b61013161044a565b604051808273ffffffffffffffffffffffffffffffffffffffff1673ffffffffffffffffffffffffffffffffffffffff16815260200191505060405180910390f35b341561017e57600080fd5b6101aa600480803573ffffffffffffffffffffffffffffffffffffffff16906020019091905050610477565b005b34156101b757600080fd5b6101bf610551565b6040518080602001828103825283818151815260200191508051906020019080838360005b838110156101ff5780820151818401526020810190506101e4565b50505050905090810190601f16801561022c5780820380516001836020036101000a031916815260200191505b509250505060405180910390f35b341561024557600080fd5b61024d6105ef565b604051808260ff1660ff16815260200191505060405180910390f35b341561027457600080fd5b61027c610602565b604051808273ffffffffffffffffffffffffffffffffffffffff1673ffffffffffffffffffffffffffffffffffffffff16815260200191505060405180910390f35b34156102c957600080fd5b6102f5600480803573ffffffffffffffffffffffffffffffffffffffff16906020019091905050610627565b005b341561030257600080fd5b61030a6106df565b6040518082815260200191505060405180910390f35b341561032b57600080fd5b6103336106e5565b60405180826000191660001916815260200191505060405180910390f35b341561035c57600080fd5b6103646106f2565b6040518082815260200191505060405180910390f35b341561038557600080fd5b6103b1600480803573ffffffffffffffffffffffffffffffffffffffff169060200190919050506106fc565b005b6103bb6107b4565b600460000180548060200260200160405190810160405280929190818152602001828054801561044057602002820191906000526020600020905b8160009054906101000a900473ffffffffffffffffffffffffffffffffffffffff1673ffffffffffffffffffffffffffffffffffffffff16815260200190600101908083116103f6575b5050505050905090565b6000600260010160009054906101000a900473ffffffffffffffffffffffffffffffffffffffff16905090565b6000809054906101000a900473ffffffffffffffffffffffffffffffffffffffff1673ffffffffffffffffffffffffffffffffffffffff163373ffffffffffffffffffffffffffffffffffffffff161415156104d257600080fd5b600073ffffffffffffffffffffffffffffffffffffffff168173ffffffffffffffffffffffffffffffffffffffff161415151561050e57600080fd5b806000806101000a81548173ffffffffffffffffffffffffffffffffffffffff021916908373ffffffffffffffffffffffffffffffffffffffff16021790555050565b60068054600181600116156101000203166002900480601f0160208091040260200160405190810160405280929190818152602001828054600181600116156101000203166002900480156105e75780601f106105bc576101008083540402835291602001916105e7565b820191906000526020600020905b8154815290600101906020018083116105ca57829003601f168201915b505050505081565b600560009054906101000a900460ff1681565b6000809054906101000a900473ffffffffffffffffffffffffffffffffffffffff1681565b600273__ITimelineDocumentLib__________________632d637bc69091836040518363ffffffff167c0100000000000000000000000000000000000000000000000000000000028152600401808381526020018273ffffffffffffffffffffffffffffffffffffffff1673ffffffffffffffffffffffffffffffffffffffff1681526020019250505060006040518083038186803b15156106c857600080fd5b6102c65a03f415156106d957600080fd5b50505050565b60015481565b6000600260000154905090565b6000600154905090565b600473__ITimelineDocumentLib__________________63427221c19091836040518363ffffffff167c0100000000000000000000000000000000000000000000000000000000028152600401808381526020018273ffffffffffffffffffffffffffffffffffffffff1673ffffffffffffffffffffffffffffffffffffffff1681526020019250505060006040518083038186803b151561079d57600080fd5b6102c65a03f415156107ae57600080fd5b50505050565b6020604051908101604052806000815250905600a165627a7a72305820850a61423b04ec77c5ae18f0d4c4e6a211f7e17d8af8f66cd4040a447a529e400029",
  "source": "pragma solidity ^0.4.8;\n\nimport \"./Claim.sol\";\n\n/**\n * Represents a USPTO defined class of goods and associated identifications\n * describing the mark represented by the timeline asset to which this is appended.\n *\n * Copyright (c) 2017 Cognate, Inc.\n */\ncontract Classification is Claim {\n\n    uint8 public classOfGoods; // International class of goods or service\n    string public details; // class identifications\n\n    function Classification(uint8 _classOfGoods,\n                            string _details) {\n        classOfGoods = _classOfGoods;\n        details = _details;\n    }\n}",
  "sourcePath": "/Users/MasterChief/Cog/cog-contract/contracts/timeline/timelineDocuments/Classification.sol",
  "compiler": {
    "name": "solc",
    "version": "0.4.18+commit.9cf6e910.Emscripten.clang"
  },
  "schemaVersion": "1.0.1",
  "updatedAt": "2018-01-15T19:32:46.201Z"
}