{
  "contractName": "IbaseLibDispatcherStorage",
  "abi": [
    {
      "constant": true,
      "inputs": [
        {
          "name": "",
          "type": "bytes4"
        }
      ],
      "name": "sizes",
      "outputs": [
        {
          "name": "",
          "type": "uint32"
        }
      ],
      "payable": false,
      "stateMutability": "view",
      "type": "function"
    },
    {
      "constant": false,
      "inputs": [
        {
          "name": "_owner",
          "type": "address"
        }
      ],
      "name": "transferOwnershipTo",
      "outputs": [],
      "payable": false,
      "stateMutability": "nonpayable",
      "type": "function"
    },
    {
      "constant": true,
      "inputs": [],
      "name": "owner",
      "outputs": [
        {
          "name": "",
          "type": "address"
        }
      ],
      "payable": false,
      "stateMutability": "view",
      "type": "function"
    },
    {
      "constant": true,
      "inputs": [],
      "name": "lib",
      "outputs": [
        {
          "name": "",
          "type": "address"
        }
      ],
      "payable": false,
      "stateMutability": "view",
      "type": "function"
    },
    {
      "constant": false,
      "inputs": [
        {
          "name": "_lib",
          "type": "address"
        }
      ],
      "name": "replace",
      "outputs": [],
      "payable": false,
      "stateMutability": "nonpayable",
      "type": "function"
    },
    {
      "inputs": [
        {
          "name": "_lib",
          "type": "address"
        }
      ],
      "payable": false,
      "stateMutability": "nonpayable",
      "type": "constructor"
    }
  ],
  "bytecode": "0x6060604052341561000f57600080fd5b6040516020806106ad833981016040528080519060200190919050508033806000806101000a81548173ffffffffffffffffffffffffffffffffffffffff021916908373ffffffffffffffffffffffffffffffffffffffff160217905550506100896100ac640100000000026103d7176401000000009004565b6100a58161015464010000000002610338176401000000009004565b50506101f3565b60206002600060405180807f637265617465436f6e747261637446726f6d4279746573286279746573290000815250601e01905060405180910390207bffffffffffffffffffffffffffffffffffffffffffffffffffffffff19167bffffffffffffffffffffffffffffffffffffffffffffffffffffffff1916815260200190815260200160002060006101000a81548163ffffffff021916908363ffffffff160217905550565b6000809054906101000a900473ffffffffffffffffffffffffffffffffffffffff1673ffffffffffffffffffffffffffffffffffffffff163373ffffffffffffffffffffffffffffffffffffffff161415156101af57600080fd5b80600160006101000a81548173ffffffffffffffffffffffffffffffffffffffff021916908373ffffffffffffffffffffffffffffffffffffffff16021790555050565b6104ab806102026000396000f30060606040526004361061006d576000357c0100000000000000000000000000000000000000000000000000000000900463ffffffff168063206bd3621461007257806352effe11146100d45780638da5cb5b1461010d5780639280123014610162578063cabfb934146101b7575b600080fd5b341561007d57600080fd5b6100b260048080357bffffffffffffffffffffffffffffffffffffffffffffffffffffffff19169060200190919050506101f0565b604051808263ffffffff1663ffffffff16815260200191505060405180910390f35b34156100df57600080fd5b61010b600480803573ffffffffffffffffffffffffffffffffffffffff16906020019091905050610213565b005b341561011857600080fd5b6101206102ed565b604051808273ffffffffffffffffffffffffffffffffffffffff1673ffffffffffffffffffffffffffffffffffffffff16815260200191505060405180910390f35b341561016d57600080fd5b610175610312565b604051808273ffffffffffffffffffffffffffffffffffffffff1673ffffffffffffffffffffffffffffffffffffffff16815260200191505060405180910390f35b34156101c257600080fd5b6101ee600480803573ffffffffffffffffffffffffffffffffffffffff16906020019091905050610338565b005b60026020528060005260406000206000915054906101000a900463ffffffff1681565b6000809054906101000a900473ffffffffffffffffffffffffffffffffffffffff1673ffffffffffffffffffffffffffffffffffffffff163373ffffffffffffffffffffffffffffffffffffffff1614151561026e57600080fd5b600073ffffffffffffffffffffffffffffffffffffffff168173ffffffffffffffffffffffffffffffffffffffff16141515156102aa57600080fd5b806000806101000a81548173ffffffffffffffffffffffffffffffffffffffff021916908373ffffffffffffffffffffffffffffffffffffffff16021790555050565b6000809054906101000a900473ffffffffffffffffffffffffffffffffffffffff1681565b600160009054906101000a900473ffffffffffffffffffffffffffffffffffffffff1681565b6000809054906101000a900473ffffffffffffffffffffffffffffffffffffffff1673ffffffffffffffffffffffffffffffffffffffff163373ffffffffffffffffffffffffffffffffffffffff1614151561039357600080fd5b80600160006101000a81548173ffffffffffffffffffffffffffffffffffffffff021916908373ffffffffffffffffffffffffffffffffffffffff16021790555050565b60206002600060405180807f637265617465436f6e747261637446726f6d4279746573286279746573290000815250601e01905060405180910390207bffffffffffffffffffffffffffffffffffffffffffffffffffffffff19167bffffffffffffffffffffffffffffffffffffffffffffffffffffffff1916815260200190815260200160002060006101000a81548163ffffffff021916908363ffffffff1602179055505600a165627a7a723058203dbeddcbbd2cf96a8f5a23c0333061bc5a5faae3c7b16b4f9c6119e9cd45b8390029",
  "source": "pragma solidity ^0.4.8;\n\nimport \"./dispatcher/DispatcherStorage.sol\";\n\n/**\n * Defines the storage space for the TimelineLibDispatcher which connects contracts with\n * the current version of the TimelineLib.\n */\ncontract IbaseLibDispatcherStorage is DispatcherStorage {\n    \n    function IbaseLibDispatcherStorage(address _lib) DispatcherStorage(_lib) {}\n\n    /**\n     * Init function called by the base Dispatcher class that allows you to define the \n     * return value byte sizes for functions with return values in the TimelineLib.\n     */\n    function init() private {\n        sizes[bytes4(sha3(\"createContractFromBytes(bytes)\"))] = 32;\n    }\n}",
  "sourcePath": "/Users/MasterChief/Cog/cog-contract/contracts/base/IbaseLibDispatcherStorage.sol",
  "compiler": {
    "name": "solc",
    "version": "0.4.18+commit.9cf6e910.Emscripten.clang"
  },
  "schemaVersion": "1.0.1",
  "updatedAt": "2018-01-15T19:32:46.194Z"
}