{
  "contractName": "ProofDocument",
  "abi": [
    {
      "constant": true,
      "inputs": [],
      "name": "hash",
      "outputs": [
        {
          "name": "",
          "type": "bytes32"
        }
      ],
      "payable": false,
      "stateMutability": "view",
      "type": "function"
    },
    {
      "constant": true,
      "inputs": [],
      "name": "next",
      "outputs": [
        {
          "name": "",
          "type": "address"
        }
      ],
      "payable": false,
      "stateMutability": "view",
      "type": "function"
    },
    {
      "constant": true,
      "inputs": [],
      "name": "location",
      "outputs": [
        {
          "name": "",
          "type": "string"
        }
      ],
      "payable": false,
      "stateMutability": "view",
      "type": "function"
    },
    {
      "constant": false,
      "inputs": [
        {
          "name": "_owner",
          "type": "address"
        }
      ],
      "name": "transferOwnershipTo",
      "outputs": [],
      "payable": false,
      "stateMutability": "nonpayable",
      "type": "function"
    },
    {
      "constant": false,
      "inputs": [
        {
          "name": "location",
          "type": "string"
        }
      ],
      "name": "setLocation",
      "outputs": [],
      "payable": false,
      "stateMutability": "nonpayable",
      "type": "function"
    },
    {
      "constant": true,
      "inputs": [],
      "name": "owner",
      "outputs": [
        {
          "name": "",
          "type": "address"
        }
      ],
      "payable": false,
      "stateMutability": "view",
      "type": "function"
    },
    {
      "constant": false,
      "inputs": [
        {
          "name": "next",
          "type": "address"
        }
      ],
      "name": "setNext",
      "outputs": [],
      "payable": false,
      "stateMutability": "nonpayable",
      "type": "function"
    },
    {
      "constant": true,
      "inputs": [],
      "name": "timestamp",
      "outputs": [
        {
          "name": "",
          "type": "uint256"
        }
      ],
      "payable": false,
      "stateMutability": "view",
      "type": "function"
    },
    {
      "constant": true,
      "inputs": [],
      "name": "interfaceID",
      "outputs": [
        {
          "name": "",
          "type": "bytes32"
        }
      ],
      "payable": false,
      "stateMutability": "view",
      "type": "function"
    },
    {
      "constant": true,
      "inputs": [],
      "name": "createdAt",
      "outputs": [
        {
          "name": "",
          "type": "uint256"
        }
      ],
      "payable": false,
      "stateMutability": "view",
      "type": "function"
    },
    {
      "inputs": [
        {
          "name": "location",
          "type": "string"
        },
        {
          "name": "hash",
          "type": "bytes32"
        }
      ],
      "payable": false,
      "stateMutability": "nonpayable",
      "type": "constructor"
    }
  ],
  "bytecode": "0x6060604052341561000f57600080fd5b6040516108e23803806108e28339810160405280805182019190602001805190602001909190505033806000806101000a81548173ffffffffffffffffffffffffffffffffffffffff021916908373ffffffffffffffffffffffffffffffffffffffff16021790555050426001819055507f79056e9bb24f897d7f885dacdb2d506599944c0cdfd6b7495eb7f3ea624ac5af6001026002600001816000191690555081600460000190805190602001906100ca9291906100e0565b5080600460010181600019169055505050610185565b828054600181600116156101000203166002900490600052602060002090601f016020900481019282601f1061012157805160ff191683800117855561014f565b8280016001018555821561014f579182015b8281111561014e578251825591602001919060010190610133565b5b50905061015c9190610160565b5090565b61018291905b8082111561017e576000816000905550600101610166565b5090565b90565b61074e806101946000396000f3006060604052600436106100a4576000357c0100000000000000000000000000000000000000000000000000000000900463ffffffff16806309bd5a60146100a95780634c8fe526146100da578063516f279e1461012f57806352effe11146101bd578063827bfbdf146101f65780638da5cb5b14610253578063b2b2b44d146102a8578063b80777ea146102e1578063ba19322d1461030a578063cf09e0d01461033b575b600080fd5b34156100b457600080fd5b6100bc610364565b60405180826000191660001916815260200191505060405180910390f35b34156100e557600080fd5b6100ed610371565b604051808273ffffffffffffffffffffffffffffffffffffffff1673ffffffffffffffffffffffffffffffffffffffff16815260200191505060405180910390f35b341561013a57600080fd5b61014261039e565b6040518080602001828103825283818151815260200191508051906020019080838360005b83811015610182578082015181840152602081019050610167565b50505050905090810190601f1680156101af5780820380516001836020036101000a031916815260200191505b509250505060405180910390f35b34156101c857600080fd5b6101f4600480803573ffffffffffffffffffffffffffffffffffffffff16906020019091905050610449565b005b341561020157600080fd5b610251600480803590602001908201803590602001908080601f01602080910402602001604051908101604052809392919081815260200183838082843782019150505050505091905050610523565b005b341561025e57600080fd5b610266610614565b604051808273ffffffffffffffffffffffffffffffffffffffff1673ffffffffffffffffffffffffffffffffffffffff16815260200191505060405180910390f35b34156102b357600080fd5b6102df600480803573ffffffffffffffffffffffffffffffffffffffff16906020019091905050610639565b005b34156102ec57600080fd5b6102f46106f1565b6040518082815260200191505060405180910390f35b341561031557600080fd5b61031d6106f7565b60405180826000191660001916815260200191505060405180910390f35b341561034657600080fd5b61034e610704565b6040518082815260200191505060405180910390f35b6000600460010154905090565b6000600260010160009054906101000a900473ffffffffffffffffffffffffffffffffffffffff16905090565b6103a661070e565b60046000018054600181600116156101000203166002900480601f01602080910402602001604051908101604052809291908181526020018280546001816001161561010002031660029004801561043f5780601f106104145761010080835404028352916020019161043f565b820191906000526020600020905b81548152906001019060200180831161042257829003601f168201915b5050505050905090565b6000809054906101000a900473ffffffffffffffffffffffffffffffffffffffff1673ffffffffffffffffffffffffffffffffffffffff163373ffffffffffffffffffffffffffffffffffffffff161415156104a457600080fd5b600073ffffffffffffffffffffffffffffffffffffffff168173ffffffffffffffffffffffffffffffffffffffff16141515156104e057600080fd5b806000806101000a81548173ffffffffffffffffffffffffffffffffffffffff021916908373ffffffffffffffffffffffffffffffffffffffff16021790555050565b600473__ITimelineDocumentLib__________________6364e4f1f79091836040518363ffffffff167c01000000000000000000000000000000000000000000000000000000000281526004018083815260200180602001828103825283818151815260200191508051906020019080838360005b838110156105b3578082015181840152602081019050610598565b50505050905090810190601f1680156105e05780820380516001836020036101000a031916815260200191505b50935050505060006040518083038186803b15156105fd57600080fd5b6102c65a03f4151561060e57600080fd5b50505050565b6000809054906101000a900473ffffffffffffffffffffffffffffffffffffffff1681565b600273__ITimelineDocumentLib__________________632d637bc69091836040518363ffffffff167c0100000000000000000000000000000000000000000000000000000000028152600401808381526020018273ffffffffffffffffffffffffffffffffffffffff1673ffffffffffffffffffffffffffffffffffffffff1681526020019250505060006040518083038186803b15156106da57600080fd5b6102c65a03f415156106eb57600080fd5b50505050565b60015481565b6000600260000154905090565b6000600154905090565b6020604051908101604052806000815250905600a165627a7a72305820d78355c9be41891f9f2f92ba6820ebc102675c4dbcde25c51765e85e6a157c100029",
  "source": "pragma solidity ^0.4.8;\n\nimport \"./TimelineDocument.sol\";\n\n/**\n * Represents a location and SHA-256 hash of a document that shows proof\n * of something.\n *\n * Copyright (c) 2017 Cognate, Inc.\n */\ncontract ProofDocument is TimelineDocument {\n    using ITimelineDocumentLib for ITimelineDocumentLib.ProofDocumentStorage;\n\n    ITimelineDocumentLib.ProofDocumentStorage proofDocument;\n\n    function ProofDocument(string location, \n                           bytes32 hash) {\n      \n        proofDocument._location = location;\n        proofDocument._hash = hash;\n    }\n\n\n    function setLocation(string location) public {\n        proofDocument.setLocation(location);\n    }\n\n\n    // Getters\n    //--------\n\n    function location() public constant returns (string) {\n        return proofDocument._location;\n    }\n\n    function hash() public constant returns (bytes32) {\n        return proofDocument._hash;\n    }\n}",
  "sourcePath": "/Users/MasterChief/Cog/cog-contract/contracts/timeline/timelineDocuments/ProofDocument.sol",
  "compiler": {
    "name": "solc",
    "version": "0.4.18+commit.9cf6e910.Emscripten.clang"
  },
  "schemaVersion": "1.0.1",
  "updatedAt": "2018-01-15T19:32:46.201Z"
}