{
  "contractName": "timestamped",
  "abi": [
    {
      "constant": true,
      "inputs": [],
      "name": "timestamp",
      "outputs": [
        {
          "name": "",
          "type": "uint256"
        }
      ],
      "payable": false,
      "stateMutability": "view",
      "type": "function"
    },
    {
      "constant": true,
      "inputs": [],
      "name": "createdAt",
      "outputs": [
        {
          "name": "",
          "type": "uint256"
        }
      ],
      "payable": false,
      "stateMutability": "view",
      "type": "function"
    },
    {
      "inputs": [],
      "payable": false,
      "stateMutability": "nonpayable",
      "type": "constructor"
    }
  ],
  "bytecode": "0x6060604052341561000f57600080fd5b4260008190555060d5806100246000396000f3006060604052600436106049576000357c0100000000000000000000000000000000000000000000000000000000900463ffffffff168063b80777ea14604e578063cf09e0d0146074575b600080fd5b3415605857600080fd5b605e609a565b6040518082815260200191505060405180910390f35b3415607e57600080fd5b608460a0565b6040518082815260200191505060405180910390f35b60005481565b600080549050905600a165627a7a723058201ed6f9dd828633a283108349b79c08f5e2e06c87b912e25333abb05f6fa170780029",
  "source": "pragma solidity ^0.4.8;\n\n/**\n * Adds a createdAt timestamp to inheriting class. This isn't technically needed\n * since the block timestamp should always be accessible, however this provides a\n * more straightforward way to discover the timestamp of creation of a particular\n * contract\n *\n * Copyright (c) 2017 Cognate, Inc.\n */\ncontract timestamped {\n    uint public timestamp;\n\n    function timestamped() {\n        timestamp = now;\n    }\n\n    function createdAt() public constant returns (uint) {\n        return timestamp;\n    }\n}",
  "sourcePath": "/Users/MasterChief/Cog/cog-contract/contracts/base/timestamped.sol",
  "compiler": {
    "name": "solc",
    "version": "0.4.18+commit.9cf6e910.Emscripten.clang"
  },
  "schemaVersion": "1.0.1",
  "updatedAt": "2018-01-15T19:32:46.195Z"
}