{
  "contractName": "Timeline",
  "abi": [
    {
      "constant": false,
      "inputs": [
        {
          "name": "to",
          "type": "address"
        }
      ],
      "name": "upgrade",
      "outputs": [],
      "payable": false,
      "stateMutability": "nonpayable",
      "type": "function"
    },
    {
      "constant": true,
      "inputs": [],
      "name": "tail",
      "outputs": [
        {
          "name": "",
          "type": "address"
        }
      ],
      "payable": false,
      "stateMutability": "view",
      "type": "function"
    },
    {
      "constant": true,
      "inputs": [],
      "name": "next",
      "outputs": [
        {
          "name": "",
          "type": "address"
        }
      ],
      "payable": false,
      "stateMutability": "view",
      "type": "function"
    },
    {
      "constant": false,
      "inputs": [
        {
          "name": "_owner",
          "type": "address"
        }
      ],
      "name": "transferOwnershipTo",
      "outputs": [],
      "payable": false,
      "stateMutability": "nonpayable",
      "type": "function"
    },
    {
      "constant": true,
      "inputs": [],
      "name": "version",
      "outputs": [
        {
          "name": "",
          "type": "uint16"
        }
      ],
      "payable": false,
      "stateMutability": "view",
      "type": "function"
    },
    {
      "constant": true,
      "inputs": [],
      "name": "previous",
      "outputs": [
        {
          "name": "",
          "type": "address"
        }
      ],
      "payable": false,
      "stateMutability": "view",
      "type": "function"
    },
    {
      "constant": true,
      "inputs": [],
      "name": "owner",
      "outputs": [
        {
          "name": "",
          "type": "address"
        }
      ],
      "payable": false,
      "stateMutability": "view",
      "type": "function"
    },
    {
      "constant": false,
      "inputs": [
        {
          "name": "document",
          "type": "address"
        }
      ],
      "name": "append",
      "outputs": [],
      "payable": false,
      "stateMutability": "nonpayable",
      "type": "function"
    },
    {
      "constant": true,
      "inputs": [],
      "name": "upgraded",
      "outputs": [
        {
          "name": "",
          "type": "bool"
        }
      ],
      "payable": false,
      "stateMutability": "view",
      "type": "function"
    },
    {
      "constant": false,
      "inputs": [
        {
          "name": "target",
          "type": "address"
        },
        {
          "name": "value",
          "type": "uint256"
        },
        {
          "name": "funcData",
          "type": "bytes"
        }
      ],
      "name": "callFunctionOf",
      "outputs": [
        {
          "name": "",
          "type": "bool"
        }
      ],
      "payable": false,
      "stateMutability": "nonpayable",
      "type": "function"
    },
    {
      "constant": false,
      "inputs": [
        {
          "name": "documentCode",
          "type": "bytes"
        }
      ],
      "name": "appendBytes",
      "outputs": [],
      "payable": false,
      "stateMutability": "nonpayable",
      "type": "function"
    },
    {
      "inputs": [
        {
          "name": "previous",
          "type": "address"
        }
      ],
      "payable": false,
      "stateMutability": "nonpayable",
      "type": "constructor"
    }
  ],
  "bytecode": "0x6060604052341561000f57600080fd5b604051602080610b5c8339810160405280805190602001909190505033806000806101000a81548173ffffffffffffffffffffffffffffffffffffffff021916908373ffffffffffffffffffffffffffffffffffffffff160217905550506003600160000160006101000a81548161ffff021916908361ffff160217905550600173__ITimelineLib__________________________639c5a00609091836040518363ffffffff167c0100000000000000000000000000000000000000000000000000000000028152600401808381526020018273ffffffffffffffffffffffffffffffffffffffff1673ffffffffffffffffffffffffffffffffffffffff1681526020019250505060006040518083038186803b151561012f57600080fd5b6102c65a03f4151561014057600080fd5b50505050610a09806101536000396000f3006060604052600436106100af576000357c0100000000000000000000000000000000000000000000000000000000900463ffffffff1680630900f010146100b457806313d8c840146100ed5780634c8fe5261461014257806352effe111461019757806354fd4d50146101d05780637c2b2e71146102015780638da5cb5b14610256578063ac04f5a7146102ab578063c28de2cd146102e4578063c773102814610311578063e5c1ec89146103ae575b600080fd5b34156100bf57600080fd5b6100eb600480803573ffffffffffffffffffffffffffffffffffffffff1690602001909190505061040b565b005b34156100f857600080fd5b610100610527565b604051808273ffffffffffffffffffffffffffffffffffffffff1673ffffffffffffffffffffffffffffffffffffffff16815260200191505060405180910390f35b341561014d57600080fd5b610155610554565b604051808273ffffffffffffffffffffffffffffffffffffffff1673ffffffffffffffffffffffffffffffffffffffff16815260200191505060405180910390f35b34156101a257600080fd5b6101ce600480803573ffffffffffffffffffffffffffffffffffffffff16906020019091905050610581565b005b34156101db57600080fd5b6101e361065b565b604051808261ffff1661ffff16815260200191505060405180910390f35b341561020c57600080fd5b610214610676565b604051808273ffffffffffffffffffffffffffffffffffffffff1673ffffffffffffffffffffffffffffffffffffffff16815260200191505060405180910390f35b341561026157600080fd5b6102696106a3565b604051808273ffffffffffffffffffffffffffffffffffffffff1673ffffffffffffffffffffffffffffffffffffffff16815260200191505060405180910390f35b34156102b657600080fd5b6102e2600480803573ffffffffffffffffffffffffffffffffffffffff169060200190919050506106c8565b005b34156102ef57600080fd5b6102f7610780565b604051808215151515815260200191505060405180910390f35b341561031c57600080fd5b610394600480803573ffffffffffffffffffffffffffffffffffffffff1690602001909190803590602001909190803590602001908201803590602001908080601f0160208091040260200160405190810160405280939291908181526020018383808284378201915050505050509190505061079a565b604051808215151515815260200191505060405180910390f35b34156103b957600080fd5b610409600480803590602001908201803590602001908080601f016020809104026020016040519081016040528093929190818152602001838380828437820191505050505050919050506108ec565b005b6000809054906101000a900473ffffffffffffffffffffffffffffffffffffffff1673ffffffffffffffffffffffffffffffffffffffff163373ffffffffffffffffffffffffffffffffffffffff1614151561046657600080fd5b61046f81610581565b600173__ITimelineLib__________________________63e48a8ed69091836040518363ffffffff167c0100000000000000000000000000000000000000000000000000000000028152600401808381526020018273ffffffffffffffffffffffffffffffffffffffff1673ffffffffffffffffffffffffffffffffffffffff1681526020019250505060006040518083038186803b151561051057600080fd5b6102c65a03f4151561052157600080fd5b50505050565b6000600160040160009054906101000a900473ffffffffffffffffffffffffffffffffffffffff16905090565b6000600160030160009054906101000a900473ffffffffffffffffffffffffffffffffffffffff16905090565b6000809054906101000a900473ffffffffffffffffffffffffffffffffffffffff1673ffffffffffffffffffffffffffffffffffffffff163373ffffffffffffffffffffffffffffffffffffffff161415156105dc57600080fd5b600073ffffffffffffffffffffffffffffffffffffffff168173ffffffffffffffffffffffffffffffffffffffff161415151561061857600080fd5b806000806101000a81548173ffffffffffffffffffffffffffffffffffffffff021916908373ffffffffffffffffffffffffffffffffffffffff16021790555050565b6000600160000160009054906101000a900461ffff16905090565b6000600160020160019054906101000a900473ffffffffffffffffffffffffffffffffffffffff16905090565b6000809054906101000a900473ffffffffffffffffffffffffffffffffffffffff1681565b600173__ITimelineLib__________________________63c86115719091836040518363ffffffff167c0100000000000000000000000000000000000000000000000000000000028152600401808381526020018273ffffffffffffffffffffffffffffffffffffffff1673ffffffffffffffffffffffffffffffffffffffff1681526020019250505060006040518083038186803b151561076957600080fd5b6102c65a03f4151561077a57600080fd5b50505050565b6000600160020160009054906101000a900460ff16905090565b60008373ffffffffffffffffffffffffffffffffffffffff1673__ITimelineLib__________________________63c7731028909185856000604051602001526040518463ffffffff167c0100000000000000000000000000000000000000000000000000000000028152600401808473ffffffffffffffffffffffffffffffffffffffff1673ffffffffffffffffffffffffffffffffffffffff16815260200183815260200180602001828103825283818151815260200191508051906020019080838360005b8381101561087d578082015181840152602081019050610862565b50505050905090810190601f1680156108aa5780820380516001836020036101000a031916815260200191505b5094505050505060206040518083038186803b15156108c857600080fd5b6102c65a03f415156108d957600080fd5b5050506040518051905090509392505050565b600173__ITimelineLib__________________________63ffeba90e9091836040518363ffffffff167c01000000000000000000000000000000000000000000000000000000000281526004018083815260200180602001828103825283818151815260200191508051906020019080838360005b8381101561097c578082015181840152602081019050610961565b50505050905090810190601f1680156109a95780820380516001836020036101000a031916815260200191505b50935050505060006040518083038186803b15156109c657600080fd5b6102c65a03f415156109d757600080fd5b505050505600a165627a7a72305820e8e0715f757a705bddac6595adf717418be958d89a125499d9f9eabd3bc4955b0029",
  "source": "pragma solidity ^0.4.8;\n\nimport \"../base/owned.sol\";\nimport \"../base/mortal.sol\";\nimport \"./ITimelineLib.sol\";\n\n/**\n * Base Contract for a TimeLine which is a cohesive linked list of documents that creates an\n * immutable and immortal history. The basic principles of a Timeline is that the data it stores can \n * never be altered but new timeline documents can be appended in order to build more history.\n *\n * NOTE: Remember to update upgradeable(version) in the declaration when creating a new version\n * of timeline \n *\n * Copyright (c) 2017 Cognate, Inc.\n */\ncontract Timeline is owned(msg.sender) {\n    using ITimelineLib for *;\n\n    ITimelineLib.TimelineStorage timeline;\n\n    function Timeline(address previous) {\n        timeline._version = 3;\n        timeline.init(Timeline(previous));\n    }\n    \n\n    // calls ITimelineLib.append()\n    function append(TimelineDocument document) public {\n        timeline.append(document);\n    }\n\n    // calls ITimelineLib.appendBytes()\n    function appendBytes(bytes documentCode) public {\n        timeline.appendBytes(documentCode);\n    }\n\n    // calls ITimelineLib.append()\n    /*function remove(TimelineDocument document) public {\n        timeline.remove(document);\n    }*/\n\n    // calls ITimelineLib.callFunctionOf()\n    function callFunctionOf(address target, uint value, bytes funcData) public returns (bool) {\n        return target.callFunctionOf(value, funcData);\n    }\n\n    // calls ITimelineLib.upgrade()\n    function upgrade(Timeline to) public onlyOwner {\n        transferOwnershipTo(to);\n        timeline.upgrade(to);\n    }\n\n    // Getters\n    //---------\n    function version() public constant returns (uint16) {\n        return timeline._version;\n    }\n\n    function upgraded() public constant returns (bool) {\n        return timeline._upgraded;\n    }\n\n    function previous() public constant returns (Timeline) {\n        return timeline._previous;\n    }\n\n    function next() constant returns (TimelineDocument) {\n        return timeline._next;\n    }\n\n    function tail() constant returns (TimelineDocument) {\n        return timeline._tail;\n    }\n}\n",
  "sourcePath": "/Users/MasterChief/Cog/cog-contract/contracts/timeline/Timeline.sol",
  "compiler": {
    "name": "solc",
    "version": "0.4.18+commit.9cf6e910.Emscripten.clang"
  },
  "schemaVersion": "1.0.1",
  "updatedAt": "2018-01-15T19:32:46.198Z"
}