{
  "contractName": "TimelineDocument",
  "abi": [
    {
      "constant": true,
      "inputs": [],
      "name": "next",
      "outputs": [
        {
          "name": "",
          "type": "address"
        }
      ],
      "payable": false,
      "stateMutability": "view",
      "type": "function"
    },
    {
      "constant": false,
      "inputs": [
        {
          "name": "_owner",
          "type": "address"
        }
      ],
      "name": "transferOwnershipTo",
      "outputs": [],
      "payable": false,
      "stateMutability": "nonpayable",
      "type": "function"
    },
    {
      "constant": true,
      "inputs": [],
      "name": "owner",
      "outputs": [
        {
          "name": "",
          "type": "address"
        }
      ],
      "payable": false,
      "stateMutability": "view",
      "type": "function"
    },
    {
      "constant": false,
      "inputs": [
        {
          "name": "next",
          "type": "address"
        }
      ],
      "name": "setNext",
      "outputs": [],
      "payable": false,
      "stateMutability": "nonpayable",
      "type": "function"
    },
    {
      "constant": true,
      "inputs": [],
      "name": "timestamp",
      "outputs": [
        {
          "name": "",
          "type": "uint256"
        }
      ],
      "payable": false,
      "stateMutability": "view",
      "type": "function"
    },
    {
      "constant": true,
      "inputs": [],
      "name": "interfaceID",
      "outputs": [
        {
          "name": "",
          "type": "bytes32"
        }
      ],
      "payable": false,
      "stateMutability": "view",
      "type": "function"
    },
    {
      "constant": true,
      "inputs": [],
      "name": "createdAt",
      "outputs": [
        {
          "name": "",
          "type": "uint256"
        }
      ],
      "payable": false,
      "stateMutability": "view",
      "type": "function"
    },
    {
      "inputs": [],
      "payable": false,
      "stateMutability": "nonpayable",
      "type": "constructor"
    }
  ],
  "bytecode": "0x6060604052341561000f57600080fd5b33806000806101000a81548173ffffffffffffffffffffffffffffffffffffffff021916908373ffffffffffffffffffffffffffffffffffffffff16021790555050426001819055507f79056e9bb24f897d7f885dacdb2d506599944c0cdfd6b7495eb7f3ea624ac5af60010260026000018160001916905550610454806100986000396000f300606060405260043610610083576000357c0100000000000000000000000000000000000000000000000000000000900463ffffffff1680634c8fe5261461008857806352effe11146100dd5780638da5cb5b14610116578063b2b2b44d1461016b578063b80777ea146101a4578063ba19322d146101cd578063cf09e0d0146101fe575b600080fd5b341561009357600080fd5b61009b610227565b604051808273ffffffffffffffffffffffffffffffffffffffff1673ffffffffffffffffffffffffffffffffffffffff16815260200191505060405180910390f35b34156100e857600080fd5b610114600480803573ffffffffffffffffffffffffffffffffffffffff16906020019091905050610254565b005b341561012157600080fd5b61012961032e565b604051808273ffffffffffffffffffffffffffffffffffffffff1673ffffffffffffffffffffffffffffffffffffffff16815260200191505060405180910390f35b341561017657600080fd5b6101a2600480803573ffffffffffffffffffffffffffffffffffffffff16906020019091905050610353565b005b34156101af57600080fd5b6101b761040b565b6040518082815260200191505060405180910390f35b34156101d857600080fd5b6101e0610411565b60405180826000191660001916815260200191505060405180910390f35b341561020957600080fd5b61021161041e565b6040518082815260200191505060405180910390f35b6000600260010160009054906101000a900473ffffffffffffffffffffffffffffffffffffffff16905090565b6000809054906101000a900473ffffffffffffffffffffffffffffffffffffffff1673ffffffffffffffffffffffffffffffffffffffff163373ffffffffffffffffffffffffffffffffffffffff161415156102af57600080fd5b600073ffffffffffffffffffffffffffffffffffffffff168173ffffffffffffffffffffffffffffffffffffffff16141515156102eb57600080fd5b806000806101000a81548173ffffffffffffffffffffffffffffffffffffffff021916908373ffffffffffffffffffffffffffffffffffffffff16021790555050565b6000809054906101000a900473ffffffffffffffffffffffffffffffffffffffff1681565b600273__ITimelineDocumentLib__________________632d637bc69091836040518363ffffffff167c0100000000000000000000000000000000000000000000000000000000028152600401808381526020018273ffffffffffffffffffffffffffffffffffffffff1673ffffffffffffffffffffffffffffffffffffffff1681526020019250505060006040518083038186803b15156103f457600080fd5b6102c65a03f4151561040557600080fd5b50505050565b60015481565b6000600260000154905090565b60006001549050905600a165627a7a7230582010b323bf48d2a0112600789f12fdc4cf6a10e6c306ca21841ea363ba4fbb94610029",
  "source": "pragma solidity ^0.4.8;\n\nimport \"../../base/owned.sol\";\nimport \"../../base/timestamped.sol\";\nimport \"../Timeline.sol\";\nimport \"./ITimelineDocumentLib.sol\";\n\n/**\n * Base Contract for TimeLineDocuments which contain specific information contributing\n * chronological data and events to building a comprehensive smart asset \n *\n * Copyright (c) 2017 Cognate, Inc.\n */\ncontract TimelineDocument is owned(msg.sender), timestamped {\n    using ITimelineDocumentLib for ITimelineDocumentLib.TimelineDocumentStorage;\n\n    ITimelineDocumentLib.TimelineDocumentStorage timelineDocument;\n    \n    function TimelineDocument() {\n        timelineDocument._interfaceID = 0x79056e9bb24f897d7f885dacdb2d506599944c0cdfd6b7495eb7f3ea624ac5af;\n    }\n    \n\n    // calls ITimelineDocumentLib.setNext()\n    function setNext(TimelineDocument next) public {\n        timelineDocument.setNext(next);\n    }\n\n    // calls ITimelineDocumentLib.setPrev()\n    /*function setPrev(TimelineDocument prev) public {\n        timelineDocument.setPrev(prev);\n    }*/\n\n\n    // Getters\n    //--------\n\n    function interfaceID() constant returns (bytes32) {\n        return timelineDocument._interfaceID;\n    }\n\n    function next() constant returns (TimelineDocument) {\n        return timelineDocument._next;\n    }\n\n    /*function prev() constant returns (TimelineDocument) {\n        return timelineDocument._prev;\n    }*/\n}",
  "sourcePath": "/Users/MasterChief/Cog/cog-contract/contracts/timeline/timelineDocuments/TimelineDocument.sol",
  "compiler": {
    "name": "solc",
    "version": "0.4.18+commit.9cf6e910.Emscripten.clang"
  },
  "schemaVersion": "1.0.1",
  "updatedAt": "2018-01-15T19:32:46.202Z"
}