{
  "contractName": "TimelineLib",
  "abi": [
    {
      "constant": false,
      "inputs": [
        {
          "name": "self",
          "type": "ITimelineLib.TimelineStorage storage"
        },
        {
          "name": "previous",
          "type": "Timeline"
        }
      ],
      "name": "init",
      "outputs": [],
      "payable": false,
      "stateMutability": "nonpayable",
      "type": "function"
    },
    {
      "constant": false,
      "inputs": [
        {
          "name": "target",
          "type": "address"
        },
        {
          "name": "value",
          "type": "uint256"
        },
        {
          "name": "data",
          "type": "bytes"
        }
      ],
      "name": "callFunctionOf",
      "outputs": [
        {
          "name": "",
          "type": "bool"
        }
      ],
      "payable": false,
      "stateMutability": "nonpayable",
      "type": "function"
    },
    {
      "constant": false,
      "inputs": [
        {
          "name": "self",
          "type": "ITimelineLib.TimelineStorage storage"
        },
        {
          "name": "document",
          "type": "TimelineDocument"
        }
      ],
      "name": "append",
      "outputs": [],
      "payable": false,
      "stateMutability": "nonpayable",
      "type": "function"
    },
    {
      "constant": false,
      "inputs": [
        {
          "name": "self",
          "type": "ITimelineLib.TimelineStorage storage"
        },
        {
          "name": "to",
          "type": "Timeline"
        }
      ],
      "name": "upgrade",
      "outputs": [],
      "payable": false,
      "stateMutability": "nonpayable",
      "type": "function"
    },
    {
      "constant": false,
      "inputs": [
        {
          "name": "self",
          "type": "ITimelineLib.TimelineStorage storage"
        },
        {
          "name": "documentCode",
          "type": "bytes"
        }
      ],
      "name": "appendBytes",
      "outputs": [],
      "payable": false,
      "stateMutability": "nonpayable",
      "type": "function"
    }
  ],
  "bytecode": "0x6060604052341561000f57600080fd5b6111758061001e6000396000f30060606040526004361061006d576000357c0100000000000000000000000000000000000000000000000000000000900463ffffffff1680639c5a006014610072578063c7731028146100a9578063c86115711461013b578063e48a8ed614610172578063ffeba90e146101a9575b600080fd5b6100a7600480803590602001909190803573ffffffffffffffffffffffffffffffffffffffff16906020019091905050610204565b005b610121600480803573ffffffffffffffffffffffffffffffffffffffff1690602001909190803590602001909190803590602001908201803590602001908080601f01602080910402602001604051908101604052809392919081815260200183838082843782019150505050505091905050610461565b604051808215151515815260200191505060405180910390f35b610170600480803590602001909190803573ffffffffffffffffffffffffffffffffffffffff1690602001909190505061072b565b005b6101a7600480803590602001909190803573ffffffffffffffffffffffffffffffffffffffff16906020019091905050610c1f565b005b610202600480803590602001909190803590602001908201803590602001908080601f01602080910402602001604051908101604052809392919081815260200183838082843782019150505050505091905050610e70565b005b7f79056e9bb24f897d7f885dacdb2d506599944c0cdfd6b7495eb7f3ea624ac5af60010282600101816000191690555060008260020160006101000a81548160ff021916908315150217905550808260020160016101000a81548173ffffffffffffffffffffffffffffffffffffffff021916908373ffffffffffffffffffffffffffffffffffffffff160217905550600073ffffffffffffffffffffffffffffffffffffffff168173ffffffffffffffffffffffffffffffffffffffff1614151561045d578073ffffffffffffffffffffffffffffffffffffffff16634c8fe5266000604051602001526040518163ffffffff167c0100000000000000000000000000000000000000000000000000000000028152600401602060405180830381600087803b151561033657600080fd5b6102c65a03f1151561034757600080fd5b505050604051805190508260030160006101000a81548173ffffffffffffffffffffffffffffffffffffffff021916908373ffffffffffffffffffffffffffffffffffffffff1602179055508073ffffffffffffffffffffffffffffffffffffffff166313d8c8406000604051602001526040518163ffffffff167c0100000000000000000000000000000000000000000000000000000000028152600401602060405180830381600087803b15156103ff57600080fd5b6102c65a03f1151561041057600080fd5b505050604051805190508260040160006101000a81548173ffffffffffffffffffffffffffffffffffffffff021916908373ffffffffffffffffffffffffffffffffffffffff1602179055505b5050565b6000803073ffffffffffffffffffffffffffffffffffffffff16638da5cb5b6000604051602001526040518163ffffffff167c0100000000000000000000000000000000000000000000000000000000028152600401602060405180830381600087803b15156104d057600080fd5b6102c65a03f115156104e157600080fd5b5050506040518051905073ffffffffffffffffffffffffffffffffffffffff16638da5cb5b6000604051602001526040518163ffffffff167c0100000000000000000000000000000000000000000000000000000000028152600401602060405180830381600087803b151561055657600080fd5b6102c65a03f1151561056757600080fd5b5050506040518051905073ffffffffffffffffffffffffffffffffffffffff163373ffffffffffffffffffffffffffffffffffffffff161415156105aa57600080fd5b3073ffffffffffffffffffffffffffffffffffffffff1663c28de2cd6000604051602001526040518163ffffffff167c0100000000000000000000000000000000000000000000000000000000028152600401602060405180830381600087803b151561061657600080fd5b6102c65a03f1151561062757600080fd5b5050506040518051905015151561063d57600080fd5b6020830151905063b2b2b44d7c010000000000000000000000000000000000000000000000000000000002817bffffffffffffffffffffffffffffffffffffffffffffffffffffffff19161415151561069557600080fd5b8473ffffffffffffffffffffffffffffffffffffffff16848460405180828051906020019080838360005b838110156106db5780820151818401526020810190506106c0565b50505050905090810190601f1680156107085780820380516001836020036101000a031916815260200191505b5091505060006040518083038185876187965a03f1925050509150509392505050565b3073ffffffffffffffffffffffffffffffffffffffff16638da5cb5b6000604051602001526040518163ffffffff167c0100000000000000000000000000000000000000000000000000000000028152600401602060405180830381600087803b151561079757600080fd5b6102c65a03f115156107a857600080fd5b5050506040518051905073ffffffffffffffffffffffffffffffffffffffff16638da5cb5b6000604051602001526040518163ffffffff167c0100000000000000000000000000000000000000000000000000000000028152600401602060405180830381600087803b151561081d57600080fd5b6102c65a03f1151561082e57600080fd5b5050506040518051905073ffffffffffffffffffffffffffffffffffffffff163373ffffffffffffffffffffffffffffffffffffffff1614151561087157600080fd5b3073ffffffffffffffffffffffffffffffffffffffff1663c28de2cd6000604051602001526040518163ffffffff167c0100000000000000000000000000000000000000000000000000000000028152600401602060405180830381600087803b15156108dd57600080fd5b6102c65a03f115156108ee57600080fd5b5050506040518051905015151561090457600080fd5b3073ffffffffffffffffffffffffffffffffffffffff168173ffffffffffffffffffffffffffffffffffffffff16638da5cb5b6000604051602001526040518163ffffffff167c0100000000000000000000000000000000000000000000000000000000028152600401602060405180830381600087803b151561098757600080fd5b6102c65a03f1151561099857600080fd5b5050506040518051905073ffffffffffffffffffffffffffffffffffffffff161415156109c457600080fd5b8160010154600019168173ffffffffffffffffffffffffffffffffffffffff1663ba19322d6000604051602001526040518163ffffffff167c0100000000000000000000000000000000000000000000000000000000028152600401602060405180830381600087803b1515610a3957600080fd5b6102c65a03f11515610a4a57600080fd5b5050506040518051905060001916141515610a6457600080fd5b600073ffffffffffffffffffffffffffffffffffffffff168260030160009054906101000a900473ffffffffffffffffffffffffffffffffffffffff1673ffffffffffffffffffffffffffffffffffffffff161415610b0557808260030160006101000a81548173ffffffffffffffffffffffffffffffffffffffff021916908373ffffffffffffffffffffffffffffffffffffffff160217905550610bd8565b8160040160009054906101000a900473ffffffffffffffffffffffffffffffffffffffff1673ffffffffffffffffffffffffffffffffffffffff1663b2b2b44d826040518263ffffffff167c0100000000000000000000000000000000000000000000000000000000028152600401808273ffffffffffffffffffffffffffffffffffffffff1673ffffffffffffffffffffffffffffffffffffffff168152602001915050600060405180830381600087803b1515610bc357600080fd5b6102c65a03f11515610bd457600080fd5b5050505b808260040160006101000a81548173ffffffffffffffffffffffffffffffffffffffff021916908373ffffffffffffffffffffffffffffffffffffffff1602179055505050565b60003073ffffffffffffffffffffffffffffffffffffffff1663c28de2cd6000604051602001526040518163ffffffff167c0100000000000000000000000000000000000000000000000000000000028152600401602060405180830381600087803b1515610c8d57600080fd5b6102c65a03f11515610c9e57600080fd5b50505060405180519050151515610cb457600080fd5b60018360020160006101000a81548160ff0219169083151502179055508260020160019054906101000a900473ffffffffffffffffffffffffffffffffffffffff1690505b600073ffffffffffffffffffffffffffffffffffffffff168173ffffffffffffffffffffffffffffffffffffffff16141515610e6b578073ffffffffffffffffffffffffffffffffffffffff166352effe11836040518263ffffffff167c0100000000000000000000000000000000000000000000000000000000028152600401808273ffffffffffffffffffffffffffffffffffffffff1673ffffffffffffffffffffffffffffffffffffffff168152602001915050600060405180830381600087803b1515610dc957600080fd5b6102c65a03f11515610dda57600080fd5b5050508073ffffffffffffffffffffffffffffffffffffffff16637c2b2e716000604051602001526040518163ffffffff167c0100000000000000000000000000000000000000000000000000000000028152600401602060405180830381600087803b1515610e4957600080fd5b6102c65a03f11515610e5a57600080fd5b505050604051805190509050610cf9565b505050565b3073ffffffffffffffffffffffffffffffffffffffff16638da5cb5b6000604051602001526040518163ffffffff167c0100000000000000000000000000000000000000000000000000000000028152600401602060405180830381600087803b1515610edc57600080fd5b6102c65a03f11515610eed57600080fd5b5050506040518051905073ffffffffffffffffffffffffffffffffffffffff16638da5cb5b6000604051602001526040518163ffffffff167c0100000000000000000000000000000000000000000000000000000000028152600401602060405180830381600087803b1515610f6257600080fd5b6102c65a03f11515610f7357600080fd5b5050506040518051905073ffffffffffffffffffffffffffffffffffffffff163373ffffffffffffffffffffffffffffffffffffffff16141515610fb657600080fd5b3073ffffffffffffffffffffffffffffffffffffffff1663c28de2cd6000604051602001526040518163ffffffff167c0100000000000000000000000000000000000000000000000000000000028152600401602060405180830381600087803b151561102257600080fd5b6102c65a03f1151561103357600080fd5b5050506040518051905015151561104957600080fd5b6111458273__IbaseLib______________________________6352810427846000604051602001526040518263ffffffff167c01000000000000000000000000000000000000000000000000000000000281526004018080602001828103825283818151815260200191508051906020019080838360005b838110156110dc5780820151818401526020810190506110c1565b50505050905090810190601f1680156111095780820380516001836020036101000a031916815260200191505b509250505060206040518083038186803b151561112557600080fd5b6102c65a03f4151561113657600080fd5b5050506040518051905061072b565b50505600a165627a7a72305820a59e926754197ea78b57979f5e50acf8e93d4fbcfb642bbd2fb79f8931381c920029",
  "source": "pragma solidity ^0.4.8;\n\nimport \"./ITimelineLib.sol\";\n\n/**\n * ITimelineLib implementation v1.0\n *\n * Copyright (c) 2017 Cognate, Inc.\n */\nlibrary TimelineLib {\n\n    /**\n     * Restriction modifier, restricts access of methods to the latest top level timeline in\n     * the upgrade schema of the owning timeline\n     */\n    modifier onlyControllingOwner() {\n        require(msg.sender == owned(owned(this).owner()).owner());\n        _;\n    }\n\n    /**\n     * If a contract has been upgraded, functions marked by this modifier are no\n     * longer accessible\n     */\n    modifier notUpgraded() {\n        require(!Timeline(this).upgraded());\n        _;\n    }\n\n    function init(ITimelineLib.TimelineStorage storage self, Timeline previous) {\n        self._interfaceID = 0x79056e9bb24f897d7f885dacdb2d506599944c0cdfd6b7495eb7f3ea624ac5af;\n        self._upgraded = false;\n        self._previous = previous;\n\n        if(previous != address(0)) {\n            self._next = previous.next();\n            self._tail = previous.tail();\n        }\n    }\n\n    function upgrade(ITimelineLib.TimelineStorage storage self, Timeline to) notUpgraded {\n        self._upgraded = true;\n\n        Timeline prev = self._previous;\n        while(prev != address(0)) {\n            prev.transferOwnershipTo(to);\n            prev = prev.previous();\n        }\n    }\n\n    function append(ITimelineLib.TimelineStorage storage self, TimelineDocument document) onlyControllingOwner notUpgraded {\n        require(document.owner() == address(this));\n        require(document.interfaceID() == self._interfaceID);\n\n        // Append the document to this timeline\n        if(self._next == address(0)) {\n            self._next = document;\n        } else {\n            self._tail.setNext(document);\n        }\n\n        //document.setPrev(self._tail);\n        self._tail = document;\n    }\n\n    function appendBytes(ITimelineLib.TimelineStorage storage self, bytes documentCode) onlyControllingOwner notUpgraded {\n        append(self, TimelineDocument(IbaseLib.createContractFromBytes(documentCode)));\n    }\n\n    function callFunctionOf(address target, uint value, bytes data) onlyControllingOwner notUpgraded returns (bool) {\n        // limit which functions can be called via callFunctionOf\n        bytes32 calledFunctionSig;\n        assembly {\n            calledFunctionSig := mload(add(data, 32))\n        }\n        require(bytes4(calledFunctionSig) != 0xb2b2b44d); // prevent this function from calling setNext(address)\n        //require(bytes4(calledFunctionSig) != 0xb2b2b44d); // prevent this function from calling setPrev(address)\n\n        return target.call.value(value)(data);\n    }\n\n    /*function remove(ITimelineLib.TimelineStorage storage self, TimelineDocument target) onlyControllingOwner notUpgraded {\n        if(self._next == target) {\n            self._next = target.next();\n        } else {\n            target.prev().setNext(target.next());\n        }\n\n        if(self._tail != target) {\n            target.next().setPrev(target.prev());\n        }\n    }*/\n}",
  "sourcePath": "/Users/MasterChief/Cog/cog-contract/contracts/timeline/TimelineLib.sol",
  "compiler": {
    "name": "solc",
    "version": "0.4.18+commit.9cf6e910.Emscripten.clang"
  },
  "schemaVersion": "1.0.1",
  "updatedAt": "2018-01-15T19:32:46.198Z"
}