{
  "contractName": "TimelineDocumentLib",
  "abi": [
    {
      "constant": false,
      "inputs": [
        {
          "name": "self",
          "type": "ITimelineDocumentLib.TimelineDocumentStorage storage"
        },
        {
          "name": "next",
          "type": "TimelineDocument"
        }
      ],
      "name": "setNext",
      "outputs": [],
      "payable": false,
      "stateMutability": "nonpayable",
      "type": "function"
    },
    {
      "constant": false,
      "inputs": [
        {
          "name": "self",
          "type": "ITimelineDocumentLib.ClaimStorage storage"
        },
        {
          "name": "proof",
          "type": "address"
        }
      ],
      "name": "addProof",
      "outputs": [],
      "payable": false,
      "stateMutability": "nonpayable",
      "type": "function"
    },
    {
      "constant": false,
      "inputs": [
        {
          "name": "self",
          "type": "ITimelineDocumentLib.ProofDocumentStorage storage"
        },
        {
          "name": "location",
          "type": "string"
        }
      ],
      "name": "setLocation",
      "outputs": [],
      "payable": false,
      "stateMutability": "nonpayable",
      "type": "function"
    }
  ],
  "bytecode": "0x6060604052341561000f57600080fd5b610c348061001e6000396000f300606060405260043610610057576000357c0100000000000000000000000000000000000000000000000000000000900463ffffffff1680632d637bc61461005c578063427221c11461009357806364e4f1f7146100ca575b600080fd5b610091600480803590602001909190803573ffffffffffffffffffffffffffffffffffffffff16906020019091905050610125565b005b6100c8600480803590602001909190803573ffffffffffffffffffffffffffffffffffffffff16906020019091905050610483565b005b610123600480803590602001909190803590602001908201803590602001908080601f01602080910402602001604051908101604052809392919081815260200183838082843782019150505050505091905050610803565b005b3073ffffffffffffffffffffffffffffffffffffffff16638da5cb5b6000604051602001526040518163ffffffff167c0100000000000000000000000000000000000000000000000000000000028152600401602060405180830381600087803b151561019157600080fd5b6102c65a03f115156101a257600080fd5b5050506040518051905073ffffffffffffffffffffffffffffffffffffffff163373ffffffffffffffffffffffffffffffffffffffff16148061043157503073ffffffffffffffffffffffffffffffffffffffff16638da5cb5b6000604051602001526040518163ffffffff167c0100000000000000000000000000000000000000000000000000000000028152600401602060405180830381600087803b151561024c57600080fd5b6102c65a03f1151561025d57600080fd5b5050506040518051905073ffffffffffffffffffffffffffffffffffffffff1663c28de2cd6000604051602001526040518163ffffffff167c0100000000000000000000000000000000000000000000000000000000028152600401602060405180830381600087803b15156102d257600080fd5b6102c65a03f115156102e357600080fd5b50505060405180519050801561043057503073ffffffffffffffffffffffffffffffffffffffff16638da5cb5b6000604051602001526040518163ffffffff167c0100000000000000000000000000000000000000000000000000000000028152600401602060405180830381600087803b151561036057600080fd5b6102c65a03f1151561037157600080fd5b5050506040518051905073ffffffffffffffffffffffffffffffffffffffff16638da5cb5b6000604051602001526040518163ffffffff167c0100000000000000000000000000000000000000000000000000000000028152600401602060405180830381600087803b15156103e657600080fd5b6102c65a03f115156103f757600080fd5b5050506040518051905073ffffffffffffffffffffffffffffffffffffffff163373ffffffffffffffffffffffffffffffffffffffff16145b5b151561043c57600080fd5b808260010160006101000a81548173ffffffffffffffffffffffffffffffffffffffff021916908373ffffffffffffffffffffffffffffffffffffffff1602179055505050565b3073ffffffffffffffffffffffffffffffffffffffff16638da5cb5b6000604051602001526040518163ffffffff167c0100000000000000000000000000000000000000000000000000000000028152600401602060405180830381600087803b15156104ef57600080fd5b6102c65a03f1151561050057600080fd5b5050506040518051905073ffffffffffffffffffffffffffffffffffffffff163373ffffffffffffffffffffffffffffffffffffffff16148061078f57503073ffffffffffffffffffffffffffffffffffffffff16638da5cb5b6000604051602001526040518163ffffffff167c0100000000000000000000000000000000000000000000000000000000028152600401602060405180830381600087803b15156105aa57600080fd5b6102c65a03f115156105bb57600080fd5b5050506040518051905073ffffffffffffffffffffffffffffffffffffffff1663c28de2cd6000604051602001526040518163ffffffff167c0100000000000000000000000000000000000000000000000000000000028152600401602060405180830381600087803b151561063057600080fd5b6102c65a03f1151561064157600080fd5b50505060405180519050801561078e57503073ffffffffffffffffffffffffffffffffffffffff16638da5cb5b6000604051602001526040518163ffffffff167c0100000000000000000000000000000000000000000000000000000000028152600401602060405180830381600087803b15156106be57600080fd5b6102c65a03f115156106cf57600080fd5b5050506040518051905073ffffffffffffffffffffffffffffffffffffffff16638da5cb5b6000604051602001526040518163ffffffff167c0100000000000000000000000000000000000000000000000000000000028152600401602060405180830381600087803b151561074457600080fd5b6102c65a03f1151561075557600080fd5b5050506040518051905073ffffffffffffffffffffffffffffffffffffffff163373ffffffffffffffffffffffffffffffffffffffff16145b5b151561079a57600080fd5b8160000180548060010182816107b09190610b37565b9160005260206000209001600083909190916101000a81548173ffffffffffffffffffffffffffffffffffffffff021916908373ffffffffffffffffffffffffffffffffffffffff160217905550505050565b3073ffffffffffffffffffffffffffffffffffffffff16638da5cb5b6000604051602001526040518163ffffffff167c0100000000000000000000000000000000000000000000000000000000028152600401602060405180830381600087803b151561086f57600080fd5b6102c65a03f1151561088057600080fd5b5050506040518051905073ffffffffffffffffffffffffffffffffffffffff163373ffffffffffffffffffffffffffffffffffffffff161480610b0f57503073ffffffffffffffffffffffffffffffffffffffff16638da5cb5b6000604051602001526040518163ffffffff167c0100000000000000000000000000000000000000000000000000000000028152600401602060405180830381600087803b151561092a57600080fd5b6102c65a03f1151561093b57600080fd5b5050506040518051905073ffffffffffffffffffffffffffffffffffffffff1663c28de2cd6000604051602001526040518163ffffffff167c0100000000000000000000000000000000000000000000000000000000028152600401602060405180830381600087803b15156109b057600080fd5b6102c65a03f115156109c157600080fd5b505050604051805190508015610b0e57503073ffffffffffffffffffffffffffffffffffffffff16638da5cb5b6000604051602001526040518163ffffffff167c0100000000000000000000000000000000000000000000000000000000028152600401602060405180830381600087803b1515610a3e57600080fd5b6102c65a03f11515610a4f57600080fd5b5050506040518051905073ffffffffffffffffffffffffffffffffffffffff16638da5cb5b6000604051602001526040518163ffffffff167c0100000000000000000000000000000000000000000000000000000000028152600401602060405180830381600087803b1515610ac457600080fd5b6102c65a03f11515610ad557600080fd5b5050506040518051905073ffffffffffffffffffffffffffffffffffffffff163373ffffffffffffffffffffffffffffffffffffffff16145b5b1515610b1a57600080fd5b80826000019080519060200190610b32929190610b63565b505050565b815481835581811511610b5e57818360005260206000209182019101610b5d9190610be3565b5b505050565b828054600181600116156101000203166002900490600052602060002090601f016020900481019282601f10610ba457805160ff1916838001178555610bd2565b82800160010185558215610bd2579182015b82811115610bd1578251825591602001919060010190610bb6565b5b509050610bdf9190610be3565b5090565b610c0591905b80821115610c01576000816000905550600101610be9565b5090565b905600a165627a7a723058206a9f852e9fab2cbbb0341783e4f535298d476d6ce5ebe3410416bc62944376b60029",
  "source": "pragma solidity ^0.4.8;\n\nimport \"./ITimelineDocumentLib.sol\";\nimport \"../Timeline.sol\";\nimport \"./TimelineDocument.sol\";\n\n/**\n * ITimelineDocumentLib implementation v1.0\n *\n * Copyright (c) 2017 Cognate, Inc.\n */\nlibrary TimelineDocumentLib {\n\n    /**\n     * Restriction modifier, restricts access of methods to the latest top level timeline in\n     * the upgrade schema of the owning timeline\n     */\n    modifier onlyControllingTimeline() {\n        require(msg.sender == owned(this).owner() || (Timeline(owned(this).owner()).upgraded() && msg.sender == Timeline(owned(this).owner()).owner()));\n        _;\n    }\n\n    function setNext(ITimelineDocumentLib.TimelineDocumentStorage storage self, TimelineDocument next) onlyControllingTimeline {\n        self._next = next;\n    }\n\n    /*function setPrev(ITimelineDocumentLib.TimelineDocumentStorage storage self, TimelineDocument prev) onlyControllingTimeline {\n        self._prev = prev;\n    }*/\n\n    function addProof(ITimelineDocumentLib.ClaimStorage storage self, address proof) onlyControllingTimeline {\n        self._proofs.push(proof);\n    }\n\n    function setLocation(ITimelineDocumentLib.ProofDocumentStorage storage self, string location) onlyControllingTimeline {\n        self._location = location;\n    }\n}",
  "sourcePath": "/Users/MasterChief/Cog/cog-contract/contracts/timeline/timelineDocuments/TimelineDocumentLib.sol",
  "compiler": {
    "name": "solc",
    "version": "0.4.18+commit.9cf6e910.Emscripten.clang"
  },
  "schemaVersion": "1.0.1",
  "updatedAt": "2018-01-15T19:32:46.202Z"
}