{
  "contractName": "UpgradedTimeline2to3",
  "abi": [
    {
      "constant": false,
      "inputs": [
        {
          "name": "to",
          "type": "address"
        }
      ],
      "name": "upgrade",
      "outputs": [],
      "payable": false,
      "stateMutability": "nonpayable",
      "type": "function"
    },
    {
      "constant": true,
      "inputs": [],
      "name": "tail",
      "outputs": [
        {
          "name": "",
          "type": "address"
        }
      ],
      "payable": false,
      "stateMutability": "view",
      "type": "function"
    },
    {
      "constant": true,
      "inputs": [],
      "name": "prev",
      "outputs": [
        {
          "name": "",
          "type": "address"
        }
      ],
      "payable": false,
      "stateMutability": "view",
      "type": "function"
    },
    {
      "constant": true,
      "inputs": [],
      "name": "next",
      "outputs": [
        {
          "name": "",
          "type": "address"
        }
      ],
      "payable": false,
      "stateMutability": "view",
      "type": "function"
    },
    {
      "constant": false,
      "inputs": [
        {
          "name": "_owner",
          "type": "address"
        }
      ],
      "name": "transferOwnershipTo",
      "outputs": [],
      "payable": false,
      "stateMutability": "nonpayable",
      "type": "function"
    },
    {
      "constant": true,
      "inputs": [],
      "name": "version",
      "outputs": [
        {
          "name": "",
          "type": "uint16"
        }
      ],
      "payable": false,
      "stateMutability": "view",
      "type": "function"
    },
    {
      "constant": true,
      "inputs": [],
      "name": "previous",
      "outputs": [
        {
          "name": "",
          "type": "address"
        }
      ],
      "payable": false,
      "stateMutability": "view",
      "type": "function"
    },
    {
      "constant": true,
      "inputs": [],
      "name": "owner",
      "outputs": [
        {
          "name": "",
          "type": "address"
        }
      ],
      "payable": false,
      "stateMutability": "view",
      "type": "function"
    },
    {
      "constant": false,
      "inputs": [
        {
          "name": "document",
          "type": "address"
        }
      ],
      "name": "append",
      "outputs": [],
      "payable": false,
      "stateMutability": "nonpayable",
      "type": "function"
    },
    {
      "constant": true,
      "inputs": [],
      "name": "upgraded",
      "outputs": [
        {
          "name": "",
          "type": "bool"
        }
      ],
      "payable": false,
      "stateMutability": "view",
      "type": "function"
    },
    {
      "constant": false,
      "inputs": [
        {
          "name": "target",
          "type": "address"
        },
        {
          "name": "value",
          "type": "uint256"
        },
        {
          "name": "funcData",
          "type": "bytes"
        }
      ],
      "name": "callFunctionOf",
      "outputs": [
        {
          "name": "",
          "type": "bool"
        }
      ],
      "payable": false,
      "stateMutability": "nonpayable",
      "type": "function"
    },
    {
      "constant": false,
      "inputs": [
        {
          "name": "documentCode",
          "type": "bytes"
        }
      ],
      "name": "appendBytes",
      "outputs": [],
      "payable": false,
      "stateMutability": "nonpayable",
      "type": "function"
    },
    {
      "inputs": [
        {
          "name": "_prev",
          "type": "address"
        }
      ],
      "payable": false,
      "stateMutability": "nonpayable",
      "type": "constructor"
    }
  ],
  "bytecode": "0x6060604052341561000f57600080fd5b60405160208061127483398101604052808051906020019091905050600033806000806101000a81548173ffffffffffffffffffffffffffffffffffffffff021916908373ffffffffffffffffffffffffffffffffffffffff160217905550506003600160000160006101000a81548161ffff021916908361ffff160217905550600173__ITimelineLib__________________________639c5a00609091836040518363ffffffff167c0100000000000000000000000000000000000000000000000000000000028152600401808381526020018273ffffffffffffffffffffffffffffffffffffffff1673ffffffffffffffffffffffffffffffffffffffff1681526020019250505060006040518083038186803b151561013157600080fd5b6102c65a03f4151561014257600080fd5b5050505080600660006101000a81548173ffffffffffffffffffffffffffffffffffffffff021916908373ffffffffffffffffffffffffffffffffffffffff160217905550600660009054906101000a900473ffffffffffffffffffffffffffffffffffffffff1673ffffffffffffffffffffffffffffffffffffffff16634c8fe5266000604051602001526040518163ffffffff167c0100000000000000000000000000000000000000000000000000000000028152600401602060405180830381600087803b151561021557600080fd5b6102c65a03f1151561022657600080fd5b50505060405180519050600160030160006101000a81548173ffffffffffffffffffffffffffffffffffffffff021916908373ffffffffffffffffffffffffffffffffffffffff16021790555061027b6102da565b604051809103906000f080151561029157600080fd5b600160040160006101000a81548173ffffffffffffffffffffffffffffffffffffffff021916908373ffffffffffffffffffffffffffffffffffffffff160217905550506102ea565b6040516104ec80610d8883390190565b610a8f806102f96000396000f3006060604052600436106100ba576000357c0100000000000000000000000000000000000000000000000000000000900463ffffffff1680630900f010146100bf57806313d8c840146100f8578063479c92541461014d5780634c8fe526146101a257806352effe11146101f757806354fd4d50146102305780637c2b2e71146102615780638da5cb5b146102b6578063ac04f5a71461030b578063c28de2cd14610344578063c773102814610371578063e5c1ec891461040e575b600080fd5b34156100ca57600080fd5b6100f6600480803573ffffffffffffffffffffffffffffffffffffffff1690602001909190505061046b565b005b341561010357600080fd5b61010b610587565b604051808273ffffffffffffffffffffffffffffffffffffffff1673ffffffffffffffffffffffffffffffffffffffff16815260200191505060405180910390f35b341561015857600080fd5b6101606105b4565b604051808273ffffffffffffffffffffffffffffffffffffffff1673ffffffffffffffffffffffffffffffffffffffff16815260200191505060405180910390f35b34156101ad57600080fd5b6101b56105da565b604051808273ffffffffffffffffffffffffffffffffffffffff1673ffffffffffffffffffffffffffffffffffffffff16815260200191505060405180910390f35b341561020257600080fd5b61022e600480803573ffffffffffffffffffffffffffffffffffffffff16906020019091905050610607565b005b341561023b57600080fd5b6102436106e1565b604051808261ffff1661ffff16815260200191505060405180910390f35b341561026c57600080fd5b6102746106fc565b604051808273ffffffffffffffffffffffffffffffffffffffff1673ffffffffffffffffffffffffffffffffffffffff16815260200191505060405180910390f35b34156102c157600080fd5b6102c9610729565b604051808273ffffffffffffffffffffffffffffffffffffffff1673ffffffffffffffffffffffffffffffffffffffff16815260200191505060405180910390f35b341561031657600080fd5b610342600480803573ffffffffffffffffffffffffffffffffffffffff1690602001909190505061074e565b005b341561034f57600080fd5b610357610806565b604051808215151515815260200191505060405180910390f35b341561037c57600080fd5b6103f4600480803573ffffffffffffffffffffffffffffffffffffffff1690602001909190803590602001909190803590602001908201803590602001908080601f01602080910402602001604051908101604052809392919081815260200183838082843782019150505050505091905050610820565b604051808215151515815260200191505060405180910390f35b341561041957600080fd5b610469600480803590602001908201803590602001908080601f01602080910402602001604051908101604052809392919081815260200183838082843782019150505050505091905050610972565b005b6000809054906101000a900473ffffffffffffffffffffffffffffffffffffffff1673ffffffffffffffffffffffffffffffffffffffff163373ffffffffffffffffffffffffffffffffffffffff161415156104c657600080fd5b6104cf81610607565b600173__ITimelineLib__________________________63e48a8ed69091836040518363ffffffff167c0100000000000000000000000000000000000000000000000000000000028152600401808381526020018273ffffffffffffffffffffffffffffffffffffffff1673ffffffffffffffffffffffffffffffffffffffff1681526020019250505060006040518083038186803b151561057057600080fd5b6102c65a03f4151561058157600080fd5b50505050565b6000600160040160009054906101000a900473ffffffffffffffffffffffffffffffffffffffff16905090565b600660009054906101000a900473ffffffffffffffffffffffffffffffffffffffff1681565b6000600160030160009054906101000a900473ffffffffffffffffffffffffffffffffffffffff16905090565b6000809054906101000a900473ffffffffffffffffffffffffffffffffffffffff1673ffffffffffffffffffffffffffffffffffffffff163373ffffffffffffffffffffffffffffffffffffffff1614151561066257600080fd5b600073ffffffffffffffffffffffffffffffffffffffff168173ffffffffffffffffffffffffffffffffffffffff161415151561069e57600080fd5b806000806101000a81548173ffffffffffffffffffffffffffffffffffffffff021916908373ffffffffffffffffffffffffffffffffffffffff16021790555050565b6000600160000160009054906101000a900461ffff16905090565b6000600160020160019054906101000a900473ffffffffffffffffffffffffffffffffffffffff16905090565b6000809054906101000a900473ffffffffffffffffffffffffffffffffffffffff1681565b600173__ITimelineLib__________________________63c86115719091836040518363ffffffff167c0100000000000000000000000000000000000000000000000000000000028152600401808381526020018273ffffffffffffffffffffffffffffffffffffffff1673ffffffffffffffffffffffffffffffffffffffff1681526020019250505060006040518083038186803b15156107ef57600080fd5b6102c65a03f4151561080057600080fd5b50505050565b6000600160020160009054906101000a900460ff16905090565b60008373ffffffffffffffffffffffffffffffffffffffff1673__ITimelineLib__________________________63c7731028909185856000604051602001526040518463ffffffff167c0100000000000000000000000000000000000000000000000000000000028152600401808473ffffffffffffffffffffffffffffffffffffffff1673ffffffffffffffffffffffffffffffffffffffff16815260200183815260200180602001828103825283818151815260200191508051906020019080838360005b838110156109035780820151818401526020810190506108e8565b50505050905090810190601f1680156109305780820380516001836020036101000a031916815260200191505b5094505050505060206040518083038186803b151561094e57600080fd5b6102c65a03f4151561095f57600080fd5b5050506040518051905090509392505050565b600173__ITimelineLib__________________________63ffeba90e9091836040518363ffffffff167c01000000000000000000000000000000000000000000000000000000000281526004018083815260200180602001828103825283818151815260200191508051906020019080838360005b83811015610a025780820151818401526020810190506109e7565b50505050905090810190601f168015610a2f5780820380516001836020036101000a031916815260200191505b50935050505060006040518083038186803b1515610a4c57600080fd5b6102c65a03f41515610a5d57600080fd5b505050505600a165627a7a723058207dbce7d07f03a3fbf87487f72feeea8a2d5eb62dfe2a866554f7573b8463353b00296060604052341561000f57600080fd5b33806000806101000a81548173ffffffffffffffffffffffffffffffffffffffff021916908373ffffffffffffffffffffffffffffffffffffffff16021790555050426001819055507f79056e9bb24f897d7f885dacdb2d506599944c0cdfd6b7495eb7f3ea624ac5af60010260026000018160001916905550610454806100986000396000f300606060405260043610610083576000357c0100000000000000000000000000000000000000000000000000000000900463ffffffff1680634c8fe5261461008857806352effe11146100dd5780638da5cb5b14610116578063b2b2b44d1461016b578063b80777ea146101a4578063ba19322d146101cd578063cf09e0d0146101fe575b600080fd5b341561009357600080fd5b61009b610227565b604051808273ffffffffffffffffffffffffffffffffffffffff1673ffffffffffffffffffffffffffffffffffffffff16815260200191505060405180910390f35b34156100e857600080fd5b610114600480803573ffffffffffffffffffffffffffffffffffffffff16906020019091905050610254565b005b341561012157600080fd5b61012961032e565b604051808273ffffffffffffffffffffffffffffffffffffffff1673ffffffffffffffffffffffffffffffffffffffff16815260200191505060405180910390f35b341561017657600080fd5b6101a2600480803573ffffffffffffffffffffffffffffffffffffffff16906020019091905050610353565b005b34156101af57600080fd5b6101b761040b565b6040518082815260200191505060405180910390f35b34156101d857600080fd5b6101e0610411565b60405180826000191660001916815260200191505060405180910390f35b341561020957600080fd5b61021161041e565b6040518082815260200191505060405180910390f35b6000600260010160009054906101000a900473ffffffffffffffffffffffffffffffffffffffff16905090565b6000809054906101000a900473ffffffffffffffffffffffffffffffffffffffff1673ffffffffffffffffffffffffffffffffffffffff163373ffffffffffffffffffffffffffffffffffffffff161415156102af57600080fd5b600073ffffffffffffffffffffffffffffffffffffffff168173ffffffffffffffffffffffffffffffffffffffff16141515156102eb57600080fd5b806000806101000a81548173ffffffffffffffffffffffffffffffffffffffff021916908373ffffffffffffffffffffffffffffffffffffffff16021790555050565b6000809054906101000a900473ffffffffffffffffffffffffffffffffffffffff1681565b600273__ITimelineDocumentLib__________________632d637bc69091836040518363ffffffff167c0100000000000000000000000000000000000000000000000000000000028152600401808381526020018273ffffffffffffffffffffffffffffffffffffffff1673ffffffffffffffffffffffffffffffffffffffff1681526020019250505060006040518083038186803b15156103f457600080fd5b6102c65a03f4151561040557600080fd5b50505050565b60015481565b6000600260000154905090565b60006001549050905600a165627a7a7230582010b323bf48d2a0112600789f12fdc4cf6a10e6c306ca21841ea363ba4fbb94610029",
  "source": "pragma solidity ^0.4.8;\n\nimport \"./Timeline.sol\";\nimport \"./timelineDocuments/Assignment.sol\";\nimport \"../../contracts-versioned/2.0/TimeLine_v2.sol\";\n\n/**\n * This is an upgrade contract for an existing timeline version 2 to version 3. While there\n * may be new parts of the interface, the existing interface should remain the same with the\n * exception of storying string values as bytes32[] going forward.\n *\n * Copyright (c) 2017 Cognate, Inc.\n */\ncontract UpgradedTimeline2to3 is Timeline(0) {\n    TimeLine_v2 public prev;\n\n    function UpgradedTimeline2to3(TimeLine_v2 _prev) {\n        prev = _prev;\n        \n        // set next and tail so the previous iteration of this timeline is included at the start\n        timeline._next = TimelineDocument(prev.next());\n        timeline._tail = new TimelineDocument();\n    }\n}",
  "sourcePath": "/Users/MasterChief/Cog/cog-contract/contracts/timeline/UpgradedTimeline2to3.sol",
  "compiler": {
    "name": "solc",
    "version": "0.4.18+commit.9cf6e910.Emscripten.clang"
  },
  "schemaVersion": "1.0.1",
  "updatedAt": "2018-01-15T19:32:46.200Z"
}