{
  "contractName": "CognateRegistry",
  "abi": [
    {
      "constant": false,
      "inputs": [
        {
          "name": "key",
          "type": "string"
        },
        {
          "name": "listing",
          "type": "address"
        }
      ],
      "name": "remove",
      "outputs": [],
      "payable": false,
      "stateMutability": "nonpayable",
      "type": "function"
    },
    {
      "constant": false,
      "inputs": [
        {
          "name": "key",
          "type": "string"
        },
        {
          "name": "listing",
          "type": "address"
        }
      ],
      "name": "add",
      "outputs": [],
      "payable": false,
      "stateMutability": "nonpayable",
      "type": "function"
    },
    {
      "constant": false,
      "inputs": [
        {
          "name": "_owner",
          "type": "address"
        }
      ],
      "name": "transferOwnershipTo",
      "outputs": [],
      "payable": false,
      "stateMutability": "nonpayable",
      "type": "function"
    },
    {
      "constant": true,
      "inputs": [
        {
          "name": "key",
          "type": "string"
        }
      ],
      "name": "get",
      "outputs": [
        {
          "name": "",
          "type": "address[]"
        }
      ],
      "payable": false,
      "stateMutability": "view",
      "type": "function"
    },
    {
      "constant": true,
      "inputs": [],
      "name": "owner",
      "outputs": [
        {
          "name": "",
          "type": "address"
        }
      ],
      "payable": false,
      "stateMutability": "view",
      "type": "function"
    },
    {
      "anonymous": false,
      "inputs": [
        {
          "indexed": false,
          "name": "key",
          "type": "string"
        },
        {
          "indexed": false,
          "name": "listing",
          "type": "address"
        }
      ],
      "name": "Added",
      "type": "event"
    }
  ],
  "bytecode": "0x606060405233806000806101000a81548173ffffffffffffffffffffffffffffffffffffffff021916908373ffffffffffffffffffffffffffffffffffffffff160217905550506107f2806100556000396000f30060606040526004361061006d576000357c0100000000000000000000000000000000000000000000000000000000900463ffffffff16806328bb2117146100725780632bffc7ed146100bf57806352effe111461010c578063693ec85e146101455780638da5cb5b146101c8575b600080fd5b341561007d57600080fd5b6100bd6004808035906020019082018035906020019190919290803573ffffffffffffffffffffffffffffffffffffffff1690602001909190505061021d565b005b34156100ca57600080fd5b61010a6004808035906020019082018035906020019190919290803573ffffffffffffffffffffffffffffffffffffffff169060200190919050506103e2565b005b341561011757600080fd5b610143600480803573ffffffffffffffffffffffffffffffffffffffff1690602001909190505061054d565b005b341561015057600080fd5b61017160048080359060200190820180359060200191909192905050610627565b6040518080602001828103825283818151815260200191508051906020019060200280838360005b838110156101b4578082015181840152602081019050610199565b505050509050019250505060405180910390f35b34156101d357600080fd5b6101db61073c565b604051808273ffffffffffffffffffffffffffffffffffffffff1673ffffffffffffffffffffffffffffffffffffffff16815260200191505060405180910390f35b6000806000809054906101000a900473ffffffffffffffffffffffffffffffffffffffff1673ffffffffffffffffffffffffffffffffffffffff163373ffffffffffffffffffffffffffffffffffffffff1614151561027b57600080fd5b600185856040518083838082843782019150509250505090815260200160405180910390209150600090505b81805490508110156103db578273ffffffffffffffffffffffffffffffffffffffff1682828154811015156102d857fe5b906000526020600020900160009054906101000a900473ffffffffffffffffffffffffffffffffffffffff1673ffffffffffffffffffffffffffffffffffffffff1614156103ce5781600183805490500381548110151561033557fe5b906000526020600020900160009054906101000a900473ffffffffffffffffffffffffffffffffffffffff16828281548110151561036f57fe5b906000526020600020900160006101000a81548173ffffffffffffffffffffffffffffffffffffffff021916908373ffffffffffffffffffffffffffffffffffffffff160217905550818054809190600190036103cc9190610761565b505b80806001019150506102a7565b5050505050565b6000809054906101000a900473ffffffffffffffffffffffffffffffffffffffff1673ffffffffffffffffffffffffffffffffffffffff163373ffffffffffffffffffffffffffffffffffffffff1614151561043d57600080fd5b6001838360405180838380828437820191505092505050908152602001604051809103902080548060010182816104749190610761565b9160005260206000209001600083909190916101000a81548173ffffffffffffffffffffffffffffffffffffffff021916908373ffffffffffffffffffffffffffffffffffffffff160217905550507ffb989cb0d132b51483b9258c1befbe92caa5f5b046af3dfdcc617dcf425af49383838360405180806020018373ffffffffffffffffffffffffffffffffffffffff1673ffffffffffffffffffffffffffffffffffffffff1681526020018281038252858582818152602001925080828437820191505094505050505060405180910390a1505050565b6000809054906101000a900473ffffffffffffffffffffffffffffffffffffffff1673ffffffffffffffffffffffffffffffffffffffff163373ffffffffffffffffffffffffffffffffffffffff161415156105a857600080fd5b600073ffffffffffffffffffffffffffffffffffffffff168173ffffffffffffffffffffffffffffffffffffffff16141515156105e457600080fd5b806000806101000a81548173ffffffffffffffffffffffffffffffffffffffff021916908373ffffffffffffffffffffffffffffffffffffffff16021790555050565b61062f61078d565b6000809054906101000a900473ffffffffffffffffffffffffffffffffffffffff1673ffffffffffffffffffffffffffffffffffffffff163373ffffffffffffffffffffffffffffffffffffffff1614151561068a57600080fd5b6001838360405180838380828437820191505092505050908152602001604051809103902080548060200260200160405190810160405280929190818152602001828054801561072f57602002820191906000526020600020905b8160009054906101000a900473ffffffffffffffffffffffffffffffffffffffff1673ffffffffffffffffffffffffffffffffffffffff16815260200190600101908083116106e5575b5050505050905092915050565b6000809054906101000a900473ffffffffffffffffffffffffffffffffffffffff1681565b8154818355818115116107885781836000526020600020918201910161078791906107a1565b5b505050565b602060405190810160405280600081525090565b6107c391905b808211156107bf5760008160009055506001016107a7565b5090565b905600a165627a7a72305820a2e5ae9d73198f2431f4d72a787728f06b57051f0eaf24de9729bb50f9683d200029",
  "source": "pragma solidity ^0.4.8;\n\nimport \"./base/owned.sol\";\n\n/**\n * Eternal Storage contract to keep track of Cognate Listings\n *\n * Copyright (c) 2017 Cognate, Inc.\n */\ncontract CognateRegistry is owned(msg.sender) {\n    \n    // mapping to keep track of all Cognate Listings\n    mapping(string => address[]) listingMap;\n\n    // Events\n    event Added(string key, address listing);\n\n    //--------------\n    // External API\n    //--------------\n\n    // Restricted\n    //-----------\n\n    /**\n     * Add a listing to the registry\n     */\n    function add(string key, address listing) external onlyOwner {\n        listingMap[key].push(listing);\n        Added(key, listing);\n    }\n\n    // Public\n    //-------\n    \n    /**\n     * Retrieve the array of addresses of a listing with the given mark\n     */\n    function get(string key) external constant onlyOwner returns (address[]) {\n        return listingMap[key];\n    }\n\n    /**\n     * Remove a listing address from the array for the given key (if it exists)\n     */\n    function remove(string key, address listing) external onlyOwner {\n        address[] storage keyArray = listingMap[key];\n        \n        for(uint i = 0; i < keyArray.length; i++) {\n            if(keyArray[i] == listing) {\n                keyArray[i] = keyArray[keyArray.length - 1];\n                keyArray.length--;\n            }\n        }\n    }\n}",
  "sourcePath": "/Users/MasterChief/Cog/cog-contract/contracts/CognateRegistry.sol",
  "compiler": {
    "name": "solc",
    "version": "0.4.18+commit.9cf6e910.Emscripten.clang"
  },
  "schemaVersion": "1.0.1",
  "updatedAt": "2018-01-15T19:32:46.192Z"
}