{
  "contractName": "mortal_v2",
  "abi": [
    {
      "constant": false,
      "inputs": [],
      "name": "kill",
      "outputs": [],
      "payable": false,
      "stateMutability": "nonpayable",
      "type": "function"
    },
    {
      "constant": false,
      "inputs": [
        {
          "name": "newOwner",
          "type": "address"
        }
      ],
      "name": "transferOwnershipTo",
      "outputs": [],
      "payable": false,
      "stateMutability": "nonpayable",
      "type": "function"
    }
  ],
  "bytecode": "0x606060405233806000806101000a81548173ffffffffffffffffffffffffffffffffffffffff021916908373ffffffffffffffffffffffffffffffffffffffff160217905550506101fe806100556000396000f30060606040526004361061004c576000357c0100000000000000000000000000000000000000000000000000000000900463ffffffff16806341c0e1b51461005157806352effe1114610066575b600080fd5b341561005c57600080fd5b61006461009f565b005b341561007157600080fd5b61009d600480803573ffffffffffffffffffffffffffffffffffffffff16906020019091905050610134565b005b6000809054906101000a900473ffffffffffffffffffffffffffffffffffffffff1673ffffffffffffffffffffffffffffffffffffffff163373ffffffffffffffffffffffffffffffffffffffff161415156100fa57600080fd5b6000809054906101000a900473ffffffffffffffffffffffffffffffffffffffff1673ffffffffffffffffffffffffffffffffffffffff16ff5b6000809054906101000a900473ffffffffffffffffffffffffffffffffffffffff1673ffffffffffffffffffffffffffffffffffffffff163373ffffffffffffffffffffffffffffffffffffffff1614151561018f57600080fd5b806000806101000a81548173ffffffffffffffffffffffffffffffffffffffff021916908373ffffffffffffffffffffffffffffffffffffffff160217905550505600a165627a7a72305820fc6335b9000bc76aa0290079d30a3f85ac3b821ab3b7abbbbdf74232434716a50029",
  "source": "pragma solidity ^0.4.8;\n\nimport \"./owned_v2.sol\";\n\n/**\n * Provides the inheriting contract with a kill switch for cleaning it up when\n * it is no longer useful\n *\n * Copyright (c) 2017 Cognate, Inc.\n */\ncontract mortal_v2 is owned_v2(msg.sender) {\n    function kill() public onlyOwner {\n        selfdestruct(owner);\n    }\n}",
  "sourcePath": "/Users/MasterChief/Cog/cog-contract/contracts-versioned/2.0/mortal_v2.sol",
  "compiler": {
    "name": "solc",
    "version": "0.4.18+commit.9cf6e910.Emscripten.clang"
  },
  "schemaVersion": "1.0.1",
  "updatedAt": "2018-01-15T19:32:46.192Z"
}