{
  "contractName": "owned_v2",
  "abi": [
    {
      "constant": false,
      "inputs": [
        {
          "name": "newOwner",
          "type": "address"
        }
      ],
      "name": "transferOwnershipTo",
      "outputs": [],
      "payable": false,
      "stateMutability": "nonpayable",
      "type": "function"
    },
    {
      "inputs": [
        {
          "name": "_owner",
          "type": "address"
        }
      ],
      "payable": false,
      "stateMutability": "nonpayable",
      "type": "constructor"
    }
  ],
  "bytecode": "0x6060604052341561000f57600080fd5b6040516020806101c483398101604052808051906020019091905050806000806101000a81548173ffffffffffffffffffffffffffffffffffffffff021916908373ffffffffffffffffffffffffffffffffffffffff160217905550506101498061007b6000396000f300606060405260043610610041576000357c0100000000000000000000000000000000000000000000000000000000900463ffffffff16806352effe1114610046575b600080fd5b341561005157600080fd5b61007d600480803573ffffffffffffffffffffffffffffffffffffffff1690602001909190505061007f565b005b6000809054906101000a900473ffffffffffffffffffffffffffffffffffffffff1673ffffffffffffffffffffffffffffffffffffffff163373ffffffffffffffffffffffffffffffffffffffff161415156100da57600080fd5b806000806101000a81548173ffffffffffffffffffffffffffffffffffffffff021916908373ffffffffffffffffffffffffffffffffffffffff160217905550505600a165627a7a7230582041c78293f5bbced83d23084e98057208b16e69945049dc1b205f9141832a597e0029",
  "source": "pragma solidity ^0.4.8;\n/**\n * Security parent class used to add ownership to the inheriting contract and\n * provide a restriction modifier that will restrict access to specified methods\n *\n * Copyright (c) 2017 Cognate, Inc.\n */\ncontract owned_v2 {\n    address internal owner;\n\n    function owned_v2(address _owner) {\n        owner = _owner;\n    }\n\n    // Modifiers\n    //----------\n\n    /**\n     * Restriction modifier, restricts access of methods to the creator of the contract\n     */\n    modifier onlyOwner() {\n        require(msg.sender == owner);\n        \n        _;\n    }\n\n    // Functions\n    //----------\n\n    /**\n     * Change the owning address of this contract\n     */\n    function transferOwnershipTo(address newOwner) public onlyOwner {\n        owner = newOwner;\n    }\n}",
  "sourcePath": "/Users/MasterChief/Cog/cog-contract/contracts-versioned/2.0/owned_v2.sol",
  "compiler": {
    "name": "solc",
    "version": "0.4.18+commit.9cf6e910.Emscripten.clang"
  },
  "schemaVersion": "1.0.1",
  "updatedAt": "2018-01-15T19:32:46.192Z"
}