{
  "contractName": "TimeLine_v2",
  "abi": [
    {
      "constant": false,
      "inputs": [],
      "name": "kill",
      "outputs": [],
      "payable": false,
      "stateMutability": "nonpayable",
      "type": "function"
    },
    {
      "constant": true,
      "inputs": [],
      "name": "next",
      "outputs": [
        {
          "name": "",
          "type": "address"
        }
      ],
      "payable": false,
      "stateMutability": "view",
      "type": "function"
    },
    {
      "constant": false,
      "inputs": [
        {
          "name": "newOwner",
          "type": "address"
        }
      ],
      "name": "transferOwnershipTo",
      "outputs": [],
      "payable": false,
      "stateMutability": "nonpayable",
      "type": "function"
    },
    {
      "constant": false,
      "inputs": [
        {
          "name": "_next",
          "type": "address"
        }
      ],
      "name": "append",
      "outputs": [],
      "payable": false,
      "stateMutability": "nonpayable",
      "type": "function"
    },
    {
      "constant": true,
      "inputs": [],
      "name": "timestamp",
      "outputs": [
        {
          "name": "",
          "type": "uint256"
        }
      ],
      "payable": false,
      "stateMutability": "view",
      "type": "function"
    },
    {
      "constant": true,
      "inputs": [],
      "name": "interfaceID",
      "outputs": [
        {
          "name": "",
          "type": "bytes32"
        }
      ],
      "payable": false,
      "stateMutability": "view",
      "type": "function"
    },
    {
      "constant": true,
      "inputs": [],
      "name": "createdAt",
      "outputs": [
        {
          "name": "",
          "type": "uint256"
        }
      ],
      "payable": false,
      "stateMutability": "view",
      "type": "function"
    }
  ],
  "bytecode": "0x60606040527f79056e9bb24f897d7f885dacdb2d506599944c0cdfd6b7495eb7f3ea624ac5af600102600290600019169055334260008190555080600160006101000a81548173ffffffffffffffffffffffffffffffffffffffff021916908373ffffffffffffffffffffffffffffffffffffffff160217905550506107a68061008a6000396000f300606060405260043610610083576000357c0100000000000000000000000000000000000000000000000000000000900463ffffffff16806341c0e1b5146100885780634c8fe5261461009d57806352effe11146100f2578063ac04f5a71461012b578063b80777ea14610164578063ba19322d1461018d578063cf09e0d0146101be575b600080fd5b341561009357600080fd5b61009b6101e7565b005b34156100a857600080fd5b6100b061027e565b604051808273ffffffffffffffffffffffffffffffffffffffff1673ffffffffffffffffffffffffffffffffffffffff16815260200191505060405180910390f35b34156100fd57600080fd5b610129600480803573ffffffffffffffffffffffffffffffffffffffff169060200190919050506102a4565b005b341561013657600080fd5b610162600480803573ffffffffffffffffffffffffffffffffffffffff16906020019091905050610344565b005b341561016f57600080fd5b610177610705565b6040518082815260200191505060405180910390f35b341561019857600080fd5b6101a061070b565b60405180826000191660001916815260200191505060405180910390f35b34156101c957600080fd5b6101d1610771565b6040518082815260200191505060405180910390f35b600160009054906101000a900473ffffffffffffffffffffffffffffffffffffffff1673ffffffffffffffffffffffffffffffffffffffff163373ffffffffffffffffffffffffffffffffffffffff1614151561024357600080fd5b600160009054906101000a900473ffffffffffffffffffffffffffffffffffffffff1673ffffffffffffffffffffffffffffffffffffffff16ff5b600360009054906101000a900473ffffffffffffffffffffffffffffffffffffffff1681565b600160009054906101000a900473ffffffffffffffffffffffffffffffffffffffff1673ffffffffffffffffffffffffffffffffffffffff163373ffffffffffffffffffffffffffffffffffffffff1614151561030057600080fd5b80600160006101000a81548173ffffffffffffffffffffffffffffffffffffffff021916908373ffffffffffffffffffffffffffffffffffffffff16021790555050565b6000600160009054906101000a900473ffffffffffffffffffffffffffffffffffffffff1673ffffffffffffffffffffffffffffffffffffffff163373ffffffffffffffffffffffffffffffffffffffff161415156103a257600080fd5b6103aa61070b565b600019168273ffffffffffffffffffffffffffffffffffffffff1663ba19322d6000604051602001526040518163ffffffff167c0100000000000000000000000000000000000000000000000000000000028152600401602060405180830381600087803b151561041a57600080fd5b6102c65a03f1151561042b57600080fd5b505050604051805190506000191614151561044557600080fd5b600073ffffffffffffffffffffffffffffffffffffffff16600360009054906101000a900473ffffffffffffffffffffffffffffffffffffffff1673ffffffffffffffffffffffffffffffffffffffff1614156104e25781600360006101000a81548173ffffffffffffffffffffffffffffffffffffffff021916908373ffffffffffffffffffffffffffffffffffffffff160217905550610701565b600360009054906101000a900473ffffffffffffffffffffffffffffffffffffffff1690505b600073ffffffffffffffffffffffffffffffffffffffff168173ffffffffffffffffffffffffffffffffffffffff16634c8fe5266000604051602001526040518163ffffffff167c0100000000000000000000000000000000000000000000000000000000028152600401602060405180830381600087803b151561058c57600080fd5b6102c65a03f1151561059d57600080fd5b5050506040518051905073ffffffffffffffffffffffffffffffffffffffff16141515610652578073ffffffffffffffffffffffffffffffffffffffff16634c8fe5266000604051602001526040518163ffffffff167c0100000000000000000000000000000000000000000000000000000000028152600401602060405180830381600087803b151561063057600080fd5b6102c65a03f1151561064157600080fd5b505050604051805190509050610508565b8073ffffffffffffffffffffffffffffffffffffffff1663ac04f5a7836040518263ffffffff167c0100000000000000000000000000000000000000000000000000000000028152600401808273ffffffffffffffffffffffffffffffffffffffff1673ffffffffffffffffffffffffffffffffffffffff168152602001915050600060405180830381600087803b15156106ec57600080fd5b6102c65a03f115156106fd57600080fd5b5050505b5050565b60005481565b6000600160009054906101000a900473ffffffffffffffffffffffffffffffffffffffff1673ffffffffffffffffffffffffffffffffffffffff163373ffffffffffffffffffffffffffffffffffffffff1614151561076957600080fd5b600254905090565b600080549050905600a165627a7a723058200543ff01c4079df148bf3bae75039cd75f62941b98061c5d621e4af590981f110029",
  "source": "pragma solidity ^0.4.8;\n\nimport \"./owned_v2.sol\";\nimport \"../../contracts/base/timestamped.sol\";\nimport \"./mortal_v2.sol\";\nimport \"./TimeLineDocument_v2.sol\";\n\n/**\n * Base Contract for a TimeLine which is a cohesive linked list of documents that creates an\n * immutable history. The basic principles of a Timeline is that the data it stores can \n * never be altered but new timeline documents can be appended in order to build more history.\n *\n * Copyright (c) 2017 Cognate, Inc.\n */\ncontract TimeLine_v2 is timestamped, owned_v2(msg.sender), mortal_v2 {\n\n    bytes32 private _interfaceID = 0x79056e9bb24f897d7f885dacdb2d506599944c0cdfd6b7495eb7f3ea624ac5af;\n    \n    TimeLineDocument_v2 public next;\n\n    function append(TimeLineDocument_v2 _next) external onlyOwner {\n        if(_next.interfaceID() != interfaceID()) throw;\n        \n        if(next == address(0)) {\n            next = _next;\n        } else {\n            TimeLineDocument_v2 last = next;\n            while(last.next() != address(0)) {\n                last = last.next();\n            }\n\n            last.append(_next);\n        }\n    }\n\n    function interfaceID() public constant onlyOwner returns (bytes32) {\n        return _interfaceID;\n    }\n}",
  "sourcePath": "/Users/MasterChief/Cog/cog-contract/contracts-versioned/2.0/TimeLine_v2.sol",
  "compiler": {
    "name": "solc",
    "version": "0.4.18+commit.9cf6e910.Emscripten.clang"
  },
  "schemaVersion": "1.0.1",
  "updatedAt": "2018-01-15T19:32:46.191Z"
}