{
  "contractName": "TimeLineDocument_v2",
  "abi": [
    {
      "constant": true,
      "inputs": [],
      "name": "next",
      "outputs": [
        {
          "name": "",
          "type": "address"
        }
      ],
      "payable": false,
      "stateMutability": "view",
      "type": "function"
    },
    {
      "constant": false,
      "inputs": [
        {
          "name": "newOwner",
          "type": "address"
        }
      ],
      "name": "transferOwnershipTo",
      "outputs": [],
      "payable": false,
      "stateMutability": "nonpayable",
      "type": "function"
    },
    {
      "constant": false,
      "inputs": [
        {
          "name": "_next",
          "type": "address"
        }
      ],
      "name": "append",
      "outputs": [],
      "payable": false,
      "stateMutability": "nonpayable",
      "type": "function"
    },
    {
      "constant": true,
      "inputs": [],
      "name": "timestamp",
      "outputs": [
        {
          "name": "",
          "type": "uint256"
        }
      ],
      "payable": false,
      "stateMutability": "view",
      "type": "function"
    },
    {
      "constant": true,
      "inputs": [],
      "name": "interfaceID",
      "outputs": [
        {
          "name": "",
          "type": "bytes32"
        }
      ],
      "payable": false,
      "stateMutability": "view",
      "type": "function"
    },
    {
      "constant": true,
      "inputs": [],
      "name": "createdAt",
      "outputs": [
        {
          "name": "",
          "type": "uint256"
        }
      ],
      "payable": false,
      "stateMutability": "view",
      "type": "function"
    },
    {
      "inputs": [
        {
          "name": "timeLine",
          "type": "address"
        }
      ],
      "payable": false,
      "stateMutability": "nonpayable",
      "type": "constructor"
    }
  ],
  "bytecode": "0x60606040527f79056e9bb24f897d7f885dacdb2d506599944c0cdfd6b7495eb7f3ea624ac5af600102600290600019169055341561003c57600080fd5b60405160208061041d8339810160405280805190602001909190505080806000806101000a81548173ffffffffffffffffffffffffffffffffffffffff021916908373ffffffffffffffffffffffffffffffffffffffff16021790555050426001819055505061036c806100b16000396000f300606060405260043610610078576000357c0100000000000000000000000000000000000000000000000000000000900463ffffffff1680634c8fe5261461007d57806352effe11146100d2578063ac04f5a71461010b578063b80777ea14610144578063ba19322d1461016d578063cf09e0d01461019e575b600080fd5b341561008857600080fd5b6100906101c7565b604051808273ffffffffffffffffffffffffffffffffffffffff1673ffffffffffffffffffffffffffffffffffffffff16815260200191505060405180910390f35b34156100dd57600080fd5b610109600480803573ffffffffffffffffffffffffffffffffffffffff169060200190919050506101ed565b005b341561011657600080fd5b610142600480803573ffffffffffffffffffffffffffffffffffffffff1690602001909190505061028b565b005b341561014f57600080fd5b61015761032a565b6040518082815260200191505060405180910390f35b341561017857600080fd5b610180610330565b60405180826000191660001916815260200191505060405180910390f35b34156101a957600080fd5b6101b1610336565b6040518082815260200191505060405180910390f35b600360009054906101000a900473ffffffffffffffffffffffffffffffffffffffff1681565b6000809054906101000a900473ffffffffffffffffffffffffffffffffffffffff1673ffffffffffffffffffffffffffffffffffffffff163373ffffffffffffffffffffffffffffffffffffffff1614151561024857600080fd5b806000806101000a81548173ffffffffffffffffffffffffffffffffffffffff021916908373ffffffffffffffffffffffffffffffffffffffff16021790555050565b6000809054906101000a900473ffffffffffffffffffffffffffffffffffffffff1673ffffffffffffffffffffffffffffffffffffffff163373ffffffffffffffffffffffffffffffffffffffff161415156102e657600080fd5b80600360006101000a81548173ffffffffffffffffffffffffffffffffffffffff021916908373ffffffffffffffffffffffffffffffffffffffff16021790555050565b60015481565b60025481565b60006001549050905600a165627a7a7230582064a1fb0c9ade5de30b73560ca7a728816ab9a529571a7dcdec9fc82d53666e4a0029",
  "source": "pragma solidity ^0.4.8;\n\nimport \"./owned_v2.sol\";\nimport \"../../contracts/base/timestamped.sol\";\n\n/**\n * Base Contract for TimeLineDocuments which contain specific information that aid\n * in building the TimeLine history for a particular purpose (i.e documenting\n * trademark usage and ownership over time)\n *\n * Copyright (c) 2017 Cognate, Inc.\n */\ncontract TimeLineDocument_v2 is owned_v2, timestamped {\n\n    bytes32 public interfaceID = 0x79056e9bb24f897d7f885dacdb2d506599944c0cdfd6b7495eb7f3ea624ac5af;\n    \n    TimeLineDocument_v2 public next;\n\n    function TimeLineDocument_v2(address timeLine) owned_v2(timeLine) {}\n\n    function append(TimeLineDocument_v2 _next) external onlyOwner {\n        next = _next;\n    }\n}",
  "sourcePath": "/Users/MasterChief/Cog/cog-contract/contracts-versioned/2.0/TimeLineDocument_v2.sol",
  "compiler": {
    "name": "solc",
    "version": "0.4.18+commit.9cf6e910.Emscripten.clang"
  },
  "schemaVersion": "1.0.1",
  "updatedAt": "2018-01-15T19:32:46.191Z"
}