{
  "contractName": "UsageDocument",
  "abi": [
    {
      "constant": true,
      "inputs": [],
      "name": "geographicRegion",
      "outputs": [
        {
          "name": "",
          "type": "string"
        }
      ],
      "payable": false,
      "stateMutability": "view",
      "type": "function"
    },
    {
      "constant": true,
      "inputs": [],
      "name": "next",
      "outputs": [
        {
          "name": "",
          "type": "address"
        }
      ],
      "payable": false,
      "stateMutability": "view",
      "type": "function"
    },
    {
      "constant": false,
      "inputs": [
        {
          "name": "newOwner",
          "type": "address"
        }
      ],
      "name": "transferOwnershipTo",
      "outputs": [],
      "payable": false,
      "stateMutability": "nonpayable",
      "type": "function"
    },
    {
      "constant": true,
      "inputs": [],
      "name": "details",
      "outputs": [
        {
          "name": "",
          "type": "string"
        }
      ],
      "payable": false,
      "stateMutability": "view",
      "type": "function"
    },
    {
      "constant": true,
      "inputs": [],
      "name": "proofOfUse",
      "outputs": [
        {
          "name": "",
          "type": "bytes32"
        }
      ],
      "payable": false,
      "stateMutability": "view",
      "type": "function"
    },
    {
      "constant": true,
      "inputs": [],
      "name": "classOfGoods",
      "outputs": [
        {
          "name": "",
          "type": "uint256"
        }
      ],
      "payable": false,
      "stateMutability": "view",
      "type": "function"
    },
    {
      "constant": true,
      "inputs": [],
      "name": "dateOfFirstUse",
      "outputs": [
        {
          "name": "",
          "type": "uint256"
        }
      ],
      "payable": false,
      "stateMutability": "view",
      "type": "function"
    },
    {
      "constant": false,
      "inputs": [
        {
          "name": "_next",
          "type": "address"
        }
      ],
      "name": "append",
      "outputs": [],
      "payable": false,
      "stateMutability": "nonpayable",
      "type": "function"
    },
    {
      "constant": true,
      "inputs": [],
      "name": "timestamp",
      "outputs": [
        {
          "name": "",
          "type": "uint256"
        }
      ],
      "payable": false,
      "stateMutability": "view",
      "type": "function"
    },
    {
      "constant": true,
      "inputs": [],
      "name": "interfaceID",
      "outputs": [
        {
          "name": "",
          "type": "bytes32"
        }
      ],
      "payable": false,
      "stateMutability": "view",
      "type": "function"
    },
    {
      "constant": true,
      "inputs": [],
      "name": "createdAt",
      "outputs": [
        {
          "name": "",
          "type": "uint256"
        }
      ],
      "payable": false,
      "stateMutability": "view",
      "type": "function"
    },
    {
      "inputs": [
        {
          "name": "timeLine",
          "type": "address"
        },
        {
          "name": "_geographicRegion",
          "type": "string"
        },
        {
          "name": "_classOfGoods",
          "type": "uint256"
        },
        {
          "name": "_dateOfFirstUse",
          "type": "uint256"
        },
        {
          "name": "_proofOfUse",
          "type": "bytes32"
        },
        {
          "name": "_details",
          "type": "string"
        }
      ],
      "payable": false,
      "stateMutability": "nonpayable",
      "type": "constructor"
    }
  ],
  "bytecode": "0x60606040527f79056e9bb24f897d7f885dacdb2d506599944c0cdfd6b7495eb7f3ea624ac5af600102600290600019169055341561003c57600080fd5b604051610866380380610866833981016040528080519060200190919080518201919060200180519060200190919080519060200190919080519060200190919080518201919050508580806000806101000a81548173ffffffffffffffffffffffffffffffffffffffff021916908373ffffffffffffffffffffffffffffffffffffffff16021790555050426001819055505084600490805190602001906100e6929190610122565b50836005819055508260068190555081600781600019169055508060089080519060200190610116929190610122565b505050505050506101c7565b828054600181600116156101000203166002900490600052602060002090601f016020900481019282601f1061016357805160ff1916838001178555610191565b82800160010185558215610191579182015b82811115610190578251825591602001919060010190610175565b5b50905061019e91906101a2565b5090565b6101c491905b808211156101c05760008160009055506001016101a8565b5090565b90565b610690806101d66000396000f3006060604052600436106100af576000357c0100000000000000000000000000000000000000000000000000000000900463ffffffff1680633aa89aec146100b45780634c8fe5261461014257806352effe1114610197578063565974d3146101d0578063654c1c381461025e5780638a7be8e51461028f578063abc0bbe7146102b8578063ac04f5a7146102e1578063b80777ea1461031a578063ba19322d14610343578063cf09e0d014610374575b600080fd5b34156100bf57600080fd5b6100c761039d565b6040518080602001828103825283818151815260200191508051906020019080838360005b838110156101075780820151818401526020810190506100ec565b50505050905090810190601f1680156101345780820380516001836020036101000a031916815260200191505b509250505060405180910390f35b341561014d57600080fd5b61015561043b565b604051808273ffffffffffffffffffffffffffffffffffffffff1673ffffffffffffffffffffffffffffffffffffffff16815260200191505060405180910390f35b34156101a257600080fd5b6101ce600480803573ffffffffffffffffffffffffffffffffffffffff16906020019091905050610461565b005b34156101db57600080fd5b6101e36104ff565b6040518080602001828103825283818151815260200191508051906020019080838360005b83811015610223578082015181840152602081019050610208565b50505050905090810190601f1680156102505780820380516001836020036101000a031916815260200191505b509250505060405180910390f35b341561026957600080fd5b61027161059d565b60405180826000191660001916815260200191505060405180910390f35b341561029a57600080fd5b6102a26105a3565b6040518082815260200191505060405180910390f35b34156102c357600080fd5b6102cb6105a9565b6040518082815260200191505060405180910390f35b34156102ec57600080fd5b610318600480803573ffffffffffffffffffffffffffffffffffffffff169060200190919050506105af565b005b341561032557600080fd5b61032d61064e565b6040518082815260200191505060405180910390f35b341561034e57600080fd5b610356610654565b60405180826000191660001916815260200191505060405180910390f35b341561037f57600080fd5b61038761065a565b6040518082815260200191505060405180910390f35b60048054600181600116156101000203166002900480601f0160208091040260200160405190810160405280929190818152602001828054600181600116156101000203166002900480156104335780601f1061040857610100808354040283529160200191610433565b820191906000526020600020905b81548152906001019060200180831161041657829003601f168201915b505050505081565b600360009054906101000a900473ffffffffffffffffffffffffffffffffffffffff1681565b6000809054906101000a900473ffffffffffffffffffffffffffffffffffffffff1673ffffffffffffffffffffffffffffffffffffffff163373ffffffffffffffffffffffffffffffffffffffff161415156104bc57600080fd5b806000806101000a81548173ffffffffffffffffffffffffffffffffffffffff021916908373ffffffffffffffffffffffffffffffffffffffff16021790555050565b60088054600181600116156101000203166002900480601f0160208091040260200160405190810160405280929190818152602001828054600181600116156101000203166002900480156105955780601f1061056a57610100808354040283529160200191610595565b820191906000526020600020905b81548152906001019060200180831161057857829003601f168201915b505050505081565b60075481565b60055481565b60065481565b6000809054906101000a900473ffffffffffffffffffffffffffffffffffffffff1673ffffffffffffffffffffffffffffffffffffffff163373ffffffffffffffffffffffffffffffffffffffff1614151561060a57600080fd5b80600360006101000a81548173ffffffffffffffffffffffffffffffffffffffff021916908373ffffffffffffffffffffffffffffffffffffffff16021790555050565b60015481565b60025481565b60006001549050905600a165627a7a72305820d08e648681af49ad30aa4680e42b60c0da1bc567735c4f45d8d3ce6c6c317f380029",
  "source": "pragma solidity ^0.4.8;\n\nimport \"./TimeLineDocument_v2.sol\";\n\n/**\n * Common Law mark usage documentation. Each UsageDocument represents additional\n * usage history.\n *\n * Copyright (c) 2017 Cognate, Inc.\n */\ncontract UsageDocument is TimeLineDocument_v2 {\n\n    string public geographicRegion; // TODO think about this\n    uint public classOfGoods;\n    uint public dateOfFirstUse; // unix timestamp\n    bytes32 public proofOfUse;\n    string public details; // class identifications\n\n    function UsageDocument(address timeLine,\n                           string _geographicRegion, \n                           uint _classOfGoods, \n                           uint _dateOfFirstUse,\n                           bytes32 _proofOfUse,\n                           string _details) TimeLineDocument_v2(timeLine) {\n      \n        geographicRegion = _geographicRegion;\n        classOfGoods = _classOfGoods;\n        dateOfFirstUse = _dateOfFirstUse;\n        proofOfUse = _proofOfUse;\n        details = _details;\n    }\n}",
  "sourcePath": "/Users/MasterChief/Cog/cog-contract/contracts-versioned/2.0/UsageDocument.sol",
  "compiler": {
    "name": "solc",
    "version": "0.4.18+commit.9cf6e910.Emscripten.clang"
  },
  "schemaVersion": "1.0.1",
  "updatedAt": "2018-01-15T19:32:46.192Z"
}