{
  "contractName": "Amendable",
  "abi": [
    {
      "constant": false,
      "inputs": [],
      "name": "kill",
      "outputs": [],
      "payable": false,
      "stateMutability": "nonpayable",
      "type": "function"
    },
    {
      "constant": false,
      "inputs": [],
      "name": "owned_v1",
      "outputs": [],
      "payable": false,
      "stateMutability": "nonpayable",
      "type": "function"
    },
    {
      "constant": true,
      "inputs": [],
      "name": "getCreatedAt",
      "outputs": [
        {
          "name": "",
          "type": "uint256"
        }
      ],
      "payable": false,
      "stateMutability": "view",
      "type": "function"
    },
    {
      "constant": false,
      "inputs": [],
      "name": "timeStamped_v1",
      "outputs": [],
      "payable": false,
      "stateMutability": "nonpayable",
      "type": "function"
    },
    {
      "constant": false,
      "inputs": [
        {
          "name": "_amendment",
          "type": "address"
        }
      ],
      "name": "append",
      "outputs": [
        {
          "name": "",
          "type": "address"
        }
      ],
      "payable": false,
      "stateMutability": "nonpayable",
      "type": "function"
    },
    {
      "constant": true,
      "inputs": [],
      "name": "getAmendment",
      "outputs": [
        {
          "name": "",
          "type": "address"
        }
      ],
      "payable": false,
      "stateMutability": "view",
      "type": "function"
    },
    {
      "constant": false,
      "inputs": [],
      "name": "cleanup",
      "outputs": [],
      "payable": false,
      "stateMutability": "nonpayable",
      "type": "function"
    }
  ],
  "bytecode": "0x608060405234801561001057600080fd5b506107b6806100206000396000f300608060405260043610610083576000357c0100000000000000000000000000000000000000000000000000000000900463ffffffff1680633cecd7191461008857806341c0e1b51461009f57806351c9eefd146100b65780637e05f5a8146100cd5780638bb718b5146100f8578063ac04f5a71461010f578063c47049cd14610192575b600080fd5b34801561009457600080fd5b5061009d6101e9565b005b3480156100ab57600080fd5b506100b46103b4565b005b3480156100c257600080fd5b506100cb610445565b005b3480156100d957600080fd5b506100e2610487565b6040518082815260200191505060405180910390f35b34801561010457600080fd5b5061010d6104e7565b005b34801561011b57600080fd5b50610150600480360381019080803573ffffffffffffffffffffffffffffffffffffffff1690602001909291905050506104f0565b604051808273ffffffffffffffffffffffffffffffffffffffff1673ffffffffffffffffffffffffffffffffffffffff16815260200191505060405180910390f35b34801561019e57600080fd5b506101a761070a565b604051808273ffffffffffffffffffffffffffffffffffffffff1673ffffffffffffffffffffffffffffffffffffffff16815260200191505060405180910390f35b6000809054906101000a900473ffffffffffffffffffffffffffffffffffffffff1673ffffffffffffffffffffffffffffffffffffffff163273ffffffffffffffffffffffffffffffffffffffff1614156103b257600073ffffffffffffffffffffffffffffffffffffffff16600260009054906101000a900473ffffffffffffffffffffffffffffffffffffffff1673ffffffffffffffffffffffffffffffffffffffff1614151561033557600260009054906101000a900473ffffffffffffffffffffffffffffffffffffffff1673ffffffffffffffffffffffffffffffffffffffff16633cecd7196040518163ffffffff167c0100000000000000000000000000000000000000000000000000000000028152600401600060405180830381600087803b15801561031c57600080fd5b505af1158015610330573d6000803e3d6000fd5b505050505b3073ffffffffffffffffffffffffffffffffffffffff166341c0e1b56040518163ffffffff167c0100000000000000000000000000000000000000000000000000000000028152600401600060405180830381600087803b15801561039957600080fd5b505af11580156103ad573d6000803e3d6000fd5b505050505b565b6000809054906101000a900473ffffffffffffffffffffffffffffffffffffffff1673ffffffffffffffffffffffffffffffffffffffff163273ffffffffffffffffffffffffffffffffffffffff161415610443576000809054906101000a900473ffffffffffffffffffffffffffffffffffffffff1673ffffffffffffffffffffffffffffffffffffffff16ff5b565b326000806101000a81548173ffffffffffffffffffffffffffffffffffffffff021916908373ffffffffffffffffffffffffffffffffffffffff160217905550565b60008060009054906101000a900473ffffffffffffffffffffffffffffffffffffffff1673ffffffffffffffffffffffffffffffffffffffff163273ffffffffffffffffffffffffffffffffffffffff1614156104e45760015490505b90565b42600181905550565b60008060009054906101000a900473ffffffffffffffffffffffffffffffffffffffff1673ffffffffffffffffffffffffffffffffffffffff163273ffffffffffffffffffffffffffffffffffffffff16141561070557600073ffffffffffffffffffffffffffffffffffffffff16600260009054906101000a900473ffffffffffffffffffffffffffffffffffffffff1673ffffffffffffffffffffffffffffffffffffffff1614156106095781600260006101000a81548173ffffffffffffffffffffffffffffffffffffffff021916908373ffffffffffffffffffffffffffffffffffffffff160217905550600260009054906101000a900473ffffffffffffffffffffffffffffffffffffffff169050610704565b600260009054906101000a900473ffffffffffffffffffffffffffffffffffffffff1673ffffffffffffffffffffffffffffffffffffffff1663ac04f5a7836040518263ffffffff167c0100000000000000000000000000000000000000000000000000000000028152600401808273ffffffffffffffffffffffffffffffffffffffff1673ffffffffffffffffffffffffffffffffffffffff168152602001915050602060405180830381600087803b1580156106c657600080fd5b505af11580156106da573d6000803e3d6000fd5b505050506040513d60208110156106f057600080fd5b810190808051906020019092919050505090505b5b919050565b60008060009054906101000a900473ffffffffffffffffffffffffffffffffffffffff1673ffffffffffffffffffffffffffffffffffffffff163273ffffffffffffffffffffffffffffffffffffffff16141561078757600260009054906101000a900473ffffffffffffffffffffffffffffffffffffffff1690505b905600a165627a7a72305820e0b92489221201bbe29634c98c8379dc448c552c7bc30d263875dd0ebb0fc99b0029",
  "source": "pragma solidity ^0.4.0;\n\nimport \"./owned.sol\";\nimport \"./mortal.sol\";\nimport \"./timeStamped.sol\";\n/**\n * Base contract for Listings and their Amendments. Defines the shared methods and fields\n * that allow us to append changes to a listing/amendment rather than overwriting data\n * in order to build a timeline of ownership and listing details.\n */\ncontract Amendable is owned, timeStamped, mortal {\n\n    Amendable private amendment;\n\n    /*\n     * Append the provided amendment to furthest Amendable in this Amendables chain\n     * of Amendables\n     */\n    function append(Amendable _amendment) public restricted returns (Amendable) {\n        if(amendment == address(0)) {\n            amendment = _amendment;\n            return amendment;\n        }\n\n        return amendment.append(_amendment);\n    }\n\n    // Restricted getters\n    //-------------------\n\n    function getAmendment() external constant restricted returns (Amendable) {\n        return amendment;\n    }\n\n    // Removal\n    //--------\n    function cleanup() external restricted {\n        if(amendment != address(0)) {\n            amendment.cleanup();\n        }\n\n        this.kill();\n    }\n}",
  "sourcePath": "/Users/cmurdock/Cog/cog-contract/contracts/Amendable.sol",
  "compiler": {
    "name": "solc",
    "version": "0.4.23+commit.124ca40d.Emscripten.clang"
  },
  "schemaVersion": "2.0.0",
  "updatedAt": "2018-09-18T20:15:13.212Z"
}