{
  "contractName": "CognateRegistry",
  "abi": [
    {
      "constant": false,
      "inputs": [],
      "name": "owned_v1",
      "outputs": [],
      "payable": false,
      "stateMutability": "nonpayable",
      "type": "function"
    },
    {
      "anonymous": false,
      "inputs": [
        {
          "indexed": false,
          "name": "key",
          "type": "string"
        },
        {
          "indexed": false,
          "name": "listing",
          "type": "address"
        }
      ],
      "name": "Added",
      "type": "event"
    },
    {
      "constant": false,
      "inputs": [
        {
          "name": "key",
          "type": "string"
        },
        {
          "name": "listing",
          "type": "address"
        }
      ],
      "name": "add",
      "outputs": [],
      "payable": false,
      "stateMutability": "nonpayable",
      "type": "function"
    },
    {
      "constant": true,
      "inputs": [
        {
          "name": "listing",
          "type": "address"
        }
      ],
      "name": "verify",
      "outputs": [
        {
          "name": "",
          "type": "bool"
        }
      ],
      "payable": false,
      "stateMutability": "view",
      "type": "function"
    },
    {
      "constant": true,
      "inputs": [
        {
          "name": "key",
          "type": "string"
        }
      ],
      "name": "getListing",
      "outputs": [
        {
          "name": "",
          "type": "address"
        }
      ],
      "payable": false,
      "stateMutability": "view",
      "type": "function"
    }
  ],
  "bytecode": "0x608060405234801561001057600080fd5b50610566806100206000396000f300608060405260043610610062576000357c0100000000000000000000000000000000000000000000000000000000900463ffffffff1680632bffc7ed146100675780634ae9ec30146100c257806351c9eefd1461013d57806363a9c3d714610154575b600080fd5b34801561007357600080fd5b506100c0600480360381019080803590602001908201803590602001919091929391929390803573ffffffffffffffffffffffffffffffffffffffff1690602001909291905050506101af565b005b3480156100ce57600080fd5b506100fb600480360381019080803590602001908201803590602001919091929391929390505050610359565b604051808273ffffffffffffffffffffffffffffffffffffffff1673ffffffffffffffffffffffffffffffffffffffff16815260200191505060405180910390f35b34801561014957600080fd5b506101526103ff565b005b34801561016057600080fd5b50610195600480360381019080803573ffffffffffffffffffffffffffffffffffffffff169060200190929190505050610441565b604051808215151515815260200191505060405180910390f35b6000809054906101000a900473ffffffffffffffffffffffffffffffffffffffff1673ffffffffffffffffffffffffffffffffffffffff163273ffffffffffffffffffffffffffffffffffffffff16141561035457806001848460405180838380828437820191505092505050908152602001604051809103902060006101000a81548173ffffffffffffffffffffffffffffffffffffffff021916908373ffffffffffffffffffffffffffffffffffffffff16021790555060028190806001815401808255809150509060018203906000526020600020016000909192909190916101000a81548173ffffffffffffffffffffffffffffffffffffffff021916908373ffffffffffffffffffffffffffffffffffffffff160217905550507ffb989cb0d132b51483b9258c1befbe92caa5f5b046af3dfdcc617dcf425af49383838360405180806020018373ffffffffffffffffffffffffffffffffffffffff1673ffffffffffffffffffffffffffffffffffffffff1681526020018281038252858582818152602001925080828437820191505094505050505060405180910390a15b505050565b60008060009054906101000a900473ffffffffffffffffffffffffffffffffffffffff1673ffffffffffffffffffffffffffffffffffffffff163273ffffffffffffffffffffffffffffffffffffffff1614156103f9576001838360405180838380828437820191505092505050908152602001604051809103902060009054906101000a900473ffffffffffffffffffffffffffffffffffffffff1690505b92915050565b326000806101000a81548173ffffffffffffffffffffffffffffffffffffffff021916908373ffffffffffffffffffffffffffffffffffffffff160217905550565b6000806000809054906101000a900473ffffffffffffffffffffffffffffffffffffffff1673ffffffffffffffffffffffffffffffffffffffff163273ffffffffffffffffffffffffffffffffffffffff16141561053457600090505b60028054905081101561052e578273ffffffffffffffffffffffffffffffffffffffff166002828154811015156104d157fe5b9060005260206000200160009054906101000a900473ffffffffffffffffffffffffffffffffffffffff1673ffffffffffffffffffffffffffffffffffffffff1614156105215760019150610533565b808060010191505061049e565b600091505b5b509190505600a165627a7a723058208d89ebd66da625aed14d4fb2a7604ef70427e53682d3073bb830d9fac468f96c0029",
  "source": "pragma solidity ^0.4.0;\n\nimport \"./owned.sol\";\n\n/**\n * Eternal Storage contract to keep track of Cognate Listings\n */\ncontract CognateRegistry is owned {\n\n    // mapping to keep track of all Cognate Listings\n    mapping(string => address) listingMap;\n    address[] listingArray;\n\n    // Events\n    event Added(string key, address listing);\n\n    //--------------\n    // External API\n    //--------------\n\n    // Restricted\n    //-----------\n\n    /**\n     * TODO\n     */\n    function add(string key, address listing) external restricted {\n        listingMap[key] = listing;\n        listingArray.push(listing);\n        Added(key, listing);\n    }\n\n    // Public\n    //-------\n\n    /**\n     * Verify if a supplied address is that of a Cognate Listing\n     */\n    function verify(address listing) external constant restricted returns (bool) {\n        for(uint i = 0; i < listingArray.length; i++) {\n            if(listingArray[i] == listing) {\n                return true;\n            }\n        }\n\n        return false;\n    }\n\n    /**\n     * Retrieve the address of a listing with the given mark\n     */\n    function getListing(string key) external constant restricted returns (address) {\n        return listingMap[key];\n    }\n}",
  "sourcePath": "/Users/cmurdock/Cog/cog-contract/contracts/CognateRegistry.sol",
  "compiler": {
    "name": "solc",
    "version": "0.4.23+commit.124ca40d.Emscripten.clang"
  },
  "schemaVersion": "2.0.0",
  "updatedAt": "2018-09-18T20:15:13.214Z"
}