{
  "contractName": "owned",
  "abi": [
    {
      "constant": false,
      "inputs": [],
      "name": "owned_v1",
      "outputs": [],
      "payable": false,
      "stateMutability": "nonpayable",
      "type": "function"
    }
  ],
  "bytecode": "0x6080604052348015600f57600080fd5b5060c68061001e6000396000f300608060405260043610603f576000357c0100000000000000000000000000000000000000000000000000000000900463ffffffff16806351c9eefd146044575b600080fd5b348015604f57600080fd5b5060566058565b005b326000806101000a81548173ffffffffffffffffffffffffffffffffffffffff021916908373ffffffffffffffffffffffffffffffffffffffff1602179055505600a165627a7a723058207ded78923a7f90e04987fb93f4b9c33ab8fece9416b2c04ca2d265dac7813a1b0029",
  "source": "pragma solidity ^0.4.0;\n/**\n * Security parent class used to add ownership to the inheriting contract and\n * provide a restriction modifier that will restrict access to specified methods\n */\ncontract owned {\n    address internal owner;\n\n    function owned_v1() {\n        owner = tx.origin;\n    }\n\n    // Modifiers\n    //----------\n\n    /**\n     * Restriction modifier, restricts access of methods to the initial transaction\n     * origin.\n     */\n    modifier restricted() {\n        if (tx.origin == owner) _;\n    }\n}",
  "sourcePath": "/Users/cmurdock/Cog/cog-contract/contracts/owned.sol",
  "compiler": {
    "name": "solc",
    "version": "0.4.23+commit.124ca40d.Emscripten.clang"
  },
  "schemaVersion": "2.0.0",
  "updatedAt": "2018-09-18T20:15:13.216Z"
}