{
  "contractName": "timeStamped",
  "abi": [
    {
      "constant": false,
      "inputs": [],
      "name": "owned_v1",
      "outputs": [],
      "payable": false,
      "stateMutability": "nonpayable",
      "type": "function"
    },
    {
      "constant": false,
      "inputs": [],
      "name": "timeStamped_v1",
      "outputs": [],
      "payable": false,
      "stateMutability": "nonpayable",
      "type": "function"
    },
    {
      "constant": true,
      "inputs": [],
      "name": "getCreatedAt",
      "outputs": [
        {
          "name": "",
          "type": "uint256"
        }
      ],
      "payable": false,
      "stateMutability": "view",
      "type": "function"
    }
  ],
  "bytecode": "0x608060405234801561001057600080fd5b5061018c806100206000396000f300608060405260043610610057576000357c0100000000000000000000000000000000000000000000000000000000900463ffffffff16806351c9eefd1461005c5780637e05f5a8146100735780638bb718b51461009e575b600080fd5b34801561006857600080fd5b506100716100b5565b005b34801561007f57600080fd5b506100886100f7565b6040518082815260200191505060405180910390f35b3480156100aa57600080fd5b506100b3610157565b005b326000806101000a81548173ffffffffffffffffffffffffffffffffffffffff021916908373ffffffffffffffffffffffffffffffffffffffff160217905550565b60008060009054906101000a900473ffffffffffffffffffffffffffffffffffffffff1673ffffffffffffffffffffffffffffffffffffffff163273ffffffffffffffffffffffffffffffffffffffff1614156101545760015490505b90565b426001819055505600a165627a7a723058202ff1dfa8baecd086d50046c733afe4b2708d0910cb07cea75ce4516ec1ff2d9a0029",
  "source": "pragma solidity ^0.4.0;\n\nimport \"./owned.sol\";\n\n/**\n * Adds a createdAt timestamp to inheriting class. This isn't technically needed\n * since the block timestamp should always be accessible, however this provides a\n * more straightforward way to discover the timestamp of creation of a particular\n * contract\n */\ncontract timeStamped is owned {\n    uint private createdAt;\n\n    function timeStamped_v1() {\n        createdAt = now;\n    }\n\n    // Restricted getters\n    //-------------------\n\n    function getCreatedAt() external constant restricted returns (uint) {\n        return createdAt;\n    }\n}",
  "sourcePath": "/Users/cmurdock/Cog/cog-contract/contracts/timeStamped.sol",
  "compiler": {
    "name": "solc",
    "version": "0.4.23+commit.124ca40d.Emscripten.clang"
  },
  "schemaVersion": "2.0.0",
  "updatedAt": "2018-09-18T20:15:13.216Z"
}