{
  "contractName": "UsageDocument",
  "abi": [
    {
      "constant": false,
      "inputs": [],
      "name": "cleanup",
      "outputs": [],
      "payable": false,
      "stateMutability": "nonpayable",
      "type": "function"
    },
    {
      "constant": false,
      "inputs": [],
      "name": "kill",
      "outputs": [],
      "payable": false,
      "stateMutability": "nonpayable",
      "type": "function"
    },
    {
      "constant": false,
      "inputs": [],
      "name": "owned_v1",
      "outputs": [],
      "payable": false,
      "stateMutability": "nonpayable",
      "type": "function"
    },
    {
      "constant": true,
      "inputs": [],
      "name": "getCreatedAt",
      "outputs": [
        {
          "name": "",
          "type": "uint256"
        }
      ],
      "payable": false,
      "stateMutability": "view",
      "type": "function"
    },
    {
      "constant": false,
      "inputs": [],
      "name": "timeStamped_v1",
      "outputs": [],
      "payable": false,
      "stateMutability": "nonpayable",
      "type": "function"
    },
    {
      "constant": false,
      "inputs": [
        {
          "name": "_amendment",
          "type": "address"
        }
      ],
      "name": "append",
      "outputs": [
        {
          "name": "",
          "type": "address"
        }
      ],
      "payable": false,
      "stateMutability": "nonpayable",
      "type": "function"
    },
    {
      "constant": true,
      "inputs": [],
      "name": "getAmendment",
      "outputs": [
        {
          "name": "",
          "type": "address"
        }
      ],
      "payable": false,
      "stateMutability": "view",
      "type": "function"
    },
    {
      "constant": false,
      "inputs": [
        {
          "name": "_geographicRegion",
          "type": "string"
        },
        {
          "name": "_classOfGoods",
          "type": "uint256"
        },
        {
          "name": "_dateOfFirstUse",
          "type": "uint256"
        },
        {
          "name": "_proofOfUse",
          "type": "bytes32"
        },
        {
          "name": "_details",
          "type": "string"
        }
      ],
      "name": "UsageDocument_v1",
      "outputs": [],
      "payable": false,
      "stateMutability": "nonpayable",
      "type": "function"
    },
    {
      "constant": true,
      "inputs": [],
      "name": "getGeographicRegion",
      "outputs": [
        {
          "name": "",
          "type": "string"
        }
      ],
      "payable": false,
      "stateMutability": "view",
      "type": "function"
    },
    {
      "constant": true,
      "inputs": [],
      "name": "getClassOfGoods",
      "outputs": [
        {
          "name": "",
          "type": "uint256"
        }
      ],
      "payable": false,
      "stateMutability": "view",
      "type": "function"
    },
    {
      "constant": true,
      "inputs": [],
      "name": "getDateOfFirstUse",
      "outputs": [
        {
          "name": "",
          "type": "uint256"
        }
      ],
      "payable": false,
      "stateMutability": "view",
      "type": "function"
    },
    {
      "constant": true,
      "inputs": [],
      "name": "getProofOfUse",
      "outputs": [
        {
          "name": "",
          "type": "bytes32"
        }
      ],
      "payable": false,
      "stateMutability": "view",
      "type": "function"
    },
    {
      "constant": true,
      "inputs": [],
      "name": "getDetails",
      "outputs": [
        {
          "name": "",
          "type": "string"
        }
      ],
      "payable": false,
      "stateMutability": "view",
      "type": "function"
    }
  ],
  "bytecode": "0x608060405234801561001057600080fd5b50610e75806100206000396000f3006080604052600436106100c5576000357c0100000000000000000000000000000000000000000000000000000000900463ffffffff16806305c7e054146100ca5780633cecd719146100fd57806341c0e1b51461011457806351c9eefd1461012b5780637e05f5a8146101425780638bb718b51461016d5780639144e77614610184578063ac04f5a714610214578063c25c6fca14610297578063c47049cd14610368578063d3e32f0b146103bf578063edbf5a84146103ea578063fbbf93a014610415575b600080fd5b3480156100d657600080fd5b506100df6104a5565b60405180826000191660001916815260200191505060405180910390f35b34801561010957600080fd5b50610112610505565b005b34801561012057600080fd5b506101296106d0565b005b34801561013757600080fd5b50610140610761565b005b34801561014e57600080fd5b506101576107a3565b6040518082815260200191505060405180910390f35b34801561017957600080fd5b50610182610803565b005b34801561019057600080fd5b5061019961080c565b6040518080602001828103825283818151815260200191508051906020019080838360005b838110156101d95780820151818401526020810190506101be565b50505050905090810190601f1680156102065780820380516001836020036101000a031916815260200191505b509250505060405180910390f35b34801561022057600080fd5b50610255600480360381019080803573ffffffffffffffffffffffffffffffffffffffff169060200190929190505050610904565b604051808273ffffffffffffffffffffffffffffffffffffffff1673ffffffffffffffffffffffffffffffffffffffff16815260200191505060405180910390f35b3480156102a357600080fd5b50610366600480360381019080803590602001908201803590602001908080601f016020809104026020016040519081016040528093929190818152602001838380828437820191505050505050919291929080359060200190929190803590602001909291908035600019169060200190929190803590602001908201803590602001908080601f0160208091040260200160405190810160405280939291908181526020018383808284378201915050505050509192919290505050610b1e565b005b34801561037457600080fd5b5061037d610b6c565b604051808273ffffffffffffffffffffffffffffffffffffffff1673ffffffffffffffffffffffffffffffffffffffff16815260200191505060405180910390f35b3480156103cb57600080fd5b506103d4610bec565b6040518082815260200191505060405180910390f35b3480156103f657600080fd5b506103ff610c4c565b6040518082815260200191505060405180910390f35b34801561042157600080fd5b5061042a610cac565b6040518080602001828103825283818151815260200191508051906020019080838360005b8381101561046a57808201518184015260208101905061044f565b50505050905090810190601f1680156104975780820380516001836020036101000a031916815260200191505b509250505060405180910390f35b60008060009054906101000a900473ffffffffffffffffffffffffffffffffffffffff1673ffffffffffffffffffffffffffffffffffffffff163273ffffffffffffffffffffffffffffffffffffffff1614156105025760065490505b90565b6000809054906101000a900473ffffffffffffffffffffffffffffffffffffffff1673ffffffffffffffffffffffffffffffffffffffff163273ffffffffffffffffffffffffffffffffffffffff1614156106ce57600073ffffffffffffffffffffffffffffffffffffffff16600260009054906101000a900473ffffffffffffffffffffffffffffffffffffffff1673ffffffffffffffffffffffffffffffffffffffff1614151561065157600260009054906101000a900473ffffffffffffffffffffffffffffffffffffffff1673ffffffffffffffffffffffffffffffffffffffff16633cecd7196040518163ffffffff167c0100000000000000000000000000000000000000000000000000000000028152600401600060405180830381600087803b15801561063857600080fd5b505af115801561064c573d6000803e3d6000fd5b505050505b3073ffffffffffffffffffffffffffffffffffffffff166341c0e1b56040518163ffffffff167c0100000000000000000000000000000000000000000000000000000000028152600401600060405180830381600087803b1580156106b557600080fd5b505af11580156106c9573d6000803e3d6000fd5b505050505b565b6000809054906101000a900473ffffffffffffffffffffffffffffffffffffffff1673ffffffffffffffffffffffffffffffffffffffff163273ffffffffffffffffffffffffffffffffffffffff16141561075f576000809054906101000a900473ffffffffffffffffffffffffffffffffffffffff1673ffffffffffffffffffffffffffffffffffffffff16ff5b565b326000806101000a81548173ffffffffffffffffffffffffffffffffffffffff021916908373ffffffffffffffffffffffffffffffffffffffff160217905550565b60008060009054906101000a900473ffffffffffffffffffffffffffffffffffffffff1673ffffffffffffffffffffffffffffffffffffffff163273ffffffffffffffffffffffffffffffffffffffff1614156108005760015490505b90565b42600181905550565b60606000809054906101000a900473ffffffffffffffffffffffffffffffffffffffff1673ffffffffffffffffffffffffffffffffffffffff163273ffffffffffffffffffffffffffffffffffffffff1614156109015760038054600181600116156101000203166002900480601f0160208091040260200160405190810160405280929190818152602001828054600181600116156101000203166002900480156108f95780601f106108ce576101008083540402835291602001916108f9565b820191906000526020600020905b8154815290600101906020018083116108dc57829003601f168201915b505050505090505b90565b60008060009054906101000a900473ffffffffffffffffffffffffffffffffffffffff1673ffffffffffffffffffffffffffffffffffffffff163273ffffffffffffffffffffffffffffffffffffffff161415610b1957600073ffffffffffffffffffffffffffffffffffffffff16600260009054906101000a900473ffffffffffffffffffffffffffffffffffffffff1673ffffffffffffffffffffffffffffffffffffffff161415610a1d5781600260006101000a81548173ffffffffffffffffffffffffffffffffffffffff021916908373ffffffffffffffffffffffffffffffffffffffff160217905550600260009054906101000a900473ffffffffffffffffffffffffffffffffffffffff169050610b18565b600260009054906101000a900473ffffffffffffffffffffffffffffffffffffffff1673ffffffffffffffffffffffffffffffffffffffff1663ac04f5a7836040518263ffffffff167c0100000000000000000000000000000000000000000000000000000000028152600401808273ffffffffffffffffffffffffffffffffffffffff1673ffffffffffffffffffffffffffffffffffffffff168152602001915050602060405180830381600087803b158015610ada57600080fd5b505af1158015610aee573d6000803e3d6000fd5b505050506040513d6020811015610b0457600080fd5b810190808051906020019092919050505090505b5b919050565b8460039080519060200190610b34929190610da4565b50836004819055508260058190555081600681600019169055508060079080519060200190610b64929190610da4565b505050505050565b60008060009054906101000a900473ffffffffffffffffffffffffffffffffffffffff1673ffffffffffffffffffffffffffffffffffffffff163273ffffffffffffffffffffffffffffffffffffffff161415610be957600260009054906101000a900473ffffffffffffffffffffffffffffffffffffffff1690505b90565b60008060009054906101000a900473ffffffffffffffffffffffffffffffffffffffff1673ffffffffffffffffffffffffffffffffffffffff163273ffffffffffffffffffffffffffffffffffffffff161415610c495760045490505b90565b60008060009054906101000a900473ffffffffffffffffffffffffffffffffffffffff1673ffffffffffffffffffffffffffffffffffffffff163273ffffffffffffffffffffffffffffffffffffffff161415610ca95760055490505b90565b60606000809054906101000a900473ffffffffffffffffffffffffffffffffffffffff1673ffffffffffffffffffffffffffffffffffffffff163273ffffffffffffffffffffffffffffffffffffffff161415610da15760078054600181600116156101000203166002900480601f016020809104026020016040519081016040528092919081815260200182805460018160011615610100020316600290048015610d995780601f10610d6e57610100808354040283529160200191610d99565b820191906000526020600020905b815481529060010190602001808311610d7c57829003601f168201915b505050505090505b90565b828054600181600116156101000203166002900490600052602060002090601f016020900481019282601f10610de557805160ff1916838001178555610e13565b82800160010185558215610e13579182015b82811115610e12578251825591602001919060010190610df7565b5b509050610e209190610e24565b5090565b610e4691905b80821115610e42576000816000905550600101610e2a565b5090565b905600a165627a7a723058200994896877b8eba7b2af692ff99b4abc0470858ef48d23b1744bdd72bcd0f2b50029",
  "source": "pragma solidity ^0.4.0;\n\nimport \"./Amendable.sol\";\n\n/**\n * Mark usage documentation\n */\ncontract UsageDocument is Amendable {\n\n\n    string private geographicRegion; // TODO think about this\n    uint private classOfGoods;\n    uint private dateOfFirstUse; // unix timestamp\n    bytes32 private proofOfUse;\n    string private details;\n    // TODO add usage description (tags) information\n\n    function UsageDocument_v1(string _geographicRegion,\n                              uint _classOfGoods,\n                              uint _dateOfFirstUse,\n                              bytes32 _proofOfUse,\n                              string _details) {\n        geographicRegion = _geographicRegion;\n        classOfGoods = _classOfGoods;\n        dateOfFirstUse = _dateOfFirstUse;\n        proofOfUse = _proofOfUse;\n        details = _details;\n    }\n\n\n    // Restricted getters\n    //-------------------\n\n    function getGeographicRegion() external constant restricted returns (string) {\n        return geographicRegion;\n    }\n    function getClassOfGoods() external constant restricted returns (uint) {\n        return classOfGoods;\n    }\n    function getDateOfFirstUse() external constant restricted returns (uint) {\n        return dateOfFirstUse;\n    }\n    function getProofOfUse() external constant restricted returns (bytes32) {\n        return proofOfUse;\n    }\n    function getDetails() external constant restricted returns (string) {\n        return details;\n    }\n}",
  "sourcePath": "/Users/cmurdock/Cog/cog-contract/contracts/UsageDocument.sol",
  "compiler": {
    "name": "solc",
    "version": "0.4.23+commit.124ca40d.Emscripten.clang"
  },
  "schemaVersion": "2.0.0",
  "updatedAt": "2018-09-18T20:15:13.215Z"
}