{
  "contractName": "AreaOfUse",
  "abi": [
    {
      "constant": true,
      "inputs": [],
      "name": "countries",
      "outputs": [
        {
          "name": "",
          "type": "string"
        }
      ],
      "payable": false,
      "stateMutability": "view",
      "type": "function"
    },
    {
      "constant": true,
      "inputs": [],
      "name": "proofs",
      "outputs": [
        {
          "name": "",
          "type": "address[]"
        }
      ],
      "payable": false,
      "stateMutability": "view",
      "type": "function"
    },
    {
      "constant": true,
      "inputs": [],
      "name": "prev",
      "outputs": [
        {
          "name": "",
          "type": "address"
        }
      ],
      "payable": false,
      "stateMutability": "view",
      "type": "function"
    },
    {
      "constant": true,
      "inputs": [],
      "name": "next",
      "outputs": [
        {
          "name": "",
          "type": "address"
        }
      ],
      "payable": false,
      "stateMutability": "view",
      "type": "function"
    },
    {
      "constant": false,
      "inputs": [
        {
          "name": "_owner",
          "type": "address"
        }
      ],
      "name": "transferOwnershipTo",
      "outputs": [],
      "payable": false,
      "stateMutability": "nonpayable",
      "type": "function"
    },
    {
      "constant": false,
      "inputs": [
        {
          "name": "prev",
          "type": "address"
        }
      ],
      "name": "setPrev",
      "outputs": [],
      "payable": false,
      "stateMutability": "nonpayable",
      "type": "function"
    },
    {
      "constant": true,
      "inputs": [],
      "name": "owner",
      "outputs": [
        {
          "name": "",
          "type": "address"
        }
      ],
      "payable": false,
      "stateMutability": "view",
      "type": "function"
    },
    {
      "constant": false,
      "inputs": [
        {
          "name": "next",
          "type": "address"
        }
      ],
      "name": "setNext",
      "outputs": [],
      "payable": false,
      "stateMutability": "nonpayable",
      "type": "function"
    },
    {
      "constant": true,
      "inputs": [],
      "name": "timestamp",
      "outputs": [
        {
          "name": "",
          "type": "uint256"
        }
      ],
      "payable": false,
      "stateMutability": "view",
      "type": "function"
    },
    {
      "constant": true,
      "inputs": [],
      "name": "interfaceID",
      "outputs": [
        {
          "name": "",
          "type": "bytes32"
        }
      ],
      "payable": false,
      "stateMutability": "view",
      "type": "function"
    },
    {
      "constant": true,
      "inputs": [],
      "name": "regions",
      "outputs": [
        {
          "name": "",
          "type": "string"
        }
      ],
      "payable": false,
      "stateMutability": "view",
      "type": "function"
    },
    {
      "constant": false,
      "inputs": [
        {
          "name": "proof",
          "type": "address"
        }
      ],
      "name": "addProof",
      "outputs": [],
      "payable": false,
      "stateMutability": "nonpayable",
      "type": "function"
    },
    {
      "inputs": [
        {
          "name": "_countries",
          "type": "string"
        },
        {
          "name": "_regions",
          "type": "string"
        }
      ],
      "payable": false,
      "stateMutability": "nonpayable",
      "type": "constructor"
    }
  ],
  "bytecode": "0x608060405234801561001057600080fd5b506040516107cb3803806107cb83398101604052805160208083015160008054600160a060020a03191633600160a060020a0316179055426001557f79056e9bb24f897d7f885dacdb2d506599944c0cdfd6b7495eb7f3ea624ac5af60025591830180519093929092019161008b91600691908501906100a7565b50805161009f9060079060208401906100a7565b505050610142565b828054600181600116156101000203166002900490600052602060002090601f016020900481019282601f106100e857805160ff1916838001178555610115565b82800160010185558215610115579182015b828111156101155782518255916020019190600101906100fa565b50610121929150610125565b5090565b61013f91905b80821115610121576000815560010161012b565b90565b61067a806101516000396000f3006080604052600436106100b95763ffffffff7c010000000000000000000000000000000000000000000000000000000060003504166303c108b881146100be578063435d53f214610148578063479c9254146101ad5780634c8fe526146101de57806352effe11146101f35780638c1bb2a4146102165780638da5cb5b14610237578063b2b2b44d1461024c578063b80777ea1461026d578063ba19322d14610294578063d8c0869d146102a9578063ec3d670c146102be575b600080fd5b3480156100ca57600080fd5b506100d36102df565b6040805160208082528351818301528351919283929083019185019080838360005b8381101561010d5781810151838201526020016100f5565b50505050905090810190601f16801561013a5780820380516001836020036101000a031916815260200191505b509250505060405180910390f35b34801561015457600080fd5b5061015d61036d565b60408051602080825283518183015283519192839290830191858101910280838360005b83811015610199578181015183820152602001610181565b505050509050019250505060405180910390f35b3480156101b957600080fd5b506101c26103d2565b60408051600160a060020a039092168252519081900360200190f35b3480156101ea57600080fd5b506101c26103e1565b3480156101ff57600080fd5b50610214600160a060020a03600435166103f0565b005b34801561022257600080fd5b50610214600160a060020a036004351661044f565b34801561024357600080fd5b506101c26104e4565b34801561025857600080fd5b50610214600160a060020a03600435166104f3565b34801561027957600080fd5b5061028261056d565b60408051918252519081900360200190f35b3480156102a057600080fd5b50610282610573565b3480156102b557600080fd5b506100d3610579565b3480156102ca57600080fd5b50610214600160a060020a03600435166105d4565b6006805460408051602060026001851615610100026000190190941693909304601f810184900484028201840190925281815292918301828280156103655780601f1061033a57610100808354040283529160200191610365565b820191906000526020600020905b81548152906001019060200180831161034857829003601f168201915b505050505081565b606060056000018054806020026020016040519081016040528092919081815260200182805480156103c857602002820191906000526020600020905b8154600160a060020a031681526001909101906020018083116103aa575b5050505050905090565b600454600160a060020a031690565b600354600160a060020a031690565b60005433600160a060020a0390811691161461040b57600080fd5b600160a060020a038116151561042057600080fd5b6000805473ffffffffffffffffffffffffffffffffffffffff1916600160a060020a0392909216919091179055565b604080517f4df23ab100000000000000000000000000000000000000000000000000000000815260026004820152600160a060020a0383166024820152905173__ITimelineDocumentLib__________________91634df23ab1916044808301926000929190829003018186803b1580156104c957600080fd5b505af41580156104dd573d6000803e3d6000fd5b5050505050565b600054600160a060020a031681565b604080517f2d637bc600000000000000000000000000000000000000000000000000000000815260026004820152600160a060020a0383166024820152905173__ITimelineDocumentLib__________________91632d637bc6916044808301926000929190829003018186803b1580156104c957600080fd5b60015481565b60025490565b6007805460408051602060026001851615610100026000190190941693909304601f810184900484028201840190925281815292918301828280156103655780601f1061033a57610100808354040283529160200191610365565b604080517f427221c100000000000000000000000000000000000000000000000000000000815260056004820152600160a060020a0383166024820152905173__ITimelineDocumentLib__________________9163427221c1916044808301926000929190829003018186803b1580156104c957600080fd00a165627a7a72305820b907399c7d2902926b45617c8e4eb741815a3c82c73d666656946b3caba7dff60029",
  "source": "pragma solidity ^0.4.17;\n\nimport \"./Claim.sol\";\n\n/**\n * Represents an area of use consisting of countries and optionally their regions where the mark,\n * represented by the timeline asset to which this is appended, is in use.\n *\n * Copyright (c) 2017 Cognate, Inc.\n */\ncontract AreaOfUse is Claim {\n\n    string public countries;\n    string public regions;\n\n    constructor(string _countries, string _regions) public {\n        countries = _countries;\n        regions = _regions;\n    }\n}",
  "sourcePath": "/Users/cmurdock/Cog/cog-asset/contracts/timeline/timelineDocuments/AreaOfUse.sol",
  "compiler": {
    "name": "solc",
    "version": "0.4.23+commit.124ca40d.Emscripten.clang"
  },
  "schemaVersion": "2.0.0",
  "updatedAt": "2018-05-21T16:36:25.365Z"
}