{
  "contractName": "Asset",
  "abi": [
    {
      "constant": true,
      "inputs": [],
      "name": "timeline",
      "outputs": [
        {
          "name": "",
          "type": "address"
        }
      ],
      "payable": false,
      "stateMutability": "view",
      "type": "function"
    },
    {
      "constant": false,
      "inputs": [],
      "name": "kill",
      "outputs": [],
      "payable": false,
      "stateMutability": "nonpayable",
      "type": "function"
    },
    {
      "constant": false,
      "inputs": [
        {
          "name": "_owner",
          "type": "address"
        }
      ],
      "name": "transferOwnershipTo",
      "outputs": [],
      "payable": false,
      "stateMutability": "nonpayable",
      "type": "function"
    },
    {
      "constant": true,
      "inputs": [],
      "name": "owner",
      "outputs": [
        {
          "name": "",
          "type": "address"
        }
      ],
      "payable": false,
      "stateMutability": "view",
      "type": "function"
    },
    {
      "constant": true,
      "inputs": [],
      "name": "timestamp",
      "outputs": [
        {
          "name": "",
          "type": "uint256"
        }
      ],
      "payable": false,
      "stateMutability": "view",
      "type": "function"
    },
    {
      "inputs": [
        {
          "name": "_timeline",
          "type": "bytes"
        }
      ],
      "payable": false,
      "stateMutability": "nonpayable",
      "type": "constructor"
    },
    {
      "constant": false,
      "inputs": [
        {
          "name": "_timeline",
          "type": "bytes"
        }
      ],
      "name": "upgradeTimeline",
      "outputs": [],
      "payable": false,
      "stateMutability": "nonpayable",
      "type": "function"
    }
  ],
  "bytecode": "0x608060405234801561001057600080fd5b5060405161059f38038061059f83398101604052805142600090815560018054600160a060020a03191633600160a060020a03161790559101805190911015610167576040517f5281042700000000000000000000000000000000000000000000000000000000815260206004820181815283516024840152835173__IbaseLib______________________________9363528104279386939283926044019185019080838360005b838110156100d15781810151838201526020016100b9565b50505050905090810190601f1680156100fe5780820380516001836020036101000a031916815260200191505b509250505060206040518083038186803b15801561011b57600080fd5b505af415801561012f573d6000803e3d6000fd5b505050506040513d602081101561014557600080fd5b505160028054600160a060020a031916600160a060020a039092169190911790555b50610428806101776000396000f3006080604052600436106100775763ffffffff7c010000000000000000000000000000000000000000000000000000000060003504166317a5410b811461007c57806341c0e1b5146100ad57806352effe11146100c45780638da5cb5b146100e5578063b80777ea146100fa578063f634541414610121575b600080fd5b34801561008857600080fd5b5061009161017a565b60408051600160a060020a039092168252519081900360200190f35b3480156100b957600080fd5b506100c2610189565b005b3480156100d057600080fd5b506100c2600160a060020a03600435166101b2565b3480156100f157600080fd5b50610091610211565b34801561010657600080fd5b5061010f610220565b60408051918252519081900360200190f35b34801561012d57600080fd5b506040805160206004803580820135601f81018490048402850184019095528484526100c29436949293602493928401919081908401838280828437509497506102269650505050505050565b600254600160a060020a031681565b60015433600160a060020a039081169116146101a457600080fd5b600154600160a060020a0316ff5b60015433600160a060020a039081169116146101cd57600080fd5b600160a060020a03811615156101e257600080fd5b6001805473ffffffffffffffffffffffffffffffffffffffff1916600160a060020a0392909216919091179055565b600154600160a060020a031681565b60005481565b60015460009033600160a060020a0390811691161461024457600080fd5b506002546040517f52810427000000000000000000000000000000000000000000000000000000008152602060048201818152845160248401528451600160a060020a039094169373__IbaseLib______________________________9363528104279387939283926044019185019080838360005b838110156102d25781810151838201526020016102ba565b50505050905090810190601f1680156102ff5780820380516001836020036101000a031916815260200191505b509250505060206040518083038186803b15801561031c57600080fd5b505af4158015610330573d6000803e3d6000fd5b505050506040513d602081101561034657600080fd5b50516002805473ffffffffffffffffffffffffffffffffffffffff1916600160a060020a039283161790558116156103f857600254604080517f0900f010000000000000000000000000000000000000000000000000000000008152600160a060020a039283166004820152905191831691630900f0109160248082019260009290919082900301818387803b1580156103df57600080fd5b505af11580156103f3573d6000803e3d6000fd5b505050505b50505600a165627a7a72305820f7314bee913c068989e687d30ad34ad6097a39d705d71ddba21b7e573dc2c7400029",
  "source": "pragma solidity ^0.4.17;\n\nimport \"../base/IbaseLib.sol\";\nimport \"../base/owned.sol\";\nimport \"../base/timestamped.sol\";\nimport \"../base/mortal.sol\";\nimport \"../timeline/Timeline.sol\";\n\n/**\n * Base contract for representing a Timeline based chain asset.\n *\n * Copyright (c) 2018 Cognate, Inc.\n */\ncontract Asset is timestamped, owned(msg.sender), mortal {\n    Timeline public timeline;\n\n    constructor(bytes _timeline) public {\n        if (_timeline.length > 0) {\n            timeline = Timeline(IbaseLib.createContractFromBytes(_timeline));\n        }\n    }\n\n    /**\n     * Upgrade the controlling timeline of this trademark smart asset.\n     */\n    function upgradeTimeline(bytes _timeline) public onlyOwner {\n        Timeline previous = timeline;\n        timeline = Timeline(IbaseLib.createContractFromBytes(_timeline));\n\n        if(previous != address(0)) {\n            previous.upgrade(timeline);\n        }\n    }\n}",
  "sourcePath": "/Users/cmurdock/Cog/cog-asset/contracts/asset/Asset.sol",
  "compiler": {
    "name": "solc",
    "version": "0.4.23+commit.124ca40d.Emscripten.clang"
  },
  "schemaVersion": "2.0.0",
  "updatedAt": "2018-05-21T16:36:25.359Z"
}