{
  "contractName": "Assignment",
  "abi": [
    {
      "constant": true,
      "inputs": [],
      "name": "firstName",
      "outputs": [
        {
          "name": "",
          "type": "string"
        }
      ],
      "payable": false,
      "stateMutability": "view",
      "type": "function"
    },
    {
      "constant": true,
      "inputs": [],
      "name": "prev",
      "outputs": [
        {
          "name": "",
          "type": "address"
        }
      ],
      "payable": false,
      "stateMutability": "view",
      "type": "function"
    },
    {
      "constant": true,
      "inputs": [],
      "name": "next",
      "outputs": [
        {
          "name": "",
          "type": "address"
        }
      ],
      "payable": false,
      "stateMutability": "view",
      "type": "function"
    },
    {
      "constant": false,
      "inputs": [
        {
          "name": "_owner",
          "type": "address"
        }
      ],
      "name": "transferOwnershipTo",
      "outputs": [],
      "payable": false,
      "stateMutability": "nonpayable",
      "type": "function"
    },
    {
      "constant": false,
      "inputs": [
        {
          "name": "prev",
          "type": "address"
        }
      ],
      "name": "setPrev",
      "outputs": [],
      "payable": false,
      "stateMutability": "nonpayable",
      "type": "function"
    },
    {
      "constant": true,
      "inputs": [],
      "name": "owner",
      "outputs": [
        {
          "name": "",
          "type": "address"
        }
      ],
      "payable": false,
      "stateMutability": "view",
      "type": "function"
    },
    {
      "constant": true,
      "inputs": [],
      "name": "lastName",
      "outputs": [
        {
          "name": "",
          "type": "string"
        }
      ],
      "payable": false,
      "stateMutability": "view",
      "type": "function"
    },
    {
      "constant": false,
      "inputs": [
        {
          "name": "next",
          "type": "address"
        }
      ],
      "name": "setNext",
      "outputs": [],
      "payable": false,
      "stateMutability": "nonpayable",
      "type": "function"
    },
    {
      "constant": true,
      "inputs": [],
      "name": "timestamp",
      "outputs": [
        {
          "name": "",
          "type": "uint256"
        }
      ],
      "payable": false,
      "stateMutability": "view",
      "type": "function"
    },
    {
      "constant": true,
      "inputs": [],
      "name": "interfaceID",
      "outputs": [
        {
          "name": "",
          "type": "bytes32"
        }
      ],
      "payable": false,
      "stateMutability": "view",
      "type": "function"
    },
    {
      "constant": true,
      "inputs": [],
      "name": "companyName",
      "outputs": [
        {
          "name": "",
          "type": "string"
        }
      ],
      "payable": false,
      "stateMutability": "view",
      "type": "function"
    },
    {
      "inputs": [
        {
          "name": "_firstName",
          "type": "string"
        },
        {
          "name": "_lastName",
          "type": "string"
        },
        {
          "name": "_companyName",
          "type": "string"
        }
      ],
      "payable": false,
      "stateMutability": "nonpayable",
      "type": "constructor"
    }
  ],
  "bytecode": "0x608060405234801561001057600080fd5b506040516106ea3803806106ea83398101604090815281516020808401519284015160008054600160a060020a03191633600160a060020a0316179055426001557f79056e9bb24f897d7f885dacdb2d506599944c0cdfd6b7495eb7f3ea624ac5af6002559184018051909493840193929092019161009591600591908601906100c6565b5081516100a99060069060208501906100c6565b5080516100bd9060079060208401906100c6565b50505050610161565b828054600181600116156101000203166002900490600052602060002090601f016020900481019282601f1061010757805160ff1916838001178555610134565b82800160010185558215610134579182015b82811115610134578251825591602001919060010190610119565b50610140929150610144565b5090565b61015e91905b80821115610140576000815560010161014a565b90565b61057a806101706000396000f3006080604052600436106100ae5763ffffffff7c01000000000000000000000000000000000000000000000000000000006000350416634589fe0c81146100b3578063479c92541461013d5780634c8fe5261461016e57806352effe11146101835780638c1bb2a4146101a65780638da5cb5b146101c75780639ab03dcb146101dc578063b2b2b44d146101f1578063b80777ea14610212578063ba19322d14610239578063f5ec2eed1461024e575b600080fd5b3480156100bf57600080fd5b506100c8610263565b6040805160208082528351818301528351919283929083019185019080838360005b838110156101025781810151838201526020016100ea565b50505050905090810190601f16801561012f5780820380516001836020036101000a031916815260200191505b509250505060405180910390f35b34801561014957600080fd5b506101526102f1565b60408051600160a060020a039092168252519081900360200190f35b34801561017a57600080fd5b50610152610300565b34801561018f57600080fd5b506101a4600160a060020a036004351661030f565b005b3480156101b257600080fd5b506101a4600160a060020a036004351661036e565b3480156101d357600080fd5b50610152610403565b3480156101e857600080fd5b506100c8610412565b3480156101fd57600080fd5b506101a4600160a060020a036004351661046d565b34801561021e57600080fd5b506102276104e7565b60408051918252519081900360200190f35b34801561024557600080fd5b506102276104ed565b34801561025a57600080fd5b506100c86104f3565b6005805460408051602060026001851615610100026000190190941693909304601f810184900484028201840190925281815292918301828280156102e95780601f106102be576101008083540402835291602001916102e9565b820191906000526020600020905b8154815290600101906020018083116102cc57829003601f168201915b505050505081565b600454600160a060020a031690565b600354600160a060020a031690565b60005433600160a060020a0390811691161461032a57600080fd5b600160a060020a038116151561033f57600080fd5b6000805473ffffffffffffffffffffffffffffffffffffffff1916600160a060020a0392909216919091179055565b604080517f4df23ab100000000000000000000000000000000000000000000000000000000815260026004820152600160a060020a0383166024820152905173__ITimelineDocumentLib__________________91634df23ab1916044808301926000929190829003018186803b1580156103e857600080fd5b505af41580156103fc573d6000803e3d6000fd5b5050505050565b600054600160a060020a031681565b6006805460408051602060026001851615610100026000190190941693909304601f810184900484028201840190925281815292918301828280156102e95780601f106102be576101008083540402835291602001916102e9565b604080517f2d637bc600000000000000000000000000000000000000000000000000000000815260026004820152600160a060020a0383166024820152905173__ITimelineDocumentLib__________________91632d637bc6916044808301926000929190829003018186803b1580156103e857600080fd5b60015481565b60025490565b6007805460408051602060026001851615610100026000190190941693909304601f810184900484028201840190925281815292918301828280156102e95780601f106102be576101008083540402835291602001916102e95600a165627a7a723058204384a97b3e4a1087a431586bbf8e1c80d165a2ea6aebd1aded6b2e8262ab82f70029",
  "source": "pragma solidity ^0.4.17;\n\nimport \"./TimelineDocument.sol\";\n\n/**\n * Ownership documentation or ownership change event for the\n * trademark, represented by the timeline asset to which this\n * is appended\n *\n * Copyright (c) 2017 Cognate, Inc.\n */\ncontract Assignment is TimelineDocument {\n\n    string public firstName;\n    string public lastName;\n    string public companyName;\n\n    constructor(string _firstName,  string _lastName, string _companyName) public {\n        firstName = _firstName;\n        lastName = _lastName;\n        companyName = _companyName;\n    }\n}",
  "sourcePath": "/Users/cmurdock/Cog/cog-asset/contracts/timeline/timelineDocuments/Assignment.sol",
  "compiler": {
    "name": "solc",
    "version": "0.4.23+commit.124ca40d.Emscripten.clang"
  },
  "schemaVersion": "2.0.0",
  "updatedAt": "2018-05-21T16:36:25.365Z"
}