{
  "contractName": "baseLib",
  "abi": [
    {
      "constant": false,
      "inputs": [
        {
          "name": "code",
          "type": "bytes"
        }
      ],
      "name": "createContractFromBytes",
      "outputs": [
        {
          "name": "newContract",
          "type": "address"
        }
      ],
      "payable": false,
      "stateMutability": "nonpayable",
      "type": "function"
    }
  ],
  "bytecode": "0x610140610030600b82828239805160001a6073146000811461002057610022565bfe5b5030600052607381538281f30073000000000000000000000000000000000000000030146080604052600436106100575763ffffffff7c010000000000000000000000000000000000000000000000000000000060003504166352810427811461005c575b600080fd5b81801561006857600080fd5b506040805160206004803580820135601f81018490048402850184019095528484526100b59436949293602493928401919081908401838280828437509497506100de9650505050505050565b6040805173ffffffffffffffffffffffffffffffffffffffff9092168252519081900360200190f35b600081518201602083016000f0905073ffffffffffffffffffffffffffffffffffffffff8116151561010f57600080fd5b9190505600a165627a7a72305820aba214c8af39abee96bd7d8c1668493f55a0d761bd733733c2c6d5ae91a183d20029",
  "source": "pragma solidity ^0.4.17;\n\nimport \"./IbaseLib.sol\";\n\n/**\n * IbaseLib implementation v1.0\n *\n * Copyright (c) 2017 Cognate, Inc.\n */\nlibrary baseLib {\n\n    function createContractFromBytes(bytes memory code) public  returns (address newContract) {\n        /* solium-disable-next-line */\n        assembly {\n            newContract := create(0, add(code, 32), add(code, mload(code)))\n        }\n        require(newContract != address(0));\n    }\n}",
  "sourcePath": "/Users/cmurdock/Cog/cog-asset/contracts/base/baseLib.sol",
  "compiler": {
    "name": "solc",
    "version": "0.4.23+commit.124ca40d.Emscripten.clang"
  },
  "schemaVersion": "2.0.0",
  "updatedAt": "2018-05-21T16:36:25.361Z"
}