{
  "contractName": "CertifierLib",
  "abi": [
    {
      "constant": false,
      "inputs": [
        {
          "name": "self",
          "type": "CertifierLib.Certifier storage"
        },
        {
          "name": "proof",
          "type": "bytes"
        }
      ],
      "name": "createProof",
      "outputs": [],
      "payable": false,
      "stateMutability": "nonpayable",
      "type": "function"
    },
    {
      "constant": false,
      "inputs": [
        {
          "name": "self",
          "type": "CertifierLib.Certifier storage"
        },
        {
          "name": "proof",
          "type": "TimelineDocument"
        }
      ],
      "name": "addProof",
      "outputs": [],
      "payable": false,
      "stateMutability": "nonpayable",
      "type": "function"
    },
    {
      "constant": false,
      "inputs": [
        {
          "name": "self",
          "type": "CertifierLib.Certifier storage"
        }
      ],
      "name": "selectCertifiers",
      "outputs": [],
      "payable": false,
      "stateMutability": "nonpayable",
      "type": "function"
    }
  ],
  "bytecode": "0x6102a1610030600b82828239805160001a6073146000811461002057610022565bfe5b5030600052607381538281f300730000000000000000000000000000000000000000301460806040526004361061006d5763ffffffff7c01000000000000000000000000000000000000000000000000000000006000350416635bb06c9d8114610072578063a3b3c0621461008c578063cfe438bd146100ea575b600080fd5b81801561007e57600080fd5b5061008a60043561011b565b005b81801561009857600080fd5b5060408051602060046024803582810135601f810185900485028601850190965285855261008a95833595369560449491939091019190819084018382808284375094975061011e9650505050505050565b8180156100f657600080fd5b5061008a60043573ffffffffffffffffffffffffffffffffffffffff60243516610223565b50565b6040517f5281042700000000000000000000000000000000000000000000000000000000815260206004820181815283516024840152835161021f93869373__IbaseLib______________________________93635281042793889391928392604401919085019080838360005b838110156101a457818101518382015260200161018c565b50505050905090810190601f1680156101d15780820380516001836020036101000a031916815260200191505b509250505060206040518083038186803b1580156101ee57600080fd5b505af4158015610202573d6000803e3d6000fd5b505050506040513d602081101561021857600080fd5b5051610223565b5050565b60029190910180546001810182556000918252602090912001805473ffffffffffffffffffffffffffffffffffffffff191673ffffffffffffffffffffffffffffffffffffffff9092169190911790555600a165627a7a7230582026cbadc7785f8256d1a47dc951ad777a8d15cb16d305f6f3a337017a47ad9da90029",
  "source": "pragma solidity ^0.4.8;\n\nimport \"../base/IbaseLib.sol\";\nimport \"../timeline/TimelineLib.sol\";\nimport \"../timeline/Timeline.sol\";\nimport \"../timeline/timelineDocuments/TimelineDocument.sol\";\n\n/**\n * TODO\n *\n * Copyright (c) 2017 Cognate, Inc.\n */\nlibrary CertifierLib {\n    using IbaseLib for bytes;\n    \n    struct Certifier {\n        Timeline timeline;\n        TimelineDocument claim;\n        TimelineDocument[] proofs;\n        address[] certifiers;\n    }\n\n    function createProof(Certifier storage self, bytes proof) {\n        addProof(self, TimelineDocument(proof.createContractFromBytes()));\n    }\n\n    function addProof(Certifier storage self, TimelineDocument proof) {\n        self.proofs.push(proof);\n    }\n\n    /**\n     * Selects the certifiers to participate in this instance of the certification protocol\n     */\n    function selectCertifiers(Certifier storage self) {}\n}",
  "sourcePath": "/Users/cmurdock/Cog/cog-asset/contracts/protocol/CertifierLib.sol",
  "compiler": {
    "name": "solc",
    "version": "0.4.23+commit.124ca40d.Emscripten.clang"
  },
  "schemaVersion": "2.0.0",
  "updatedAt": "2018-05-21T16:36:25.362Z"
}