{
  "contractName": "CertifiableTimelineDocument",
  "abi": [
    {
      "constant": true,
      "inputs": [],
      "name": "certifier",
      "outputs": [
        {
          "name": "",
          "type": "address"
        }
      ],
      "payable": false,
      "stateMutability": "view",
      "type": "function"
    },
    {
      "constant": true,
      "inputs": [],
      "name": "prev",
      "outputs": [
        {
          "name": "",
          "type": "address"
        }
      ],
      "payable": false,
      "stateMutability": "view",
      "type": "function"
    },
    {
      "constant": true,
      "inputs": [],
      "name": "next",
      "outputs": [
        {
          "name": "",
          "type": "address"
        }
      ],
      "payable": false,
      "stateMutability": "view",
      "type": "function"
    },
    {
      "constant": false,
      "inputs": [
        {
          "name": "_owner",
          "type": "address"
        }
      ],
      "name": "transferOwnershipTo",
      "outputs": [],
      "payable": false,
      "stateMutability": "nonpayable",
      "type": "function"
    },
    {
      "constant": false,
      "inputs": [
        {
          "name": "prev",
          "type": "address"
        }
      ],
      "name": "setPrev",
      "outputs": [],
      "payable": false,
      "stateMutability": "nonpayable",
      "type": "function"
    },
    {
      "constant": true,
      "inputs": [],
      "name": "owner",
      "outputs": [
        {
          "name": "",
          "type": "address"
        }
      ],
      "payable": false,
      "stateMutability": "view",
      "type": "function"
    },
    {
      "constant": false,
      "inputs": [
        {
          "name": "next",
          "type": "address"
        }
      ],
      "name": "setNext",
      "outputs": [],
      "payable": false,
      "stateMutability": "nonpayable",
      "type": "function"
    },
    {
      "constant": true,
      "inputs": [],
      "name": "timestamp",
      "outputs": [
        {
          "name": "",
          "type": "uint256"
        }
      ],
      "payable": false,
      "stateMutability": "view",
      "type": "function"
    },
    {
      "constant": true,
      "inputs": [],
      "name": "interfaceID",
      "outputs": [
        {
          "name": "",
          "type": "bytes32"
        }
      ],
      "payable": false,
      "stateMutability": "view",
      "type": "function"
    },
    {
      "constant": false,
      "inputs": [],
      "name": "updateCertifier",
      "outputs": [],
      "payable": false,
      "stateMutability": "nonpayable",
      "type": "function"
    }
  ],
  "bytecode": "0x608060405260008054600160a060020a033316600160a060020a0319909116179055426001557f79056e9bb24f897d7f885dacdb2d506599944c0cdfd6b7495eb7f3ea624ac5af6002556103da806100586000396000f3006080604052600436106100a35763ffffffff7c0100000000000000000000000000000000000000000000000000000000600035041663120c7efd81146100a857806319b80324146100d9578063479c9254146100f05780634c8fe5261461010557806352effe111461011a5780638c1bb2a41461013b5780638da5cb5b1461015c578063b2b2b44d14610171578063b80777ea14610192578063ba19322d146101b9575b600080fd5b3480156100b457600080fd5b506100bd6101ce565b60408051600160a060020a039092168252519081900360200190f35b3480156100e557600080fd5b506100ee6101dd565b005b3480156100fc57600080fd5b506100bd610207565b34801561011157600080fd5b506100bd610216565b34801561012657600080fd5b506100ee600160a060020a0360043516610225565b34801561014757600080fd5b506100ee600160a060020a0360043516610284565b34801561016857600080fd5b506100bd610319565b34801561017d57600080fd5b506100ee600160a060020a0360043516610328565b34801561019e57600080fd5b506101a76103a2565b60408051918252519081900360200190f35b3480156101c557600080fd5b506101a76103a8565b600554600160a060020a031681565b6005805473ffffffffffffffffffffffffffffffffffffffff191633600160a060020a0316179055565b600454600160a060020a031690565b600354600160a060020a031690565b60005433600160a060020a0390811691161461024057600080fd5b600160a060020a038116151561025557600080fd5b6000805473ffffffffffffffffffffffffffffffffffffffff1916600160a060020a0392909216919091179055565b604080517f4df23ab100000000000000000000000000000000000000000000000000000000815260026004820152600160a060020a0383166024820152905173__ITimelineDocumentLib__________________91634df23ab1916044808301926000929190829003018186803b1580156102fe57600080fd5b505af4158015610312573d6000803e3d6000fd5b5050505050565b600054600160a060020a031681565b604080517f2d637bc600000000000000000000000000000000000000000000000000000000815260026004820152600160a060020a0383166024820152905173__ITimelineDocumentLib__________________91632d637bc6916044808301926000929190829003018186803b1580156102fe57600080fd5b60015481565b600254905600a165627a7a723058203f293e10069a11eece2cfb80505790614b80b3a81a50790b015243e490125f290029",
  "source": "pragma solidity ^0.4.17;\n\nimport \"./TimelineDocument.sol\";\n\n/**\n * A TimelineDocument that has the ability to store a certifier address\n * indicating that it has been certified by accredited parties that the\n * document is accurate in it's intentions.\n *\n * Copyright (c) 2017 Cognate, Inc.\n */\ncontract CertifiableTimelineDocument is TimelineDocument {\n    address public certifier;\n\n    function updateCertifier() public {//onlyOwner {\n        certifier = msg.sender;\n    }\n}",
  "sourcePath": "/Users/cmurdock/Cog/cog-asset/contracts/timeline/timelineDocuments/CertifiableTimelineDocument.sol",
  "compiler": {
    "name": "solc",
    "version": "0.4.23+commit.124ca40d.Emscripten.clang"
  },
  "schemaVersion": "2.0.0",
  "updatedAt": "2018-05-21T16:36:25.366Z"
}