{
  "contractName": "Claim",
  "abi": [
    {
      "constant": true,
      "inputs": [],
      "name": "prev",
      "outputs": [
        {
          "name": "",
          "type": "address"
        }
      ],
      "payable": false,
      "stateMutability": "view",
      "type": "function"
    },
    {
      "constant": true,
      "inputs": [],
      "name": "next",
      "outputs": [
        {
          "name": "",
          "type": "address"
        }
      ],
      "payable": false,
      "stateMutability": "view",
      "type": "function"
    },
    {
      "constant": false,
      "inputs": [
        {
          "name": "_owner",
          "type": "address"
        }
      ],
      "name": "transferOwnershipTo",
      "outputs": [],
      "payable": false,
      "stateMutability": "nonpayable",
      "type": "function"
    },
    {
      "constant": false,
      "inputs": [
        {
          "name": "prev",
          "type": "address"
        }
      ],
      "name": "setPrev",
      "outputs": [],
      "payable": false,
      "stateMutability": "nonpayable",
      "type": "function"
    },
    {
      "constant": true,
      "inputs": [],
      "name": "owner",
      "outputs": [
        {
          "name": "",
          "type": "address"
        }
      ],
      "payable": false,
      "stateMutability": "view",
      "type": "function"
    },
    {
      "constant": false,
      "inputs": [
        {
          "name": "next",
          "type": "address"
        }
      ],
      "name": "setNext",
      "outputs": [],
      "payable": false,
      "stateMutability": "nonpayable",
      "type": "function"
    },
    {
      "constant": true,
      "inputs": [],
      "name": "timestamp",
      "outputs": [
        {
          "name": "",
          "type": "uint256"
        }
      ],
      "payable": false,
      "stateMutability": "view",
      "type": "function"
    },
    {
      "constant": true,
      "inputs": [],
      "name": "interfaceID",
      "outputs": [
        {
          "name": "",
          "type": "bytes32"
        }
      ],
      "payable": false,
      "stateMutability": "view",
      "type": "function"
    },
    {
      "constant": false,
      "inputs": [
        {
          "name": "proof",
          "type": "address"
        }
      ],
      "name": "addProof",
      "outputs": [],
      "payable": false,
      "stateMutability": "nonpayable",
      "type": "function"
    },
    {
      "constant": true,
      "inputs": [],
      "name": "proofs",
      "outputs": [
        {
          "name": "",
          "type": "address[]"
        }
      ],
      "payable": false,
      "stateMutability": "view",
      "type": "function"
    }
  ],
  "bytecode": "0x608060405260008054600160a060020a033316600160a060020a0319909116179055426001557f79056e9bb24f897d7f885dacdb2d506599944c0cdfd6b7495eb7f3ea624ac5af6002556104dc806100586000396000f3006080604052600436106100a35763ffffffff7c0100000000000000000000000000000000000000000000000000000000600035041663435d53f281146100a8578063479c92541461010d5780634c8fe5261461013e57806352effe11146101535780638c1bb2a4146101765780638da5cb5b14610197578063b2b2b44d146101ac578063b80777ea146101cd578063ba19322d146101f4578063ec3d670c14610209575b600080fd5b3480156100b457600080fd5b506100bd61022a565b60408051602080825283518183015283519192839290830191858101910280838360005b838110156100f95781810151838201526020016100e1565b505050509050019250505060405180910390f35b34801561011957600080fd5b5061012261028f565b60408051600160a060020a039092168252519081900360200190f35b34801561014a57600080fd5b5061012261029e565b34801561015f57600080fd5b50610174600160a060020a03600435166102ad565b005b34801561018257600080fd5b50610174600160a060020a036004351661030c565b3480156101a357600080fd5b506101226103a1565b3480156101b857600080fd5b50610174600160a060020a03600435166103b0565b3480156101d957600080fd5b506101e261042a565b60408051918252519081900360200190f35b34801561020057600080fd5b506101e2610430565b34801561021557600080fd5b50610174600160a060020a0360043516610436565b6060600560000180548060200260200160405190810160405280929190818152602001828054801561028557602002820191906000526020600020905b8154600160a060020a03168152600190910190602001808311610267575b5050505050905090565b600454600160a060020a031690565b600354600160a060020a031690565b60005433600160a060020a039081169116146102c857600080fd5b600160a060020a03811615156102dd57600080fd5b6000805473ffffffffffffffffffffffffffffffffffffffff1916600160a060020a0392909216919091179055565b604080517f4df23ab100000000000000000000000000000000000000000000000000000000815260026004820152600160a060020a0383166024820152905173__ITimelineDocumentLib__________________91634df23ab1916044808301926000929190829003018186803b15801561038657600080fd5b505af415801561039a573d6000803e3d6000fd5b5050505050565b600054600160a060020a031681565b604080517f2d637bc600000000000000000000000000000000000000000000000000000000815260026004820152600160a060020a0383166024820152905173__ITimelineDocumentLib__________________91632d637bc6916044808301926000929190829003018186803b15801561038657600080fd5b60015481565b60025490565b604080517f427221c100000000000000000000000000000000000000000000000000000000815260056004820152600160a060020a0383166024820152905173__ITimelineDocumentLib__________________9163427221c1916044808301926000929190829003018186803b15801561038657600080fd00a165627a7a723058208e56ac21f0bbed546c11da4f8df1864acde17a9ca469798760a2ce32d57175300029",
  "source": "pragma solidity ^0.4.17;\n\nimport \"./TimelineDocument.sol\";\n\n/**\n * A TimelineDocument that requires proof to backup the claim\n * of the data and intention of that document. Proof is represented\n * by the addresses of other contracts that store the proof documentation.\n *\n * Copyright (c) 2017 Cognate, Inc.\n */\ncontract Claim is TimelineDocument {\n    using ITimelineDocumentLib for ITimelineDocumentLib.ClaimStorage;\n\n    ITimelineDocumentLib.ClaimStorage claim;\n\n    // calls ITimelineDocumentLib.addProof()\n    function addProof(address proof) public {\n        claim.addProof(proof);\n    }\n\n\n    // Getters\n    //--------\n\n    function proofs() public view returns (address[]) {\n        return claim._proofs;\n    }\n}",
  "sourcePath": "/Users/cmurdock/Cog/cog-asset/contracts/timeline/timelineDocuments/Claim.sol",
  "compiler": {
    "name": "solc",
    "version": "0.4.23+commit.124ca40d.Emscripten.clang"
  },
  "schemaVersion": "2.0.0",
  "updatedAt": "2018-05-21T16:36:25.366Z"
}