{
  "contractName": "Classification",
  "abi": [
    {
      "constant": true,
      "inputs": [],
      "name": "proofs",
      "outputs": [
        {
          "name": "",
          "type": "address[]"
        }
      ],
      "payable": false,
      "stateMutability": "view",
      "type": "function"
    },
    {
      "constant": true,
      "inputs": [],
      "name": "prev",
      "outputs": [
        {
          "name": "",
          "type": "address"
        }
      ],
      "payable": false,
      "stateMutability": "view",
      "type": "function"
    },
    {
      "constant": true,
      "inputs": [],
      "name": "next",
      "outputs": [
        {
          "name": "",
          "type": "address"
        }
      ],
      "payable": false,
      "stateMutability": "view",
      "type": "function"
    },
    {
      "constant": false,
      "inputs": [
        {
          "name": "_owner",
          "type": "address"
        }
      ],
      "name": "transferOwnershipTo",
      "outputs": [],
      "payable": false,
      "stateMutability": "nonpayable",
      "type": "function"
    },
    {
      "constant": true,
      "inputs": [],
      "name": "details",
      "outputs": [
        {
          "name": "",
          "type": "string"
        }
      ],
      "payable": false,
      "stateMutability": "view",
      "type": "function"
    },
    {
      "constant": true,
      "inputs": [],
      "name": "classOfGoods",
      "outputs": [
        {
          "name": "",
          "type": "uint8"
        }
      ],
      "payable": false,
      "stateMutability": "view",
      "type": "function"
    },
    {
      "constant": false,
      "inputs": [
        {
          "name": "prev",
          "type": "address"
        }
      ],
      "name": "setPrev",
      "outputs": [],
      "payable": false,
      "stateMutability": "nonpayable",
      "type": "function"
    },
    {
      "constant": true,
      "inputs": [],
      "name": "owner",
      "outputs": [
        {
          "name": "",
          "type": "address"
        }
      ],
      "payable": false,
      "stateMutability": "view",
      "type": "function"
    },
    {
      "constant": false,
      "inputs": [
        {
          "name": "next",
          "type": "address"
        }
      ],
      "name": "setNext",
      "outputs": [],
      "payable": false,
      "stateMutability": "nonpayable",
      "type": "function"
    },
    {
      "constant": true,
      "inputs": [],
      "name": "timestamp",
      "outputs": [
        {
          "name": "",
          "type": "uint256"
        }
      ],
      "payable": false,
      "stateMutability": "view",
      "type": "function"
    },
    {
      "constant": true,
      "inputs": [],
      "name": "interfaceID",
      "outputs": [
        {
          "name": "",
          "type": "bytes32"
        }
      ],
      "payable": false,
      "stateMutability": "view",
      "type": "function"
    },
    {
      "constant": false,
      "inputs": [
        {
          "name": "proof",
          "type": "address"
        }
      ],
      "name": "addProof",
      "outputs": [],
      "payable": false,
      "stateMutability": "nonpayable",
      "type": "function"
    },
    {
      "inputs": [
        {
          "name": "_classOfGoods",
          "type": "uint8"
        },
        {
          "name": "_details",
          "type": "string"
        }
      ],
      "payable": false,
      "stateMutability": "nonpayable",
      "type": "constructor"
    }
  ],
  "bytecode": "0x608060405234801561001057600080fd5b5060405161078738038061078783398101604052805160208083015160008054600160a060020a03191633600160a060020a0316179055426001557f79056e9bb24f897d7f885dacdb2d506599944c0cdfd6b7495eb7f3ea624ac5af6002556006805460ff191660ff8516179055909201805191929091610097916007919084019061009f565b50505061013a565b828054600181600116156101000203166002900490600052602060002090601f016020900481019282601f106100e057805160ff191683800117855561010d565b8280016001018555821561010d579182015b8281111561010d5782518255916020019190600101906100f2565b5061011992915061011d565b5090565b61013791905b808211156101195760008155600101610123565b90565b61063e806101496000396000f3006080604052600436106100b95763ffffffff7c0100000000000000000000000000000000000000000000000000000000600035041663435d53f281146100be578063479c9254146101235780634c8fe5261461015457806352effe1114610169578063565974d31461018c5780638a7be8e5146102165780638c1bb2a4146102415780638da5cb5b14610262578063b2b2b44d14610277578063b80777ea14610298578063ba19322d146102bf578063ec3d670c146102d4575b600080fd5b3480156100ca57600080fd5b506100d36102f5565b60408051602080825283518183015283519192839290830191858101910280838360005b8381101561010f5781810151838201526020016100f7565b505050509050019250505060405180910390f35b34801561012f57600080fd5b5061013861035a565b60408051600160a060020a039092168252519081900360200190f35b34801561016057600080fd5b50610138610369565b34801561017557600080fd5b5061018a600160a060020a0360043516610378565b005b34801561019857600080fd5b506101a16103d7565b6040805160208082528351818301528351919283929083019185019080838360005b838110156101db5781810151838201526020016101c3565b50505050905090810190601f1680156102085780820380516001836020036101000a031916815260200191505b509250505060405180910390f35b34801561022257600080fd5b5061022b610465565b6040805160ff9092168252519081900360200190f35b34801561024d57600080fd5b5061018a600160a060020a036004351661046e565b34801561026e57600080fd5b50610138610503565b34801561028357600080fd5b5061018a600160a060020a0360043516610512565b3480156102a457600080fd5b506102ad61058c565b60408051918252519081900360200190f35b3480156102cb57600080fd5b506102ad610592565b3480156102e057600080fd5b5061018a600160a060020a0360043516610598565b6060600560000180548060200260200160405190810160405280929190818152602001828054801561035057602002820191906000526020600020905b8154600160a060020a03168152600190910190602001808311610332575b5050505050905090565b600454600160a060020a031690565b600354600160a060020a031690565b60005433600160a060020a0390811691161461039357600080fd5b600160a060020a03811615156103a857600080fd5b6000805473ffffffffffffffffffffffffffffffffffffffff1916600160a060020a0392909216919091179055565b6007805460408051602060026001851615610100026000190190941693909304601f8101849004840282018401909252818152929183018282801561045d5780601f106104325761010080835404028352916020019161045d565b820191906000526020600020905b81548152906001019060200180831161044057829003601f168201915b505050505081565b60065460ff1681565b604080517f4df23ab100000000000000000000000000000000000000000000000000000000815260026004820152600160a060020a0383166024820152905173__ITimelineDocumentLib__________________91634df23ab1916044808301926000929190829003018186803b1580156104e857600080fd5b505af41580156104fc573d6000803e3d6000fd5b5050505050565b600054600160a060020a031681565b604080517f2d637bc600000000000000000000000000000000000000000000000000000000815260026004820152600160a060020a0383166024820152905173__ITimelineDocumentLib__________________91632d637bc6916044808301926000929190829003018186803b1580156104e857600080fd5b60015481565b60025490565b604080517f427221c100000000000000000000000000000000000000000000000000000000815260056004820152600160a060020a0383166024820152905173__ITimelineDocumentLib__________________9163427221c1916044808301926000929190829003018186803b1580156104e857600080fd00a165627a7a72305820dd75dd989c87fce7e179ac4aca45afbe6f2b3948d878360df849da9cab0856170029",
  "source": "pragma solidity ^0.4.17;\n\nimport \"./Claim.sol\";\n\n/**\n * Represents a USPTO defined class of goods and associated identifications\n * describing the mark represented by the timeline asset to which this is appended.\n *\n * Copyright (c) 2017 Cognate, Inc.\n */\ncontract Classification is Claim {\n\n    uint8 public classOfGoods; // International class of goods or service\n    string public details; // class identifications\n\n    constructor(uint8 _classOfGoods, string _details) public {\n        classOfGoods = _classOfGoods;\n        details = _details;\n    }\n}",
  "sourcePath": "/Users/cmurdock/Cog/cog-asset/contracts/timeline/timelineDocuments/Classification.sol",
  "compiler": {
    "name": "solc",
    "version": "0.4.23+commit.124ca40d.Emscripten.clang"
  },
  "schemaVersion": "2.0.0",
  "updatedAt": "2018-05-21T16:36:25.366Z"
}