{
  "contractName": "Copyright",
  "abi": [
    {
      "constant": true,
      "inputs": [],
      "name": "hash",
      "outputs": [
        {
          "name": "",
          "type": "bytes32"
        }
      ],
      "payable": false,
      "stateMutability": "view",
      "type": "function"
    },
    {
      "constant": true,
      "inputs": [],
      "name": "timeline",
      "outputs": [
        {
          "name": "",
          "type": "address"
        }
      ],
      "payable": false,
      "stateMutability": "view",
      "type": "function"
    },
    {
      "constant": false,
      "inputs": [],
      "name": "kill",
      "outputs": [],
      "payable": false,
      "stateMutability": "nonpayable",
      "type": "function"
    },
    {
      "constant": true,
      "inputs": [],
      "name": "location",
      "outputs": [
        {
          "name": "",
          "type": "string"
        }
      ],
      "payable": false,
      "stateMutability": "view",
      "type": "function"
    },
    {
      "constant": false,
      "inputs": [
        {
          "name": "_owner",
          "type": "address"
        }
      ],
      "name": "transferOwnershipTo",
      "outputs": [],
      "payable": false,
      "stateMutability": "nonpayable",
      "type": "function"
    },
    {
      "constant": true,
      "inputs": [],
      "name": "owner",
      "outputs": [
        {
          "name": "",
          "type": "address"
        }
      ],
      "payable": false,
      "stateMutability": "view",
      "type": "function"
    },
    {
      "constant": true,
      "inputs": [],
      "name": "timestamp",
      "outputs": [
        {
          "name": "",
          "type": "uint256"
        }
      ],
      "payable": false,
      "stateMutability": "view",
      "type": "function"
    },
    {
      "constant": false,
      "inputs": [
        {
          "name": "_timeline",
          "type": "bytes"
        }
      ],
      "name": "upgradeTimeline",
      "outputs": [],
      "payable": false,
      "stateMutability": "nonpayable",
      "type": "function"
    },
    {
      "inputs": [
        {
          "name": "_hash",
          "type": "bytes32"
        },
        {
          "name": "_location",
          "type": "string"
        },
        {
          "name": "_timeline",
          "type": "bytes"
        }
      ],
      "payable": false,
      "stateMutability": "nonpayable",
      "type": "constructor"
    }
  ],
  "bytecode": "0x608060405234801561001057600080fd5b506040516107b83803806107b8833981016040908152815160208301519183015142600090815560018054600160a060020a03191633600160a060020a0316179055908401805192949390930192918291101561017b576040517f5281042700000000000000000000000000000000000000000000000000000000815260206004820181815283516024840152835173__IbaseLib______________________________9363528104279386939283926044019185019080838360005b838110156100e55781810151838201526020016100cd565b50505050905090810190601f1680156101125780820380516001836020036101000a031916815260200191505b509250505060206040518083038186803b15801561012f57600080fd5b505af4158015610143573d6000803e3d6000fd5b505050506040513d602081101561015957600080fd5b505160028054600160a060020a031916600160a060020a039092169190911790555b506003839055815161019490600490602085019061019d565b50505050610238565b828054600181600116156101000203166002900490600052602060002090601f016020900481019282601f106101de57805160ff191683800117855561020b565b8280016001018555821561020b579182015b8281111561020b5782518255916020019190600101906101f0565b5061021792915061021b565b5090565b61023591905b808211156102175760008155600101610221565b90565b610571806102476000396000f30060806040526004361061008d5763ffffffff7c010000000000000000000000000000000000000000000000000000000060003504166309bd5a60811461009257806317a5410b146100b957806341c0e1b5146100ea578063516f279e1461010157806352effe111461018b5780638da5cb5b146101ac578063b80777ea146101c1578063f6345414146101d6575b600080fd5b34801561009e57600080fd5b506100a761022f565b60408051918252519081900360200190f35b3480156100c557600080fd5b506100ce610235565b60408051600160a060020a039092168252519081900360200190f35b3480156100f657600080fd5b506100ff610244565b005b34801561010d57600080fd5b5061011661026d565b6040805160208082528351818301528351919283929083019185019080838360005b83811015610150578181015183820152602001610138565b50505050905090810190601f16801561017d5780820380516001836020036101000a031916815260200191505b509250505060405180910390f35b34801561019757600080fd5b506100ff600160a060020a03600435166102fb565b3480156101b857600080fd5b506100ce61035a565b3480156101cd57600080fd5b506100a7610369565b3480156101e257600080fd5b506040805160206004803580820135601f81018490048402850184019095528484526100ff94369492936024939284019190819084018382808284375094975061036f9650505050505050565b60035481565b600254600160a060020a031681565b60015433600160a060020a0390811691161461025f57600080fd5b600154600160a060020a0316ff5b6004805460408051602060026001851615610100026000190190941693909304601f810184900484028201840190925281815292918301828280156102f35780601f106102c8576101008083540402835291602001916102f3565b820191906000526020600020905b8154815290600101906020018083116102d657829003601f168201915b505050505081565b60015433600160a060020a0390811691161461031657600080fd5b600160a060020a038116151561032b57600080fd5b6001805473ffffffffffffffffffffffffffffffffffffffff1916600160a060020a0392909216919091179055565b600154600160a060020a031681565b60005481565b60015460009033600160a060020a0390811691161461038d57600080fd5b506002546040517f52810427000000000000000000000000000000000000000000000000000000008152602060048201818152845160248401528451600160a060020a039094169373__IbaseLib______________________________9363528104279387939283926044019185019080838360005b8381101561041b578181015183820152602001610403565b50505050905090810190601f1680156104485780820380516001836020036101000a031916815260200191505b509250505060206040518083038186803b15801561046557600080fd5b505af4158015610479573d6000803e3d6000fd5b505050506040513d602081101561048f57600080fd5b50516002805473ffffffffffffffffffffffffffffffffffffffff1916600160a060020a0392831617905581161561054157600254604080517f0900f010000000000000000000000000000000000000000000000000000000008152600160a060020a039283166004820152905191831691630900f0109160248082019260009290919082900301818387803b15801561052857600080fd5b505af115801561053c573d6000803e3d6000fd5b505050505b50505600a165627a7a7230582037e9e3438833764ffb975bb112b81e9f68aaf8af739a820d77305ad5925cbb8f0029",
  "source": "pragma solidity ^0.4.17;\n\nimport \"./Asset.sol\";\n\n/**\n * Base contract for representing a Copyright chain asset.\n *\n * Copyright (c) 2018 Cognate, Inc.\n */\ncontract Copyright is Asset {\n    bytes32 public hash;\n    string public location;\n\n    constructor(bytes32 _hash, string _location, bytes _timeline) Asset(_timeline) public {\n        hash = _hash;\n        location = _location;\n    }\n}",
  "sourcePath": "/Users/cmurdock/Cog/cog-asset/contracts/asset/Copyright.sol",
  "compiler": {
    "name": "solc",
    "version": "0.4.23+commit.124ca40d.Emscripten.clang"
  },
  "schemaVersion": "2.0.0",
  "updatedAt": "2018-05-21T16:36:25.359Z"
}