{
  "contractName": "DesignMarkWithInitialProof",
  "abi": [
    {
      "constant": true,
      "inputs": [],
      "name": "timeline",
      "outputs": [
        {
          "name": "",
          "type": "address"
        }
      ],
      "payable": false,
      "stateMutability": "view",
      "type": "function"
    },
    {
      "constant": false,
      "inputs": [],
      "name": "kill",
      "outputs": [],
      "payable": false,
      "stateMutability": "nonpayable",
      "type": "function"
    },
    {
      "constant": false,
      "inputs": [
        {
          "name": "_owner",
          "type": "address"
        }
      ],
      "name": "transferOwnershipTo",
      "outputs": [],
      "payable": false,
      "stateMutability": "nonpayable",
      "type": "function"
    },
    {
      "constant": true,
      "inputs": [],
      "name": "owner",
      "outputs": [
        {
          "name": "",
          "type": "address"
        }
      ],
      "payable": false,
      "stateMutability": "view",
      "type": "function"
    },
    {
      "constant": true,
      "inputs": [],
      "name": "design",
      "outputs": [
        {
          "name": "",
          "type": "bytes32"
        }
      ],
      "payable": false,
      "stateMutability": "view",
      "type": "function"
    },
    {
      "constant": true,
      "inputs": [],
      "name": "designLocation",
      "outputs": [
        {
          "name": "",
          "type": "string"
        }
      ],
      "payable": false,
      "stateMutability": "view",
      "type": "function"
    },
    {
      "constant": true,
      "inputs": [],
      "name": "initialProofLocation",
      "outputs": [
        {
          "name": "",
          "type": "string"
        }
      ],
      "payable": false,
      "stateMutability": "view",
      "type": "function"
    },
    {
      "constant": true,
      "inputs": [],
      "name": "timestamp",
      "outputs": [
        {
          "name": "",
          "type": "uint256"
        }
      ],
      "payable": false,
      "stateMutability": "view",
      "type": "function"
    },
    {
      "constant": true,
      "inputs": [],
      "name": "initialProof",
      "outputs": [
        {
          "name": "",
          "type": "bytes32"
        }
      ],
      "payable": false,
      "stateMutability": "view",
      "type": "function"
    },
    {
      "constant": false,
      "inputs": [
        {
          "name": "_timeline",
          "type": "bytes"
        }
      ],
      "name": "upgradeTimeline",
      "outputs": [],
      "payable": false,
      "stateMutability": "nonpayable",
      "type": "function"
    },
    {
      "inputs": [
        {
          "name": "_design",
          "type": "bytes32"
        },
        {
          "name": "_designLocation",
          "type": "string"
        },
        {
          "name": "_initialProof",
          "type": "bytes32"
        },
        {
          "name": "_initialProofLocation",
          "type": "string"
        },
        {
          "name": "_timeline",
          "type": "bytes"
        }
      ],
      "payable": false,
      "stateMutability": "nonpayable",
      "type": "constructor"
    }
  ],
  "bytecode": "0x608060405234801561001057600080fd5b5060405161089338038061089383398101604090815281516020830151918301516060840151608085015142600090815560018054600160a060020a03191633600160a060020a0316179055908601805194969586019593949290930192918491849188918891869182911115610195576040517f5281042700000000000000000000000000000000000000000000000000000000815260206004820181815283516024840152835173__IbaseLib______________________________9363528104279386939283926044019185019080838360005b838110156100ff5781810151838201526020016100e7565b50505050905090810190601f16801561012c5780820380516001836020036101000a031916815260200191505b509250505060206040518083038186803b15801561014957600080fd5b505af415801561015d573d6000803e3d6000fd5b505050506040513d602081101561017357600080fd5b505160028054600160a060020a031916600160a060020a039092169190911790555b50600383905581516101ae9060049060208501906101d7565b50505060058390555080516101ca9060069060208401906101d7565b5050505050505050610272565b828054600181600116156101000203166002900490600052602060002090601f016020900481019282601f1061021857805160ff1916838001178555610245565b82800160010185558215610245579182015b8281111561024557825182559160200191906001019061022a565b50610251929150610255565b5090565b61026f91905b80821115610251576000815560010161025b565b90565b610612806102816000396000f3006080604052600436106100a35763ffffffff7c010000000000000000000000000000000000000000000000000000000060003504166317a5410b81146100a857806341c0e1b5146100d957806352effe11146100f05780638da5cb5b1461011157806393f5020614610126578063a7ed582a1461014d578063a9881c37146101d7578063b80777ea146101ec578063e015237414610201578063f634541414610216575b600080fd5b3480156100b457600080fd5b506100bd61026f565b60408051600160a060020a039092168252519081900360200190f35b3480156100e557600080fd5b506100ee61027e565b005b3480156100fc57600080fd5b506100ee600160a060020a03600435166102a7565b34801561011d57600080fd5b506100bd610306565b34801561013257600080fd5b5061013b610315565b60408051918252519081900360200190f35b34801561015957600080fd5b5061016261031b565b6040805160208082528351818301528351919283929083019185019080838360005b8381101561019c578181015183820152602001610184565b50505050905090810190601f1680156101c95780820380516001836020036101000a031916815260200191505b509250505060405180910390f35b3480156101e357600080fd5b506101626103a9565b3480156101f857600080fd5b5061013b610404565b34801561020d57600080fd5b5061013b61040a565b34801561022257600080fd5b506040805160206004803580820135601f81018490048402850184019095528484526100ee9436949293602493928401919081908401838280828437509497506104109650505050505050565b600254600160a060020a031681565b60015433600160a060020a0390811691161461029957600080fd5b600154600160a060020a0316ff5b60015433600160a060020a039081169116146102c257600080fd5b600160a060020a03811615156102d757600080fd5b6001805473ffffffffffffffffffffffffffffffffffffffff1916600160a060020a0392909216919091179055565b600154600160a060020a031681565b60035481565b6004805460408051602060026001851615610100026000190190941693909304601f810184900484028201840190925281815292918301828280156103a15780601f10610376576101008083540402835291602001916103a1565b820191906000526020600020905b81548152906001019060200180831161038457829003601f168201915b505050505081565b6006805460408051602060026001851615610100026000190190941693909304601f810184900484028201840190925281815292918301828280156103a15780601f10610376576101008083540402835291602001916103a1565b60005481565b60055481565b60015460009033600160a060020a0390811691161461042e57600080fd5b506002546040517f52810427000000000000000000000000000000000000000000000000000000008152602060048201818152845160248401528451600160a060020a039094169373__IbaseLib______________________________9363528104279387939283926044019185019080838360005b838110156104bc5781810151838201526020016104a4565b50505050905090810190601f1680156104e95780820380516001836020036101000a031916815260200191505b509250505060206040518083038186803b15801561050657600080fd5b505af415801561051a573d6000803e3d6000fd5b505050506040513d602081101561053057600080fd5b50516002805473ffffffffffffffffffffffffffffffffffffffff1916600160a060020a039283161790558116156105e257600254604080517f0900f010000000000000000000000000000000000000000000000000000000008152600160a060020a039283166004820152905191831691630900f0109160248082019260009290919082900301818387803b1580156105c957600080fd5b505af11580156105dd573d6000803e3d6000fd5b505050505b50505600a165627a7a723058208b098221dc531f83be5f103a028c3ecb363e84973dac731fbac0e9830b3115940029",
  "source": "pragma solidity ^0.4.17;\n\nimport \"./DesignMark.sol\";\nimport \"./InitialProof.sol\";\n\n/**\n * Base contract for representing a DesignMark chain asset with the initial proof of use at creation.\n *\n * Copyright (c) 2018 Cognate, Inc.\n */\ncontract DesignMarkWithInitialProof is DesignMark, InitialProof {\n    constructor(\n      bytes32 _design,\n      string _designLocation,\n      bytes32 _initialProof,\n      string _initialProofLocation,\n      bytes _timeline\n    ) DesignMark(_design, _designLocation, _timeline) InitialProof(_initialProof, _initialProofLocation) public {}\n}",
  "sourcePath": "/Users/cmurdock/Cog/cog-asset/contracts/asset/Trademarks/DesignMarkWithInitialProof.sol",
  "compiler": {
    "name": "solc",
    "version": "0.4.23+commit.124ca40d.Emscripten.clang"
  },
  "schemaVersion": "2.0.0",
  "updatedAt": "2018-05-21T16:36:25.360Z"
}