{
  "contractName": "Domain",
  "abi": [
    {
      "constant": true,
      "inputs": [],
      "name": "timeline",
      "outputs": [
        {
          "name": "",
          "type": "address"
        }
      ],
      "payable": false,
      "stateMutability": "view",
      "type": "function"
    },
    {
      "constant": false,
      "inputs": [],
      "name": "kill",
      "outputs": [],
      "payable": false,
      "stateMutability": "nonpayable",
      "type": "function"
    },
    {
      "constant": false,
      "inputs": [
        {
          "name": "_owner",
          "type": "address"
        }
      ],
      "name": "transferOwnershipTo",
      "outputs": [],
      "payable": false,
      "stateMutability": "nonpayable",
      "type": "function"
    },
    {
      "constant": true,
      "inputs": [],
      "name": "owner",
      "outputs": [
        {
          "name": "",
          "type": "address"
        }
      ],
      "payable": false,
      "stateMutability": "view",
      "type": "function"
    },
    {
      "constant": true,
      "inputs": [],
      "name": "timestamp",
      "outputs": [
        {
          "name": "",
          "type": "uint256"
        }
      ],
      "payable": false,
      "stateMutability": "view",
      "type": "function"
    },
    {
      "constant": true,
      "inputs": [],
      "name": "domain",
      "outputs": [
        {
          "name": "",
          "type": "string"
        }
      ],
      "payable": false,
      "stateMutability": "view",
      "type": "function"
    },
    {
      "constant": false,
      "inputs": [
        {
          "name": "_timeline",
          "type": "bytes"
        }
      ],
      "name": "upgradeTimeline",
      "outputs": [],
      "payable": false,
      "stateMutability": "nonpayable",
      "type": "function"
    },
    {
      "inputs": [
        {
          "name": "_domain",
          "type": "string"
        },
        {
          "name": "_timeline",
          "type": "bytes"
        }
      ],
      "payable": false,
      "stateMutability": "nonpayable",
      "type": "constructor"
    }
  ],
  "bytecode": "0x608060405234801561001057600080fd5b50604051610784380380610784833981016040528051602082015142600090815560018054600160a060020a03191633600160a060020a0316179055908301805192909301929182911015610173576040517f5281042700000000000000000000000000000000000000000000000000000000815260206004820181815283516024840152835173__IbaseLib______________________________9363528104279386939283926044019185019080838360005b838110156100dd5781810151838201526020016100c5565b50505050905090810190601f16801561010a5780820380516001836020036101000a031916815260200191505b509250505060206040518083038186803b15801561012757600080fd5b505af415801561013b573d6000803e3d6000fd5b505050506040513d602081101561015157600080fd5b505160028054600160a060020a031916600160a060020a039092169190911790555b50815161018790600390602085019061018f565b50505061022a565b828054600181600116156101000203166002900490600052602060002090601f016020900481019282601f106101d057805160ff19168380011785556101fd565b828001600101855582156101fd579182015b828111156101fd5782518255916020019190600101906101e2565b5061020992915061020d565b5090565b61022791905b808211156102095760008155600101610213565b90565b61054b806102396000396000f3006080604052600436106100825763ffffffff7c010000000000000000000000000000000000000000000000000000000060003504166317a5410b811461008757806341c0e1b5146100b857806352effe11146100cf5780638da5cb5b146100f0578063b80777ea14610105578063c2fb26a61461012c578063f6345414146101b6575b600080fd5b34801561009357600080fd5b5061009c61020f565b60408051600160a060020a039092168252519081900360200190f35b3480156100c457600080fd5b506100cd61021e565b005b3480156100db57600080fd5b506100cd600160a060020a0360043516610247565b3480156100fc57600080fd5b5061009c6102a6565b34801561011157600080fd5b5061011a6102b5565b60408051918252519081900360200190f35b34801561013857600080fd5b506101416102bb565b6040805160208082528351818301528351919283929083019185019080838360005b8381101561017b578181015183820152602001610163565b50505050905090810190601f1680156101a85780820380516001836020036101000a031916815260200191505b509250505060405180910390f35b3480156101c257600080fd5b506040805160206004803580820135601f81018490048402850184019095528484526100cd9436949293602493928401919081908401838280828437509497506103499650505050505050565b600254600160a060020a031681565b60015433600160a060020a0390811691161461023957600080fd5b600154600160a060020a0316ff5b60015433600160a060020a0390811691161461026257600080fd5b600160a060020a038116151561027757600080fd5b6001805473ffffffffffffffffffffffffffffffffffffffff1916600160a060020a0392909216919091179055565b600154600160a060020a031681565b60005481565b6003805460408051602060026001851615610100026000190190941693909304601f810184900484028201840190925281815292918301828280156103415780601f1061031657610100808354040283529160200191610341565b820191906000526020600020905b81548152906001019060200180831161032457829003601f168201915b505050505081565b60015460009033600160a060020a0390811691161461036757600080fd5b506002546040517f52810427000000000000000000000000000000000000000000000000000000008152602060048201818152845160248401528451600160a060020a039094169373__IbaseLib______________________________9363528104279387939283926044019185019080838360005b838110156103f55781810151838201526020016103dd565b50505050905090810190601f1680156104225780820380516001836020036101000a031916815260200191505b509250505060206040518083038186803b15801561043f57600080fd5b505af4158015610453573d6000803e3d6000fd5b505050506040513d602081101561046957600080fd5b50516002805473ffffffffffffffffffffffffffffffffffffffff1916600160a060020a0392831617905581161561051b57600254604080517f0900f010000000000000000000000000000000000000000000000000000000008152600160a060020a039283166004820152905191831691630900f0109160248082019260009290919082900301818387803b15801561050257600080fd5b505af1158015610516573d6000803e3d6000fd5b505050505b50505600a165627a7a723058200d339f58adeb4828e7f9892c4f0c92adaf9686df541e2adbdab7f69c84537fbd0029",
  "source": "pragma solidity ^0.4.17;\n\nimport \"./Asset.sol\";\n\n/**\n * Base contract for representing a Domain chain asset.\n *\n * Copyright (c) 2017 Cognate, Inc.\n */\ncontract Domain is Asset {\n    string public domain;\n\n    constructor(string _domain, bytes _timeline) Asset(_timeline) public {\n        domain = _domain;\n    }\n}",
  "sourcePath": "/Users/cmurdock/Cog/cog-asset/contracts/asset/Domain.sol",
  "compiler": {
    "name": "solc",
    "version": "0.4.23+commit.124ca40d.Emscripten.clang"
  },
  "schemaVersion": "2.0.0",
  "updatedAt": "2018-05-21T16:36:25.360Z"
}