{
  "contractName": "InitialProof",
  "abi": [
    {
      "constant": true,
      "inputs": [],
      "name": "initialProofLocation",
      "outputs": [
        {
          "name": "",
          "type": "string"
        }
      ],
      "payable": false,
      "stateMutability": "view",
      "type": "function"
    },
    {
      "constant": true,
      "inputs": [],
      "name": "initialProof",
      "outputs": [
        {
          "name": "",
          "type": "bytes32"
        }
      ],
      "payable": false,
      "stateMutability": "view",
      "type": "function"
    },
    {
      "inputs": [
        {
          "name": "_initialProof",
          "type": "bytes32"
        },
        {
          "name": "_initialProofLocation",
          "type": "string"
        }
      ],
      "payable": false,
      "stateMutability": "nonpayable",
      "type": "constructor"
    }
  ],
  "bytecode": "0x608060405234801561001057600080fd5b506040516102bc3803806102bc833981016040528051602080830151600083905590920180519192909161004a9160019190840190610052565b5050506100ed565b828054600181600116156101000203166002900490600052602060002090601f016020900481019282601f1061009357805160ff19168380011785556100c0565b828001600101855582156100c0579182015b828111156100c05782518255916020019190600101906100a5565b506100cc9291506100d0565b5090565b6100ea91905b808211156100cc57600081556001016100d6565b90565b6101c0806100fc6000396000f30060806040526004361061004b5763ffffffff7c0100000000000000000000000000000000000000000000000000000000600035041663a9881c378114610050578063e0152374146100da575b600080fd5b34801561005c57600080fd5b50610065610101565b6040805160208082528351818301528351919283929083019185019080838360005b8381101561009f578181015183820152602001610087565b50505050905090810190601f1680156100cc5780820380516001836020036101000a031916815260200191505b509250505060405180910390f35b3480156100e657600080fd5b506100ef61018e565b60408051918252519081900360200190f35b60018054604080516020600284861615610100026000190190941693909304601f810184900484028201840190925281815292918301828280156101865780601f1061015b57610100808354040283529160200191610186565b820191906000526020600020905b81548152906001019060200180831161016957829003601f168201915b505050505081565b600054815600a165627a7a72305820a40f238857b1d76f42cb19e3aa7ae094f209d29525bda0db9eab0dbe37e1c0c40029",
  "source": "pragma solidity ^0.4.17;\n\n/**\n * Contract representing initial proof.\n *\n * Copyright (c) 2018 Cognate, Inc.\n */\ncontract InitialProof {\n    bytes32 public initialProof;\n    string public initialProofLocation;\n\n    constructor(bytes32 _initialProof, string _initialProofLocation) public {\n        initialProof = _initialProof;\n        initialProofLocation = _initialProofLocation;\n    }\n}",
  "sourcePath": "/Users/cmurdock/Cog/cog-asset/contracts/asset/Trademarks/InitialProof.sol",
  "compiler": {
    "name": "solc",
    "version": "0.4.23+commit.124ca40d.Emscripten.clang"
  },
  "schemaVersion": "2.0.0",
  "updatedAt": "2018-05-21T16:36:25.360Z"
}