{
  "contractName": "ITimelineLibDispatcherStorage",
  "abi": [
    {
      "constant": true,
      "inputs": [
        {
          "name": "",
          "type": "bytes4"
        }
      ],
      "name": "sizes",
      "outputs": [
        {
          "name": "",
          "type": "uint32"
        }
      ],
      "payable": false,
      "stateMutability": "view",
      "type": "function"
    },
    {
      "constant": false,
      "inputs": [
        {
          "name": "_owner",
          "type": "address"
        }
      ],
      "name": "transferOwnershipTo",
      "outputs": [],
      "payable": false,
      "stateMutability": "nonpayable",
      "type": "function"
    },
    {
      "constant": true,
      "inputs": [],
      "name": "owner",
      "outputs": [
        {
          "name": "",
          "type": "address"
        }
      ],
      "payable": false,
      "stateMutability": "view",
      "type": "function"
    },
    {
      "constant": true,
      "inputs": [],
      "name": "lib",
      "outputs": [
        {
          "name": "",
          "type": "address"
        }
      ],
      "payable": false,
      "stateMutability": "view",
      "type": "function"
    },
    {
      "constant": false,
      "inputs": [
        {
          "name": "_lib",
          "type": "address"
        }
      ],
      "name": "replace",
      "outputs": [],
      "payable": false,
      "stateMutability": "nonpayable",
      "type": "function"
    },
    {
      "inputs": [
        {
          "name": "_lib",
          "type": "address"
        }
      ],
      "payable": false,
      "stateMutability": "nonpayable",
      "type": "constructor"
    }
  ],
  "bytecode": "0x608060405234801561001057600080fd5b506040516020806103a9833981016040525160008054600160a060020a03191633600160a060020a03161790558061004f640100000000610068810204565b61006181640100000000610104810204565b5050610141565b604080517f63616c6c46756e6374696f6e4f6628616464726573732c75696e743235362c6281527f79746573290000000000000000000000000000000000000000000000000000006020828101919091528251918290036025019091207fffffffff000000000000000000000000000000000000000000000000000000001660009081526002825291909120805463ffffffff19169091179055565b60005433600160a060020a0390811691161461011f57600080fd5b60018054600160a060020a031916600160a060020a0392909216919091179055565b610259806101506000396000f30060806040526004361061006c5763ffffffff7c0100000000000000000000000000000000000000000000000000000000600035041663206bd362811461007157806352effe11146100c45780638da5cb5b146100e75780639280123014610118578063cabfb9341461012d575b600080fd5b34801561007d57600080fd5b506100ab7fffffffff000000000000000000000000000000000000000000000000000000006004351661014e565b6040805163ffffffff9092168252519081900360200190f35b3480156100d057600080fd5b506100e5600160a060020a0360043516610166565b005b3480156100f357600080fd5b506100fc6101c5565b60408051600160a060020a039092168252519081900360200190f35b34801561012457600080fd5b506100fc6101d4565b34801561013957600080fd5b506100e5600160a060020a03600435166101e3565b60026020526000908152604090205463ffffffff1681565b60005433600160a060020a0390811691161461018157600080fd5b600160a060020a038116151561019657600080fd5b6000805473ffffffffffffffffffffffffffffffffffffffff1916600160a060020a0392909216919091179055565b600054600160a060020a031681565b600154600160a060020a031681565b60005433600160a060020a039081169116146101fe57600080fd5b6001805473ffffffffffffffffffffffffffffffffffffffff1916600160a060020a03929092169190911790555600a165627a7a72305820971b8a1fe75f33b1f58cd919548ad55402101dd447868509e257dc2fdec994760029",
  "source": "pragma solidity ^0.4.17;\n\nimport \"../base/dispatcher/DispatcherStorage.sol\";\n\n/**\n * Defines the storage space for the TimelineLibDispatcher which connects contracts with\n * the current version of the TimelineLib.\n */\ncontract ITimelineLibDispatcherStorage is DispatcherStorage {\n\n    constructor(address _lib) DispatcherStorage(_lib) public {}\n\n    /**\n     * Init function called by the base Dispatcher class that allows you to define the\n     * return value byte sizes for functions with return values in the TimelineLib.\n     */\n    function init() private {\n        sizes[bytes4(keccak256(\"callFunctionOf(address,uint256,bytes)\"))] = 32;\n    }\n}",
  "sourcePath": "/Users/cmurdock/Cog/cog-asset/contracts/timeline/ITimelineLibDispatcherStorage.sol",
  "compiler": {
    "name": "solc",
    "version": "0.4.23+commit.124ca40d.Emscripten.clang"
  },
  "schemaVersion": "2.0.0",
  "updatedAt": "2018-05-21T16:36:25.363Z"
}