{
  "contractName": "owned",
  "abi": [
    {
      "constant": true,
      "inputs": [],
      "name": "owner",
      "outputs": [
        {
          "name": "",
          "type": "address"
        }
      ],
      "payable": false,
      "stateMutability": "view",
      "type": "function"
    },
    {
      "inputs": [
        {
          "name": "_owner",
          "type": "address"
        }
      ],
      "payable": false,
      "stateMutability": "nonpayable",
      "type": "constructor"
    },
    {
      "constant": false,
      "inputs": [
        {
          "name": "_owner",
          "type": "address"
        }
      ],
      "name": "transferOwnershipTo",
      "outputs": [],
      "payable": false,
      "stateMutability": "nonpayable",
      "type": "function"
    }
  ],
  "bytecode": "0x608060405234801561001057600080fd5b506040516020806101de833981016040525160008054600160a060020a03909216600160a060020a031990921691909117905561018c806100526000396000f30060806040526004361061004b5763ffffffff7c010000000000000000000000000000000000000000000000000000000060003504166352effe1181146100505780638da5cb5b14610080575b600080fd5b34801561005c57600080fd5b5061007e73ffffffffffffffffffffffffffffffffffffffff600435166100be565b005b34801561008c57600080fd5b50610095610144565b6040805173ffffffffffffffffffffffffffffffffffffffff9092168252519081900360200190f35b6000543373ffffffffffffffffffffffffffffffffffffffff9081169116146100e657600080fd5b73ffffffffffffffffffffffffffffffffffffffff8116151561010857600080fd5b6000805473ffffffffffffffffffffffffffffffffffffffff191673ffffffffffffffffffffffffffffffffffffffff92909216919091179055565b60005473ffffffffffffffffffffffffffffffffffffffff16815600a165627a7a7230582008fcd961cbb27960ba6cf6e7e6b9b626e577b9fef64d51e89bd13bc27bb968840029",
  "source": "pragma solidity ^0.4.17;\n/**\n * Security parent class used to add ownership to the inheriting contract and\n * provide a restriction modifier that will restrict access to specified methods\n *\n * Copyright (c) 2017 Cognate, Inc.\n */\ncontract owned {\n    address public owner;\n\n    constructor(address _owner) public {\n        owner = _owner;\n    }\n\n    // Modifiers\n    //----------\n\n    /**\n     * Restriction modifier, restricts access of methods to the creator of the contract\n     */\n    modifier onlyOwner() {\n        require(msg.sender == owner);\n        _;\n    }\n\n    // Functions\n    //----------\n\n    /**\n     * Change the owning address of this contract\n     */\n    function transferOwnershipTo(address _owner) public onlyOwner {\n        require(_owner != address(0));\n        owner = _owner;\n    }\n}",
  "sourcePath": "/Users/cmurdock/Cog/cog-asset/contracts/base/owned.sol",
  "compiler": {
    "name": "solc",
    "version": "0.4.23+commit.124ca40d.Emscripten.clang"
  },
  "schemaVersion": "2.0.0",
  "updatedAt": "2018-05-21T16:36:25.361Z"
}