{
  "contractName": "ProofDocument",
  "abi": [
    {
      "constant": true,
      "inputs": [],
      "name": "prev",
      "outputs": [
        {
          "name": "",
          "type": "address"
        }
      ],
      "payable": false,
      "stateMutability": "view",
      "type": "function"
    },
    {
      "constant": true,
      "inputs": [],
      "name": "next",
      "outputs": [
        {
          "name": "",
          "type": "address"
        }
      ],
      "payable": false,
      "stateMutability": "view",
      "type": "function"
    },
    {
      "constant": false,
      "inputs": [
        {
          "name": "_owner",
          "type": "address"
        }
      ],
      "name": "transferOwnershipTo",
      "outputs": [],
      "payable": false,
      "stateMutability": "nonpayable",
      "type": "function"
    },
    {
      "constant": false,
      "inputs": [
        {
          "name": "prev",
          "type": "address"
        }
      ],
      "name": "setPrev",
      "outputs": [],
      "payable": false,
      "stateMutability": "nonpayable",
      "type": "function"
    },
    {
      "constant": true,
      "inputs": [],
      "name": "owner",
      "outputs": [
        {
          "name": "",
          "type": "address"
        }
      ],
      "payable": false,
      "stateMutability": "view",
      "type": "function"
    },
    {
      "constant": false,
      "inputs": [
        {
          "name": "next",
          "type": "address"
        }
      ],
      "name": "setNext",
      "outputs": [],
      "payable": false,
      "stateMutability": "nonpayable",
      "type": "function"
    },
    {
      "constant": true,
      "inputs": [],
      "name": "timestamp",
      "outputs": [
        {
          "name": "",
          "type": "uint256"
        }
      ],
      "payable": false,
      "stateMutability": "view",
      "type": "function"
    },
    {
      "constant": true,
      "inputs": [],
      "name": "interfaceID",
      "outputs": [
        {
          "name": "",
          "type": "bytes32"
        }
      ],
      "payable": false,
      "stateMutability": "view",
      "type": "function"
    },
    {
      "inputs": [
        {
          "name": "location",
          "type": "string"
        },
        {
          "name": "hash",
          "type": "bytes32"
        }
      ],
      "payable": false,
      "stateMutability": "nonpayable",
      "type": "constructor"
    },
    {
      "constant": false,
      "inputs": [
        {
          "name": "location",
          "type": "string"
        }
      ],
      "name": "setLocation",
      "outputs": [],
      "payable": false,
      "stateMutability": "nonpayable",
      "type": "function"
    },
    {
      "constant": true,
      "inputs": [],
      "name": "location",
      "outputs": [
        {
          "name": "",
          "type": "string"
        }
      ],
      "payable": false,
      "stateMutability": "view",
      "type": "function"
    },
    {
      "constant": true,
      "inputs": [],
      "name": "hash",
      "outputs": [
        {
          "name": "",
          "type": "bytes32"
        }
      ],
      "payable": false,
      "stateMutability": "view",
      "type": "function"
    }
  ],
  "bytecode": "0x608060405234801561001057600080fd5b5060405161072338038061072383398101604052805160208083015160008054600160a060020a03191633600160a060020a0316179055426001557f79056e9bb24f897d7f885dacdb2d506599944c0cdfd6b7495eb7f3ea624ac5af600255919092018051909261008691600591850190610090565b506006555061012b565b828054600181600116156101000203166002900490600052602060002090601f016020900481019282601f106100d157805160ff19168380011785556100fe565b828001600101855582156100fe579182015b828111156100fe5782518255916020019190600101906100e3565b5061010a92915061010e565b5090565b61012891905b8082111561010a5760008155600101610114565b90565b6105e98061013a6000396000f3006080604052600436106100ae5763ffffffff7c010000000000000000000000000000000000000000000000000000000060003504166309bd5a6081146100b3578063479c9254146100da5780634c8fe5261461010b578063516f279e1461012057806352effe11146101aa578063827bfbdf146101cd5780638c1bb2a4146102265780638da5cb5b14610247578063b2b2b44d1461025c578063b80777ea1461027d578063ba19322d14610292575b600080fd5b3480156100bf57600080fd5b506100c86102a7565b60408051918252519081900360200190f35b3480156100e657600080fd5b506100ef6102ad565b60408051600160a060020a039092168252519081900360200190f35b34801561011757600080fd5b506100ef6102bc565b34801561012c57600080fd5b506101356102cb565b6040805160208082528351818301528351919283929083019185019080838360005b8381101561016f578181015183820152602001610157565b50505050905090810190601f16801561019c5780820380516001836020036101000a031916815260200191505b509250505060405180910390f35b3480156101b657600080fd5b506101cb600160a060020a0360043516610361565b005b3480156101d957600080fd5b506040805160206004803580820135601f81018490048402850184019095528484526101cb9436949293602493928401919081908401838280828437509497506103c09650505050505050565b34801561023257600080fd5b506101cb600160a060020a03600435166104ae565b34801561025357600080fd5b506100ef610528565b34801561026857600080fd5b506101cb600160a060020a0360043516610537565b34801561028957600080fd5b506100c86105b1565b34801561029e57600080fd5b506100c86105b7565b60065490565b600454600160a060020a031690565b600354600160a060020a031690565b60058054604080516020601f60026000196101006001881615020190951694909404938401819004810282018101909252828152606093909290918301828280156103575780601f1061032c57610100808354040283529160200191610357565b820191906000526020600020905b81548152906001019060200180831161033a57829003601f168201915b5050505050905090565b60005433600160a060020a0390811691161461037c57600080fd5b600160a060020a038116151561039157600080fd5b6000805473ffffffffffffffffffffffffffffffffffffffff1916600160a060020a0392909216919091179055565b604080517f64e4f1f70000000000000000000000000000000000000000000000000000000081526005600482018181526024830193845284516044840152845173__ITimelineDocumentLib__________________946364e4f1f794879392606490910190602085019080838360005b83811015610448578181015183820152602001610430565b50505050905090810190601f1680156104755780820380516001836020036101000a031916815260200191505b50935050505060006040518083038186803b15801561049357600080fd5b505af41580156104a7573d6000803e3d6000fd5b5050505050565b604080517f4df23ab100000000000000000000000000000000000000000000000000000000815260026004820152600160a060020a0383166024820152905173__ITimelineDocumentLib__________________91634df23ab1916044808301926000929190829003018186803b15801561049357600080fd5b600054600160a060020a031681565b604080517f2d637bc600000000000000000000000000000000000000000000000000000000815260026004820152600160a060020a0383166024820152905173__ITimelineDocumentLib__________________91632d637bc6916044808301926000929190829003018186803b15801561049357600080fd5b60015481565b600254905600a165627a7a7230582084c4539404528f49fa769359908d24040e907fcd3f42cd82f5271ce8dc2989ac0029",
  "source": "pragma solidity ^0.4.17;\n\nimport \"./TimelineDocument.sol\";\n\n/**\n * Represents a location and SHA-256 hash of a document that shows proof\n * of something.\n *\n * Copyright (c) 2017 Cognate, Inc.\n */\ncontract ProofDocument is TimelineDocument {\n    using ITimelineDocumentLib for ITimelineDocumentLib.ProofDocumentStorage;\n\n    ITimelineDocumentLib.ProofDocumentStorage proofDocument;\n\n    constructor(string location, bytes32 hash) public {\n\n        proofDocument._location = location;\n        proofDocument._hash = hash;\n    }\n\n\n    function setLocation(string location) public {\n        proofDocument.setLocation(location);\n    }\n\n\n    // Getters\n    //--------\n\n    function location() public view returns (string) {\n        return proofDocument._location;\n    }\n\n    function hash() public view returns (bytes32) {\n        return proofDocument._hash;\n    }\n}",
  "sourcePath": "/Users/cmurdock/Cog/cog-asset/contracts/timeline/timelineDocuments/ProofDocument.sol",
  "compiler": {
    "name": "solc",
    "version": "0.4.23+commit.124ca40d.Emscripten.clang"
  },
  "schemaVersion": "2.0.0",
  "updatedAt": "2018-05-21T16:36:25.366Z"
}