{
  "contractName": "timestamped",
  "abi": [
    {
      "constant": true,
      "inputs": [],
      "name": "timestamp",
      "outputs": [
        {
          "name": "",
          "type": "uint256"
        }
      ],
      "payable": false,
      "stateMutability": "view",
      "type": "function"
    },
    {
      "inputs": [],
      "payable": false,
      "stateMutability": "nonpayable",
      "type": "constructor"
    }
  ],
  "bytecode": "0x6080604052348015600f57600080fd5b50426000556099806100226000396000f300608060405260043610603e5763ffffffff7c0100000000000000000000000000000000000000000000000000000000600035041663b80777ea81146043575b600080fd5b348015604e57600080fd5b5060556067565b60408051918252519081900360200190f35b600054815600a165627a7a723058204ccafe43f604d35d49b129c8fc7a79716c806ccfd2fb14fa5d91d781c78c35240029",
  "source": "pragma solidity ^0.4.17;\n\n/**\n * Adds a createdAt timestamp to inheriting class. This isn't technically needed\n * since the block timestamp should always be accessible, however this provides a\n * more straightforward way to discover the timestamp of creation of a particular\n * contract\n *\n * Copyright (c) 2017 Cognate, Inc.\n */\ncontract timestamped {\n    uint public timestamp;\n\n    constructor() public {\n        /* solium-disable-next-line */\n        timestamp = now;\n    }\n}",
  "sourcePath": "/Users/cmurdock/Cog/cog-asset/contracts/base/timestamped.sol",
  "compiler": {
    "name": "solc",
    "version": "0.4.23+commit.124ca40d.Emscripten.clang"
  },
  "schemaVersion": "2.0.0",
  "updatedAt": "2018-05-21T16:36:25.362Z"
}