{
  "contractName": "TimelineLib",
  "abi": [
    {
      "constant": false,
      "inputs": [
        {
          "name": "self",
          "type": "ITimelineLib.TimelineStorage storage"
        },
        {
          "name": "previous",
          "type": "Timeline"
        }
      ],
      "name": "init",
      "outputs": [],
      "payable": false,
      "stateMutability": "nonpayable",
      "type": "function"
    },
    {
      "constant": false,
      "inputs": [
        {
          "name": "self",
          "type": "ITimelineLib.TimelineStorage storage"
        },
        {
          "name": "to",
          "type": "Timeline"
        }
      ],
      "name": "upgrade",
      "outputs": [],
      "payable": false,
      "stateMutability": "nonpayable",
      "type": "function"
    },
    {
      "constant": false,
      "inputs": [
        {
          "name": "self",
          "type": "ITimelineLib.TimelineStorage storage"
        },
        {
          "name": "document",
          "type": "TimelineDocument"
        }
      ],
      "name": "append",
      "outputs": [],
      "payable": false,
      "stateMutability": "nonpayable",
      "type": "function"
    },
    {
      "constant": false,
      "inputs": [
        {
          "name": "self",
          "type": "ITimelineLib.TimelineStorage storage"
        },
        {
          "name": "documentCode",
          "type": "bytes"
        }
      ],
      "name": "appendBytes",
      "outputs": [],
      "payable": false,
      "stateMutability": "nonpayable",
      "type": "function"
    },
    {
      "constant": false,
      "inputs": [
        {
          "name": "target",
          "type": "address"
        },
        {
          "name": "value",
          "type": "uint256"
        },
        {
          "name": "data",
          "type": "bytes"
        }
      ],
      "name": "callFunctionOf",
      "outputs": [
        {
          "name": "",
          "type": "bool"
        }
      ],
      "payable": false,
      "stateMutability": "nonpayable",
      "type": "function"
    },
    {
      "constant": false,
      "inputs": [
        {
          "name": "self",
          "type": "ITimelineLib.TimelineStorage storage"
        },
        {
          "name": "target",
          "type": "TimelineDocument"
        }
      ],
      "name": "remove",
      "outputs": [],
      "payable": false,
      "stateMutability": "nonpayable",
      "type": "function"
    }
  ],
  "bytecode": "0x611301610030600b82828239805160001a6073146000811461002057610022565bfe5b5030600052607381538281f30073000000000000000000000000000000000000000030146080604052600436106100755763ffffffff60e060020a6000350416637c2eb771811461007a5780639c5a0060146100a0578063c7731028146100c4578063c861157114610141578063e48a8ed614610165578063ffeba90e14610189575b600080fd5b81801561008657600080fd5b5061009e600435600160a060020a03602435166101e7565b005b8180156100ac57600080fd5b5061009e600435600160a060020a03602435166106d4565b8180156100d057600080fd5b50604080516020600460443581810135601f810184900484028501840190955284845261012d948235600160a060020a031694602480359536959460649492019190819084018382808284375094975061087e9650505050505050565b604080519115158252519081900360200190f35b81801561014d57600080fd5b5061009e600435600160a060020a0360243516610b08565b81801561017157600080fd5b5061009e600435600160a060020a0360243516610ef3565b81801561019557600080fd5b5060408051602060046024803582810135601f810185900485028601850190965285855261009e9583359536956044949193909101919081908401838280828437509497506110839650505050505050565b30600160a060020a0316638da5cb5b6040518163ffffffff1660e060020a028152600401602060405180830381600087803b15801561022557600080fd5b505af1158015610239573d6000803e3d6000fd5b505050506040513d602081101561024f57600080fd5b50516040805160e060020a638da5cb5b0281529051600160a060020a0390921691638da5cb5b916004808201926020929091908290030181600087803b15801561029857600080fd5b505af11580156102ac573d6000803e3d6000fd5b505050506040513d60208110156102c257600080fd5b505133600160a060020a039081169116146102dc57600080fd5b30600160a060020a031663c28de2cd6040518163ffffffff1660e060020a028152600401602060405180830381600087803b15801561031a57600080fd5b505af115801561032e573d6000803e3d6000fd5b505050506040513d602081101561034457600080fd5b50511561035057600080fd5b6003820154600160a060020a03828116911614156104055780600160a060020a0316634c8fe5266040518163ffffffff1660e060020a028152600401602060405180830381600087803b1580156103a657600080fd5b505af11580156103ba573d6000803e3d6000fd5b505050506040513d60208110156103d057600080fd5b505160038301805473ffffffffffffffffffffffffffffffffffffffff1916600160a060020a0390921691909117905561055f565b80600160a060020a031663479c92546040518163ffffffff1660e060020a028152600401602060405180830381600087803b15801561044357600080fd5b505af1158015610457573d6000803e3d6000fd5b505050506040513d602081101561046d57600080fd5b5051604080517f4c8fe5260000000000000000000000000000000000000000000000000000000081529051600160a060020a039283169263b2b2b44d9290851691634c8fe526916004808201926020929091908290030181600087803b1580156104d657600080fd5b505af11580156104ea573d6000803e3d6000fd5b505050506040513d602081101561050057600080fd5b50516040805160e060020a63ffffffff8516028152600160a060020a03909216600483015251602480830192600092919082900301818387803b15801561054657600080fd5b505af115801561055a573d6000803e3d6000fd5b505050505b6004820154600160a060020a038281169116146106d05780600160a060020a0316634c8fe5266040518163ffffffff1660e060020a028152600401602060405180830381600087803b1580156105b457600080fd5b505af11580156105c8573d6000803e3d6000fd5b505050506040513d60208110156105de57600080fd5b5051604080517f479c92540000000000000000000000000000000000000000000000000000000081529051600160a060020a0392831692638c1bb2a4929085169163479c9254916004808201926020929091908290030181600087803b15801561064757600080fd5b505af115801561065b573d6000803e3d6000fd5b505050506040513d602081101561067157600080fd5b50516040805160e060020a63ffffffff8516028152600160a060020a03909216600483015251602480830192600092919082900301818387803b1580156106b757600080fd5b505af11580156106cb573d6000803e3d6000fd5b505050505b5050565b7f79056e9bb24f897d7f885dacdb2d506599944c0cdfd6b7495eb7f3ea624ac5af600183015560028201805474ffffffffffffffffffffffffffffffffffffffffff1916610100600160a060020a03841690810291909117909155156106d05780600160a060020a0316634c8fe5266040518163ffffffff1660e060020a028152600401602060405180830381600087803b15801561077257600080fd5b505af1158015610786573d6000803e3d6000fd5b505050506040513d602081101561079c57600080fd5b505160038301805473ffffffffffffffffffffffffffffffffffffffff1916600160a060020a03928316179055604080517f13d8c8400000000000000000000000000000000000000000000000000000000081529051918316916313d8c840916004808201926020929091908290030181600087803b15801561081e57600080fd5b505af1158015610832573d6000803e3d6000fd5b505050506040513d602081101561084857600080fd5b5051600483018054600160a060020a0390921673ffffffffffffffffffffffffffffffffffffffff199092169190911790555050565b60008030600160a060020a0316638da5cb5b6040518163ffffffff1660e060020a028152600401602060405180830381600087803b1580156108bf57600080fd5b505af11580156108d3573d6000803e3d6000fd5b505050506040513d60208110156108e957600080fd5b50516040805160e060020a638da5cb5b0281529051600160a060020a0390921691638da5cb5b916004808201926020929091908290030181600087803b15801561093257600080fd5b505af1158015610946573d6000803e3d6000fd5b505050506040513d602081101561095c57600080fd5b505133600160a060020a0390811691161461097657600080fd5b30600160a060020a031663c28de2cd6040518163ffffffff1660e060020a028152600401602060405180830381600087803b1580156109b457600080fd5b505af11580156109c8573d6000803e3d6000fd5b505050506040513d60208110156109de57600080fd5b5051156109ea57600080fd5b5060208201517fb2b2b44d000000000000000000000000000000000000000000000000000000007bffffffffffffffffffffffffffffffffffffffffffffffffffffffff1982161415610a3c57600080fd5b7f8c1bb2a4000000000000000000000000000000000000000000000000000000007bffffffffffffffffffffffffffffffffffffffffffffffffffffffff1982161415610a8857600080fd5b84600160a060020a0316848460405180828051906020019080838360005b83811015610abe578181015183820152602001610aa6565b50505050905090810190601f168015610aeb5780820380516001836020036101000a031916815260200191505b5091505060006040518083038185875af198975050505050505050565b30600160a060020a0316638da5cb5b6040518163ffffffff1660e060020a028152600401602060405180830381600087803b158015610b4657600080fd5b505af1158015610b5a573d6000803e3d6000fd5b505050506040513d6020811015610b7057600080fd5b50516040805160e060020a638da5cb5b0281529051600160a060020a0390921691638da5cb5b916004808201926020929091908290030181600087803b158015610bb957600080fd5b505af1158015610bcd573d6000803e3d6000fd5b505050506040513d6020811015610be357600080fd5b505133600160a060020a03908116911614610bfd57600080fd5b30600160a060020a031663c28de2cd6040518163ffffffff1660e060020a028152600401602060405180830381600087803b158015610c3b57600080fd5b505af1158015610c4f573d6000803e3d6000fd5b505050506040513d6020811015610c6557600080fd5b505115610c7157600080fd5b30600160a060020a031681600160a060020a0316638da5cb5b6040518163ffffffff1660e060020a028152600401602060405180830381600087803b158015610cb957600080fd5b505af1158015610ccd573d6000803e3d6000fd5b505050506040513d6020811015610ce357600080fd5b5051600160a060020a031614610cf857600080fd5b81600101546000191681600160a060020a031663ba19322d6040518163ffffffff1660e060020a028152600401602060405180830381600087803b158015610d3f57600080fd5b505af1158015610d53573d6000803e3d6000fd5b505050506040513d6020811015610d6957600080fd5b505114610d7557600080fd5b6003820154600160a060020a03161515610db85760038201805473ffffffffffffffffffffffffffffffffffffffff1916600160a060020a038316179055610e3e565b600480830154604080517fb2b2b44d000000000000000000000000000000000000000000000000000000008152600160a060020a03858116948201949094529051929091169163b2b2b44d9160248082019260009290919082900301818387803b158015610e2557600080fd5b505af1158015610e39573d6000803e3d6000fd5b505050505b600480830154604080517f8c1bb2a4000000000000000000000000000000000000000000000000000000008152600160a060020a03928316938101939093525190831691638c1bb2a491602480830192600092919082900301818387803b158015610ea857600080fd5b505af1158015610ebc573d6000803e3d6000fd5b50505060049092018054600160a060020a0390921673ffffffffffffffffffffffffffffffffffffffff1990921691909117905550565b600030600160a060020a031663c28de2cd6040518163ffffffff1660e060020a028152600401602060405180830381600087803b158015610f3357600080fd5b505af1158015610f47573d6000803e3d6000fd5b505050506040513d6020811015610f5d57600080fd5b505115610f6957600080fd5b5060028201805460ff191660011790819055600160a060020a03610100909104165b600160a060020a0381161561107e5780600160a060020a03166352effe11836040518263ffffffff1660e060020a0281526004018082600160a060020a0316600160a060020a03168152602001915050600060405180830381600087803b158015610ff557600080fd5b505af1158015611009573d6000803e3d6000fd5b5050505080600160a060020a0316637c2b2e716040518163ffffffff1660e060020a028152600401602060405180830381600087803b15801561104b57600080fd5b505af115801561105f573d6000803e3d6000fd5b505050506040513d602081101561107557600080fd5b50519050610f8b565b505050565b30600160a060020a0316638da5cb5b6040518163ffffffff1660e060020a028152600401602060405180830381600087803b1580156110c157600080fd5b505af11580156110d5573d6000803e3d6000fd5b505050506040513d60208110156110eb57600080fd5b50516040805160e060020a638da5cb5b0281529051600160a060020a0390921691638da5cb5b916004808201926020929091908290030181600087803b15801561113457600080fd5b505af1158015611148573d6000803e3d6000fd5b505050506040513d602081101561115e57600080fd5b505133600160a060020a0390811691161461117857600080fd5b30600160a060020a031663c28de2cd6040518163ffffffff1660e060020a028152600401602060405180830381600087803b1580156111b657600080fd5b505af11580156111ca573d6000803e3d6000fd5b505050506040513d60208110156111e057600080fd5b5051156111ec57600080fd5b6106d08273__IbaseLib______________________________6352810427846040518263ffffffff1660e060020a0281526004018080602001828103825283818151815260200191508051906020019080838360005b8381101561125a578181015183820152602001611242565b50505050905090810190601f1680156112875780820380516001836020036101000a031916815260200191505b509250505060206040518083038186803b1580156112a457600080fd5b505af41580156112b8573d6000803e3d6000fd5b505050506040513d60208110156112ce57600080fd5b5051610b085600a165627a7a72305820e20b3e29171c8d6f4872ff90ea79e02bff379f7d11c5157cbe1e65fc041e28a70029",
  "source": "pragma solidity ^0.4.17;\n\nimport \"./ITimelineLib.sol\";\n\n/**\n * ITimelineLib implementation v1.0\n *\n * Copyright (c) 2017 Cognate, Inc.\n */\nlibrary TimelineLib {\n\n    /**\n     * Restriction modifier, restricts access of methods to the latest top level timeline in\n     * the upgrade schema of the owning timeline\n     */\n    modifier onlyControllingOwner() {\n        require(msg.sender == owned(owned(this).owner()).owner());\n        _;\n    }\n\n    /**\n     * If a contract has been upgraded, functions marked by this modifier are no\n     * longer accessible\n     */\n    modifier notUpgraded() {\n        require(!Timeline(this).upgraded());\n        _;\n    }\n\n    function init(ITimelineLib.TimelineStorage storage self, Timeline previous) public {\n        self._interfaceID = 0x79056e9bb24f897d7f885dacdb2d506599944c0cdfd6b7495eb7f3ea624ac5af;\n        self._upgraded = false;\n        self._previous = previous;\n\n        if(previous != address(0)) {\n            self._next = previous.next();\n            self._tail = previous.tail();\n        }\n    }\n\n    function upgrade(ITimelineLib.TimelineStorage storage self, Timeline to) public notUpgraded {\n        self._upgraded = true;\n\n        Timeline prev = self._previous;\n        while(prev != address(0)) {\n            prev.transferOwnershipTo(to);\n            prev = prev.previous();\n        }\n    }\n\n    function append(ITimelineLib.TimelineStorage storage self, TimelineDocument document) public onlyControllingOwner notUpgraded {\n        require(document.owner() == address(this));\n        require(document.interfaceID() == self._interfaceID);\n\n        // Append the document to this timeline\n        if(self._next == address(0)) {\n            self._next = document;\n        } else {\n            self._tail.setNext(document);\n        }\n\n        document.setPrev(self._tail);\n        self._tail = document;\n    }\n\n    function appendBytes(ITimelineLib.TimelineStorage storage self, bytes documentCode) public onlyControllingOwner notUpgraded {\n        append(self, TimelineDocument(IbaseLib.createContractFromBytes(documentCode)));\n    }\n\n    function callFunctionOf(\n        address target,\n        uint value,\n        bytes data\n    ) public onlyControllingOwner notUpgraded returns (bool) {\n        // limit which functions can be called via callFunctionOf\n        bytes32 calledFunctionSig;\n\n        /* solium-disable-next-line */\n        assembly {\n            calledFunctionSig := mload(add(data, 32))\n        }\n        require(bytes4(calledFunctionSig) != 0xb2b2b44d); // prevent this function from calling setNext(address)\n        require(bytes4(calledFunctionSig) != 0x8c1bb2a4); // prevent this function from calling setPrev(address)\n\n        /* solium-disable-next-line */\n        return target.call.value(value)(data);\n    }\n\n    function remove(ITimelineLib.TimelineStorage storage self, TimelineDocument target) public onlyControllingOwner notUpgraded {\n        if(self._next == target) {\n            self._next = target.next();\n        } else {\n            target.prev().setNext(target.next());\n        }\n\n        if(self._tail != target) {\n            target.next().setPrev(target.prev());\n        }\n    }\n}",
  "sourcePath": "/Users/cmurdock/Cog/cog-asset/contracts/timeline/TimelineLib.sol",
  "compiler": {
    "name": "solc",
    "version": "0.4.23+commit.124ca40d.Emscripten.clang"
  },
  "schemaVersion": "2.0.0",
  "updatedAt": "2018-05-21T16:36:25.363Z"
}