{
  "contractName": "Timeline",
  "abi": [
    {
      "constant": false,
      "inputs": [
        {
          "name": "_owner",
          "type": "address"
        }
      ],
      "name": "transferOwnershipTo",
      "outputs": [],
      "payable": false,
      "stateMutability": "nonpayable",
      "type": "function"
    },
    {
      "constant": true,
      "inputs": [],
      "name": "owner",
      "outputs": [
        {
          "name": "",
          "type": "address"
        }
      ],
      "payable": false,
      "stateMutability": "view",
      "type": "function"
    },
    {
      "inputs": [
        {
          "name": "previous",
          "type": "address"
        }
      ],
      "payable": false,
      "stateMutability": "nonpayable",
      "type": "constructor"
    },
    {
      "constant": false,
      "inputs": [
        {
          "name": "document",
          "type": "address"
        }
      ],
      "name": "append",
      "outputs": [],
      "payable": false,
      "stateMutability": "nonpayable",
      "type": "function"
    },
    {
      "constant": false,
      "inputs": [
        {
          "name": "documentCode",
          "type": "bytes"
        }
      ],
      "name": "appendBytes",
      "outputs": [],
      "payable": false,
      "stateMutability": "nonpayable",
      "type": "function"
    },
    {
      "constant": false,
      "inputs": [
        {
          "name": "document",
          "type": "address"
        }
      ],
      "name": "remove",
      "outputs": [],
      "payable": false,
      "stateMutability": "nonpayable",
      "type": "function"
    },
    {
      "constant": false,
      "inputs": [
        {
          "name": "target",
          "type": "address"
        },
        {
          "name": "value",
          "type": "uint256"
        },
        {
          "name": "funcData",
          "type": "bytes"
        }
      ],
      "name": "callFunctionOf",
      "outputs": [
        {
          "name": "",
          "type": "bool"
        }
      ],
      "payable": false,
      "stateMutability": "nonpayable",
      "type": "function"
    },
    {
      "constant": false,
      "inputs": [
        {
          "name": "to",
          "type": "address"
        }
      ],
      "name": "upgrade",
      "outputs": [],
      "payable": false,
      "stateMutability": "nonpayable",
      "type": "function"
    },
    {
      "constant": true,
      "inputs": [],
      "name": "version",
      "outputs": [
        {
          "name": "",
          "type": "uint16"
        }
      ],
      "payable": false,
      "stateMutability": "view",
      "type": "function"
    },
    {
      "constant": true,
      "inputs": [],
      "name": "upgraded",
      "outputs": [
        {
          "name": "",
          "type": "bool"
        }
      ],
      "payable": false,
      "stateMutability": "view",
      "type": "function"
    },
    {
      "constant": true,
      "inputs": [],
      "name": "previous",
      "outputs": [
        {
          "name": "",
          "type": "address"
        }
      ],
      "payable": false,
      "stateMutability": "view",
      "type": "function"
    },
    {
      "constant": true,
      "inputs": [],
      "name": "next",
      "outputs": [
        {
          "name": "",
          "type": "address"
        }
      ],
      "payable": false,
      "stateMutability": "view",
      "type": "function"
    },
    {
      "constant": true,
      "inputs": [],
      "name": "tail",
      "outputs": [
        {
          "name": "",
          "type": "address"
        }
      ],
      "payable": false,
      "stateMutability": "view",
      "type": "function"
    }
  ],
  "bytecode": "0x608060405234801561001057600080fd5b5060405160208061082b833981016040818152915160008054600160a060020a03338116600160a060020a03199092169190911782556001805461ffff191660031781557f9c5a00600000000000000000000000000000000000000000000000000000000085526004850152821660248401529251909273__ITimelineLib__________________________92639c5a00609260448083019392829003018186803b1580156100be57600080fd5b505af41580156100d2573d6000803e3d6000fd5b5050505050610745806100e66000396000f3006080604052600436106100b95763ffffffff7c01000000000000000000000000000000000000000000000000000000006000350416630900f01081146100be57806313d8c840146100e157806329092d0e146101125780634c8fe5261461013357806352effe111461014857806354fd4d50146101695780637c2b2e71146101955780638da5cb5b146101aa578063ac04f5a7146101bf578063c28de2cd146101e0578063c773102814610209578063e5c1ec8914610272575b600080fd5b3480156100ca57600080fd5b506100df600160a060020a03600435166102cb565b005b3480156100ed57600080fd5b506100f6610384565b60408051600160a060020a039092168252519081900360200190f35b34801561011e57600080fd5b506100df600160a060020a0360043516610393565b34801561013f57600080fd5b506100f661040d565b34801561015457600080fd5b506100df600160a060020a036004351661041c565b34801561017557600080fd5b5061017e61047b565b6040805161ffff9092168252519081900360200190f35b3480156101a157600080fd5b506100f6610485565b3480156101b657600080fd5b506100f6610499565b3480156101cb57600080fd5b506100df600160a060020a03600435166104a8565b3480156101ec57600080fd5b506101f5610522565b604080519115158252519081900360200190f35b34801561021557600080fd5b50604080516020600460443581810135601f81018490048402850184019095528484526101f5948235600160a060020a031694602480359536959460649492019190819084018382808284375094975061052b9650505050505050565b34801561027e57600080fd5b506040805160206004803580820135601f81018490048402850184019095528484526100df9436949293602493928401919081908401838280828437509497506106469650505050505050565b60005433600160a060020a039081169116146102e657600080fd5b6102ef8161041c565b604080517fe48a8ed600000000000000000000000000000000000000000000000000000000815260016004820152600160a060020a0383166024820152905173__ITimelineLib__________________________9163e48a8ed6916044808301926000929190829003018186803b15801561036957600080fd5b505af415801561037d573d6000803e3d6000fd5b5050505050565b600554600160a060020a031690565b604080517f7c2eb77100000000000000000000000000000000000000000000000000000000815260016004820152600160a060020a0383166024820152905173__ITimelineLib__________________________91637c2eb771916044808301926000929190829003018186803b15801561036957600080fd5b600454600160a060020a031690565b60005433600160a060020a0390811691161461043757600080fd5b600160a060020a038116151561044c57600080fd5b6000805473ffffffffffffffffffffffffffffffffffffffff1916600160a060020a0392909216919091179055565b60015461ffff1690565b6003546101009004600160a060020a031690565b600054600160a060020a031681565b604080517fc861157100000000000000000000000000000000000000000000000000000000815260016004820152600160a060020a0383166024820152905173__ITimelineLib__________________________9163c8611571916044808301926000929190829003018186803b15801561036957600080fd5b60035460ff1690565b6040517fc7731028000000000000000000000000000000000000000000000000000000008152600160a060020a038416600482018181526024830185905260606044840190815284516064850152845160009473__ITimelineLib__________________________9463c7731028949093899389936084019060208501908083838d5b838110156105c65781810151838201526020016105ae565b50505050905090810190601f1680156105f35780820380516001836020036101000a031916815260200191505b5094505050505060206040518083038186803b15801561061257600080fd5b505af4158015610626573d6000803e3d6000fd5b505050506040513d602081101561063c57600080fd5b5051949350505050565b604080517fffeba90e0000000000000000000000000000000000000000000000000000000081526001600482018181526024830193845284516044840152845173__ITimelineLib__________________________9463ffeba90e94879392606490910190602085019080838360005b838110156106ce5781810151838201526020016106b6565b50505050905090810190601f1680156106fb5780820380516001836020036101000a031916815260200191505b50935050505060006040518083038186803b15801561036957600080fd00a165627a7a723058209df3ac4dc5dc2a1ce92aea3a8aacb769c2d6e1ede84680b5da76394b0af90bb50029",
  "source": "pragma solidity ^0.4.17;\n\nimport \"../base/owned.sol\";\nimport \"../base/mortal.sol\";\nimport \"./ITimelineLib.sol\";\nimport \"./timelineDocuments/TimelineDocument.sol\";\n\n/**\n * Base Contract for a TimeLine which is a cohesive linked list of documents that creates an\n * immutable and immortal history. The basic principles of a Timeline is that the data it stores can\n * never be altered but new timeline documents can be appended in order to build more history.\n *\n * NOTE: Remember to update upgradeable(version) in the declaration when creating a new version\n * of timeline\n *\n * Copyright (c) 2017 Cognate, Inc.\n */\ncontract Timeline is owned(msg.sender) {\n    using ITimelineLib for *;\n\n    ITimelineLib.TimelineStorage timeline;\n\n    constructor(address previous) public {\n        timeline._version = 3;\n        timeline.init(Timeline(previous));\n    }\n\n\n    // calls ITimelineLib.append()\n    function append(TimelineDocument document) public {\n        timeline.append(document);\n    }\n\n    // calls ITimelineLib.appendBytes()\n    function appendBytes(bytes documentCode) public {\n        timeline.appendBytes(documentCode);\n    }\n\n    // calls ITimelineLib.remove()\n    function remove(TimelineDocument document) public {\n        timeline.remove(document);\n    }\n\n    // calls ITimelineLib.callFunctionOf()\n    function callFunctionOf(address target, uint value, bytes funcData) public returns (bool) {\n        return target.callFunctionOf(value, funcData);\n    }\n\n    // calls ITimelineLib.upgrade()\n    function upgrade(Timeline to) public onlyOwner {\n        transferOwnershipTo(to);\n        timeline.upgrade(to);\n    }\n\n    // Getters\n    //---------\n    function version() public view returns (uint16) {\n        return timeline._version;\n    }\n\n    function upgraded() public view returns (bool) {\n        return timeline._upgraded;\n    }\n\n    function previous() public view returns (Timeline) {\n        return timeline._previous;\n    }\n\n    function next() public view returns (TimelineDocument) {\n        return timeline._next;\n    }\n\n    function tail() public view returns (TimelineDocument) {\n        return timeline._tail;\n    }\n}\n",
  "sourcePath": "/Users/cmurdock/Cog/cog-asset/contracts/timeline/Timeline.sol",
  "compiler": {
    "name": "solc",
    "version": "0.4.23+commit.124ca40d.Emscripten.clang"
  },
  "schemaVersion": "2.0.0",
  "updatedAt": "2018-05-21T16:36:25.363Z"
}