{
  "contractName": "TimelineDocumentLib",
  "abi": [
    {
      "constant": false,
      "inputs": [
        {
          "name": "self",
          "type": "ITimelineDocumentLib.TimelineDocumentStorage storage"
        },
        {
          "name": "next",
          "type": "TimelineDocument"
        }
      ],
      "name": "setNext",
      "outputs": [],
      "payable": false,
      "stateMutability": "nonpayable",
      "type": "function"
    },
    {
      "constant": false,
      "inputs": [
        {
          "name": "self",
          "type": "ITimelineDocumentLib.TimelineDocumentStorage storage"
        },
        {
          "name": "prev",
          "type": "TimelineDocument"
        }
      ],
      "name": "setPrev",
      "outputs": [],
      "payable": false,
      "stateMutability": "nonpayable",
      "type": "function"
    },
    {
      "constant": false,
      "inputs": [
        {
          "name": "self",
          "type": "ITimelineDocumentLib.ClaimStorage storage"
        },
        {
          "name": "proof",
          "type": "address"
        }
      ],
      "name": "addProof",
      "outputs": [],
      "payable": false,
      "stateMutability": "nonpayable",
      "type": "function"
    },
    {
      "constant": false,
      "inputs": [
        {
          "name": "self",
          "type": "ITimelineDocumentLib.ProofDocumentStorage storage"
        },
        {
          "name": "location",
          "type": "string"
        }
      ],
      "name": "setLocation",
      "outputs": [],
      "payable": false,
      "stateMutability": "nonpayable",
      "type": "function"
    }
  ],
  "bytecode": "0x610c1f610030600b82828239805160001a6073146000811461002057610022565bfe5b5030600052607381538281f300730000000000000000000000000000000000000000301460806040526004361061005f5763ffffffff60e060020a6000350416632d637bc68114610064578063427221c11461008a5780634df23ab1146100ae57806364e4f1f7146100d2575b600080fd5b81801561007057600080fd5b50610088600435600160a060020a0360243516610130565b005b81801561009657600080fd5b50610088600435600160a060020a03602435166103bd565b8180156100ba57600080fd5b50610088600435600160a060020a0360243516610659565b8180156100de57600080fd5b5060408051602060046024803582810135601f81018590048502860185019096528585526100889583359536956044949193909101919081908401838280828437509497506108e69650505050505050565b30600160a060020a0316638da5cb5b6040518163ffffffff1660e060020a028152600401602060405180830381600087803b15801561016e57600080fd5b505af1158015610182573d6000803e3d6000fd5b505050506040513d602081101561019857600080fd5b505133600160a060020a0390811691161480610380575030600160a060020a0316638da5cb5b6040518163ffffffff1660e060020a028152600401602060405180830381600087803b1580156101ed57600080fd5b505af1158015610201573d6000803e3d6000fd5b505050506040513d602081101561021757600080fd5b50516040805160e060020a63c28de2cd0281529051600160a060020a039092169163c28de2cd916004808201926020929091908290030181600087803b15801561026057600080fd5b505af1158015610274573d6000803e3d6000fd5b505050506040513d602081101561028a57600080fd5b50518015610380575030600160a060020a0316638da5cb5b6040518163ffffffff1660e060020a028152600401602060405180830381600087803b1580156102d157600080fd5b505af11580156102e5573d6000803e3d6000fd5b505050506040513d60208110156102fb57600080fd5b50516040805160e060020a638da5cb5b0281529051600160a060020a0390921691638da5cb5b916004808201926020929091908290030181600087803b15801561034457600080fd5b505af1158015610358573d6000803e3d6000fd5b505050506040513d602081101561036e57600080fd5b505133600160a060020a039081169116145b151561038b57600080fd5b600191909101805473ffffffffffffffffffffffffffffffffffffffff1916600160a060020a03909216919091179055565b30600160a060020a0316638da5cb5b6040518163ffffffff1660e060020a028152600401602060405180830381600087803b1580156103fb57600080fd5b505af115801561040f573d6000803e3d6000fd5b505050506040513d602081101561042557600080fd5b505133600160a060020a039081169116148061060d575030600160a060020a0316638da5cb5b6040518163ffffffff1660e060020a028152600401602060405180830381600087803b15801561047a57600080fd5b505af115801561048e573d6000803e3d6000fd5b505050506040513d60208110156104a457600080fd5b50516040805160e060020a63c28de2cd0281529051600160a060020a039092169163c28de2cd916004808201926020929091908290030181600087803b1580156104ed57600080fd5b505af1158015610501573d6000803e3d6000fd5b505050506040513d602081101561051757600080fd5b5051801561060d575030600160a060020a0316638da5cb5b6040518163ffffffff1660e060020a028152600401602060405180830381600087803b15801561055e57600080fd5b505af1158015610572573d6000803e3d6000fd5b505050506040513d602081101561058857600080fd5b50516040805160e060020a638da5cb5b0281529051600160a060020a0390921691638da5cb5b916004808201926020929091908290030181600087803b1580156105d157600080fd5b505af11580156105e5573d6000803e3d6000fd5b505050506040513d60208110156105fb57600080fd5b505133600160a060020a039081169116145b151561061857600080fd5b815460018101835560009283526020909220909101805473ffffffffffffffffffffffffffffffffffffffff1916600160a060020a03909216919091179055565b30600160a060020a0316638da5cb5b6040518163ffffffff1660e060020a028152600401602060405180830381600087803b15801561069757600080fd5b505af11580156106ab573d6000803e3d6000fd5b505050506040513d60208110156106c157600080fd5b505133600160a060020a03908116911614806108a9575030600160a060020a0316638da5cb5b6040518163ffffffff1660e060020a028152600401602060405180830381600087803b15801561071657600080fd5b505af115801561072a573d6000803e3d6000fd5b505050506040513d602081101561074057600080fd5b50516040805160e060020a63c28de2cd0281529051600160a060020a039092169163c28de2cd916004808201926020929091908290030181600087803b15801561078957600080fd5b505af115801561079d573d6000803e3d6000fd5b505050506040513d60208110156107b357600080fd5b505180156108a9575030600160a060020a0316638da5cb5b6040518163ffffffff1660e060020a028152600401602060405180830381600087803b1580156107fa57600080fd5b505af115801561080e573d6000803e3d6000fd5b505050506040513d602081101561082457600080fd5b50516040805160e060020a638da5cb5b0281529051600160a060020a0390921691638da5cb5b916004808201926020929091908290030181600087803b15801561086d57600080fd5b505af1158015610881573d6000803e3d6000fd5b505050506040513d602081101561089757600080fd5b505133600160a060020a039081169116145b15156108b457600080fd5b600291909101805473ffffffffffffffffffffffffffffffffffffffff1916600160a060020a03909216919091179055565b30600160a060020a0316638da5cb5b6040518163ffffffff1660e060020a028152600401602060405180830381600087803b15801561092457600080fd5b505af1158015610938573d6000803e3d6000fd5b505050506040513d602081101561094e57600080fd5b505133600160a060020a0390811691161480610b36575030600160a060020a0316638da5cb5b6040518163ffffffff1660e060020a028152600401602060405180830381600087803b1580156109a357600080fd5b505af11580156109b7573d6000803e3d6000fd5b505050506040513d60208110156109cd57600080fd5b50516040805160e060020a63c28de2cd0281529051600160a060020a039092169163c28de2cd916004808201926020929091908290030181600087803b158015610a1657600080fd5b505af1158015610a2a573d6000803e3d6000fd5b505050506040513d6020811015610a4057600080fd5b50518015610b36575030600160a060020a0316638da5cb5b6040518163ffffffff1660e060020a028152600401602060405180830381600087803b158015610a8757600080fd5b505af1158015610a9b573d6000803e3d6000fd5b505050506040513d6020811015610ab157600080fd5b50516040805160e060020a638da5cb5b0281529051600160a060020a0390921691638da5cb5b916004808201926020929091908290030181600087803b158015610afa57600080fd5b505af1158015610b0e573d6000803e3d6000fd5b505050506040513d6020811015610b2457600080fd5b505133600160a060020a039081169116145b1515610b4157600080fd5b8051610b539083906020840190610b58565b505050565b828054600181600116156101000203166002900490600052602060002090601f016020900481019282601f10610b9957805160ff1916838001178555610bc6565b82800160010185558215610bc6579182015b82811115610bc6578251825591602001919060010190610bab565b50610bd2929150610bd6565b5090565b610bf091905b80821115610bd25760008155600101610bdc565b905600a165627a7a72305820e4d08a1d3581fdc6a5b05b0fa085eaa7cc2362775afe872611c81e7b169b771b0029",
  "source": "pragma solidity ^0.4.17;\n\nimport \"./ITimelineDocumentLib.sol\";\nimport \"../Timeline.sol\";\nimport \"./TimelineDocument.sol\";\n\n/**\n * ITimelineDocumentLib implementation v1.0\n *\n * Copyright (c) 2017 Cognate, Inc.\n */\nlibrary TimelineDocumentLib {\n\n    /**\n     * Restriction modifier, restricts access of methods to the latest top level timeline in\n     * the upgrade schema of the owning timeline\n     */\n    modifier onlyControllingTimeline() {\n        require(msg.sender == owned(this).owner() || (Timeline(owned(this).owner()).upgraded() && msg.sender == Timeline(owned(this).owner()).owner()));\n        _;\n    }\n\n    function setNext(ITimelineDocumentLib.TimelineDocumentStorage storage self, TimelineDocument next) public onlyControllingTimeline {\n        self._next = next;\n    }\n\n    function setPrev(ITimelineDocumentLib.TimelineDocumentStorage storage self, TimelineDocument prev) public onlyControllingTimeline {\n        self._prev = prev;\n    }\n\n    function addProof(ITimelineDocumentLib.ClaimStorage storage self, address proof) public onlyControllingTimeline {\n        self._proofs.push(proof);\n    }\n\n    function setLocation(ITimelineDocumentLib.ProofDocumentStorage storage self, string location) public onlyControllingTimeline {\n        self._location = location;\n    }\n}",
  "sourcePath": "/Users/cmurdock/Cog/cog-asset/contracts/timeline/timelineDocuments/TimelineDocumentLib.sol",
  "compiler": {
    "name": "solc",
    "version": "0.4.23+commit.124ca40d.Emscripten.clang"
  },
  "schemaVersion": "2.0.0",
  "updatedAt": "2018-05-21T16:36:25.367Z"
}