{
  "contractName": "TimelineDocument",
  "abi": [
    {
      "constant": false,
      "inputs": [
        {
          "name": "_owner",
          "type": "address"
        }
      ],
      "name": "transferOwnershipTo",
      "outputs": [],
      "payable": false,
      "stateMutability": "nonpayable",
      "type": "function"
    },
    {
      "constant": true,
      "inputs": [],
      "name": "owner",
      "outputs": [
        {
          "name": "",
          "type": "address"
        }
      ],
      "payable": false,
      "stateMutability": "view",
      "type": "function"
    },
    {
      "constant": true,
      "inputs": [],
      "name": "timestamp",
      "outputs": [
        {
          "name": "",
          "type": "uint256"
        }
      ],
      "payable": false,
      "stateMutability": "view",
      "type": "function"
    },
    {
      "inputs": [],
      "payable": false,
      "stateMutability": "nonpayable",
      "type": "constructor"
    },
    {
      "constant": false,
      "inputs": [
        {
          "name": "next",
          "type": "address"
        }
      ],
      "name": "setNext",
      "outputs": [],
      "payable": false,
      "stateMutability": "nonpayable",
      "type": "function"
    },
    {
      "constant": false,
      "inputs": [
        {
          "name": "prev",
          "type": "address"
        }
      ],
      "name": "setPrev",
      "outputs": [],
      "payable": false,
      "stateMutability": "nonpayable",
      "type": "function"
    },
    {
      "constant": true,
      "inputs": [],
      "name": "interfaceID",
      "outputs": [
        {
          "name": "",
          "type": "bytes32"
        }
      ],
      "payable": false,
      "stateMutability": "view",
      "type": "function"
    },
    {
      "constant": true,
      "inputs": [],
      "name": "next",
      "outputs": [
        {
          "name": "",
          "type": "address"
        }
      ],
      "payable": false,
      "stateMutability": "view",
      "type": "function"
    },
    {
      "constant": true,
      "inputs": [],
      "name": "prev",
      "outputs": [
        {
          "name": "",
          "type": "address"
        }
      ],
      "payable": false,
      "stateMutability": "view",
      "type": "function"
    }
  ],
  "bytecode": "0x608060405234801561001057600080fd5b5060008054600160a060020a033316600160a060020a0319909116179055426001557f79056e9bb24f897d7f885dacdb2d506599944c0cdfd6b7495eb7f3ea624ac5af600255610361806100656000396000f30060806040526004361061008d5763ffffffff7c0100000000000000000000000000000000000000000000000000000000600035041663479c925481146100925780634c8fe526146100c357806352effe11146100d85780638c1bb2a4146100fb5780638da5cb5b1461011c578063b2b2b44d14610131578063b80777ea14610152578063ba19322d14610179575b600080fd5b34801561009e57600080fd5b506100a761018e565b60408051600160a060020a039092168252519081900360200190f35b3480156100cf57600080fd5b506100a761019d565b3480156100e457600080fd5b506100f9600160a060020a03600435166101ac565b005b34801561010757600080fd5b506100f9600160a060020a036004351661020b565b34801561012857600080fd5b506100a76102a0565b34801561013d57600080fd5b506100f9600160a060020a03600435166102af565b34801561015e57600080fd5b50610167610329565b60408051918252519081900360200190f35b34801561018557600080fd5b5061016761032f565b600454600160a060020a031690565b600354600160a060020a031690565b60005433600160a060020a039081169116146101c757600080fd5b600160a060020a03811615156101dc57600080fd5b6000805473ffffffffffffffffffffffffffffffffffffffff1916600160a060020a0392909216919091179055565b604080517f4df23ab100000000000000000000000000000000000000000000000000000000815260026004820152600160a060020a0383166024820152905173__ITimelineDocumentLib__________________91634df23ab1916044808301926000929190829003018186803b15801561028557600080fd5b505af4158015610299573d6000803e3d6000fd5b5050505050565b600054600160a060020a031681565b604080517f2d637bc600000000000000000000000000000000000000000000000000000000815260026004820152600160a060020a0383166024820152905173__ITimelineDocumentLib__________________91632d637bc6916044808301926000929190829003018186803b15801561028557600080fd5b60015481565b600254905600a165627a7a72305820f8a723d172536a1514e31d4f4082deb7854e55f7ea002d9c0b02acf99a9a4bd10029",
  "source": "pragma solidity ^0.4.17;\n\nimport \"../../base/owned.sol\";\nimport \"../../base/timestamped.sol\";\nimport \"../Timeline.sol\";\nimport \"./ITimelineDocumentLib.sol\";\n\n/**\n * Base Contract for TimeLineDocuments which contain specific information contributing\n * chronological data and events to building a comprehensive smart asset\n *\n * Copyright (c) 2017 Cognate, Inc.\n */\ncontract TimelineDocument is owned(msg.sender), timestamped {\n    using ITimelineDocumentLib for ITimelineDocumentLib.TimelineDocumentStorage;\n\n    ITimelineDocumentLib.TimelineDocumentStorage timelineDocument;\n\n    constructor() public {\n        timelineDocument._interfaceID = 0x79056e9bb24f897d7f885dacdb2d506599944c0cdfd6b7495eb7f3ea624ac5af;\n    }\n\n\n    // calls ITimelineDocumentLib.setNext()\n    function setNext(TimelineDocument next) public {\n        timelineDocument.setNext(next);\n    }\n\n    // calls ITimelineDocumentLib.setPrev()\n    function setPrev(TimelineDocument prev) public {\n        timelineDocument.setPrev(prev);\n    }\n\n\n    // Getters\n    //--------\n\n    function interfaceID() public view returns (bytes32) {\n        return timelineDocument._interfaceID;\n    }\n\n    function next() public view returns (TimelineDocument) {\n        return timelineDocument._next;\n    }\n\n    function prev() public view returns (TimelineDocument) {\n        return timelineDocument._prev;\n    }\n}",
  "sourcePath": "/Users/cmurdock/Cog/cog-asset/contracts/timeline/timelineDocuments/TimelineDocument.sol",
  "compiler": {
    "name": "solc",
    "version": "0.4.23+commit.124ca40d.Emscripten.clang"
  },
  "schemaVersion": "2.0.0",
  "updatedAt": "2018-05-21T16:36:25.366Z"
}