{
  "contractName": "WordAndDesignMarkWithInitialProof",
  "abi": [
    {
      "constant": true,
      "inputs": [],
      "name": "timeline",
      "outputs": [
        {
          "name": "",
          "type": "address"
        }
      ],
      "payable": false,
      "stateMutability": "view",
      "type": "function"
    },
    {
      "constant": true,
      "inputs": [],
      "name": "word",
      "outputs": [
        {
          "name": "",
          "type": "string"
        }
      ],
      "payable": false,
      "stateMutability": "view",
      "type": "function"
    },
    {
      "constant": false,
      "inputs": [],
      "name": "kill",
      "outputs": [],
      "payable": false,
      "stateMutability": "nonpayable",
      "type": "function"
    },
    {
      "constant": false,
      "inputs": [
        {
          "name": "_owner",
          "type": "address"
        }
      ],
      "name": "transferOwnershipTo",
      "outputs": [],
      "payable": false,
      "stateMutability": "nonpayable",
      "type": "function"
    },
    {
      "constant": true,
      "inputs": [],
      "name": "owner",
      "outputs": [
        {
          "name": "",
          "type": "address"
        }
      ],
      "payable": false,
      "stateMutability": "view",
      "type": "function"
    },
    {
      "constant": true,
      "inputs": [],
      "name": "design",
      "outputs": [
        {
          "name": "",
          "type": "bytes32"
        }
      ],
      "payable": false,
      "stateMutability": "view",
      "type": "function"
    },
    {
      "constant": true,
      "inputs": [],
      "name": "designLocation",
      "outputs": [
        {
          "name": "",
          "type": "string"
        }
      ],
      "payable": false,
      "stateMutability": "view",
      "type": "function"
    },
    {
      "constant": true,
      "inputs": [],
      "name": "initialProofLocation",
      "outputs": [
        {
          "name": "",
          "type": "string"
        }
      ],
      "payable": false,
      "stateMutability": "view",
      "type": "function"
    },
    {
      "constant": true,
      "inputs": [],
      "name": "timestamp",
      "outputs": [
        {
          "name": "",
          "type": "uint256"
        }
      ],
      "payable": false,
      "stateMutability": "view",
      "type": "function"
    },
    {
      "constant": true,
      "inputs": [],
      "name": "initialProof",
      "outputs": [
        {
          "name": "",
          "type": "bytes32"
        }
      ],
      "payable": false,
      "stateMutability": "view",
      "type": "function"
    },
    {
      "constant": false,
      "inputs": [
        {
          "name": "_timeline",
          "type": "bytes"
        }
      ],
      "name": "upgradeTimeline",
      "outputs": [],
      "payable": false,
      "stateMutability": "nonpayable",
      "type": "function"
    },
    {
      "inputs": [
        {
          "name": "_word",
          "type": "string"
        },
        {
          "name": "_design",
          "type": "bytes32"
        },
        {
          "name": "_designLocation",
          "type": "string"
        },
        {
          "name": "_initialProof",
          "type": "bytes32"
        },
        {
          "name": "_initialProofLocation",
          "type": "string"
        },
        {
          "name": "_timeline",
          "type": "bytes"
        }
      ],
      "payable": false,
      "stateMutability": "nonpayable",
      "type": "constructor"
    }
  ],
  "bytecode": "0x608060405234801561001057600080fd5b5060405161093538038061093583398101604090815281516020830151918301516060840151608085015160a086015142600090815560018054600160a060020a03191633600160a060020a03161790559087018051958801979485019593949290920192849184918991899189918791849184918491829111156101a3576040517f5281042700000000000000000000000000000000000000000000000000000000815260206004820181815283516024840152835173__IbaseLib______________________________9363528104279386939283926044019185019080838360005b8381101561010d5781810151838201526020016100f5565b50505050905090810190601f16801561013a5780820380516001836020036101000a031916815260200191505b509250505060206040518083038186803b15801561015757600080fd5b505af415801561016b573d6000803e3d6000fd5b505050506040513d602081101561018157600080fd5b505160028054600160a060020a031916600160a060020a039092169190911790555b50600383905581516101bc9060049060208501906101fe565b505085516101d392506005915060208701906101fe565b5050506006849055505080516101f09060079060208401906101fe565b505050505050505050610299565b828054600181600116156101000203166002900490600052602060002090601f016020900481019282601f1061023f57805160ff191683800117855561026c565b8280016001018555821561026c579182015b8281111561026c578251825591602001919060010190610251565b5061027892915061027c565b5090565b61029691905b808211156102785760008155600101610282565b90565b61068d806102a86000396000f3006080604052600436106100ae5763ffffffff7c010000000000000000000000000000000000000000000000000000000060003504166317a5410b81146100b35780632f64d386146100e457806341c0e1b51461016e57806352effe11146101855780638da5cb5b146101a657806393f50206146101bb578063a7ed582a146101e2578063a9881c37146101f7578063b80777ea1461020c578063e015237414610221578063f634541414610236575b600080fd5b3480156100bf57600080fd5b506100c861028f565b60408051600160a060020a039092168252519081900360200190f35b3480156100f057600080fd5b506100f961029e565b6040805160208082528351818301528351919283929083019185019080838360005b8381101561013357818101518382015260200161011b565b50505050905090810190601f1680156101605780820380516001836020036101000a031916815260200191505b509250505060405180910390f35b34801561017a57600080fd5b5061018361032c565b005b34801561019157600080fd5b50610183600160a060020a0360043516610355565b3480156101b257600080fd5b506100c86103b4565b3480156101c757600080fd5b506101d06103c3565b60408051918252519081900360200190f35b3480156101ee57600080fd5b506100f96103c9565b34801561020357600080fd5b506100f9610424565b34801561021857600080fd5b506101d061047f565b34801561022d57600080fd5b506101d0610485565b34801561024257600080fd5b506040805160206004803580820135601f810184900484028501840190955284845261018394369492936024939284019190819084018382808284375094975061048b9650505050505050565b600254600160a060020a031681565b6005805460408051602060026001851615610100026000190190941693909304601f810184900484028201840190925281815292918301828280156103245780601f106102f957610100808354040283529160200191610324565b820191906000526020600020905b81548152906001019060200180831161030757829003601f168201915b505050505081565b60015433600160a060020a0390811691161461034757600080fd5b600154600160a060020a0316ff5b60015433600160a060020a0390811691161461037057600080fd5b600160a060020a038116151561038557600080fd5b6001805473ffffffffffffffffffffffffffffffffffffffff1916600160a060020a0392909216919091179055565b600154600160a060020a031681565b60035481565b6004805460408051602060026001851615610100026000190190941693909304601f810184900484028201840190925281815292918301828280156103245780601f106102f957610100808354040283529160200191610324565b6007805460408051602060026001851615610100026000190190941693909304601f810184900484028201840190925281815292918301828280156103245780601f106102f957610100808354040283529160200191610324565b60005481565b60065481565b60015460009033600160a060020a039081169116146104a957600080fd5b506002546040517f52810427000000000000000000000000000000000000000000000000000000008152602060048201818152845160248401528451600160a060020a039094169373__IbaseLib______________________________9363528104279387939283926044019185019080838360005b8381101561053757818101518382015260200161051f565b50505050905090810190601f1680156105645780820380516001836020036101000a031916815260200191505b509250505060206040518083038186803b15801561058157600080fd5b505af4158015610595573d6000803e3d6000fd5b505050506040513d60208110156105ab57600080fd5b50516002805473ffffffffffffffffffffffffffffffffffffffff1916600160a060020a0392831617905581161561065d57600254604080517f0900f010000000000000000000000000000000000000000000000000000000008152600160a060020a039283166004820152905191831691630900f0109160248082019260009290919082900301818387803b15801561064457600080fd5b505af1158015610658573d6000803e3d6000fd5b505050505b50505600a165627a7a723058209a70791e3534c0cf3027e2f1f29d8cf0a158daf06deeb05ff952ab578a8124cc0029",
  "source": "pragma solidity ^0.4.17;\n\nimport \"./WordAndDesignMark.sol\";\nimport \"./InitialProof.sol\";\n\n/**\n * Base contract for representing a WordAndDesignMark chain asset with the initial proof of use at creation.\n *\n * Copyright (c) 2018 Cognate, Inc.\n */\ncontract WordAndDesignMarkWithInitialProof is WordAndDesignMark, InitialProof {\n    constructor(\n      string _word,\n      bytes32 _design,\n      string _designLocation,\n      bytes32 _initialProof,\n      string _initialProofLocation,\n      bytes _timeline\n    ) WordAndDesignMark(_word, _design, _designLocation, _timeline) InitialProof(_initialProof, _initialProofLocation) public {}\n}",
  "sourcePath": "/Users/cmurdock/Cog/cog-asset/contracts/asset/Trademarks/WordAndDesignMarkWithInitialProof.sol",
  "compiler": {
    "name": "solc",
    "version": "0.4.23+commit.124ca40d.Emscripten.clang"
  },
  "schemaVersion": "2.0.0",
  "updatedAt": "2018-05-21T16:36:25.360Z"
}