{
  "contractName": "WordAndDesignMark",
  "abi": [
    {
      "constant": true,
      "inputs": [],
      "name": "timeline",
      "outputs": [
        {
          "name": "",
          "type": "address"
        }
      ],
      "payable": false,
      "stateMutability": "view",
      "type": "function"
    },
    {
      "constant": true,
      "inputs": [],
      "name": "word",
      "outputs": [
        {
          "name": "",
          "type": "string"
        }
      ],
      "payable": false,
      "stateMutability": "view",
      "type": "function"
    },
    {
      "constant": false,
      "inputs": [],
      "name": "kill",
      "outputs": [],
      "payable": false,
      "stateMutability": "nonpayable",
      "type": "function"
    },
    {
      "constant": false,
      "inputs": [
        {
          "name": "_owner",
          "type": "address"
        }
      ],
      "name": "transferOwnershipTo",
      "outputs": [],
      "payable": false,
      "stateMutability": "nonpayable",
      "type": "function"
    },
    {
      "constant": true,
      "inputs": [],
      "name": "owner",
      "outputs": [
        {
          "name": "",
          "type": "address"
        }
      ],
      "payable": false,
      "stateMutability": "view",
      "type": "function"
    },
    {
      "constant": true,
      "inputs": [],
      "name": "design",
      "outputs": [
        {
          "name": "",
          "type": "bytes32"
        }
      ],
      "payable": false,
      "stateMutability": "view",
      "type": "function"
    },
    {
      "constant": true,
      "inputs": [],
      "name": "designLocation",
      "outputs": [
        {
          "name": "",
          "type": "string"
        }
      ],
      "payable": false,
      "stateMutability": "view",
      "type": "function"
    },
    {
      "constant": true,
      "inputs": [],
      "name": "timestamp",
      "outputs": [
        {
          "name": "",
          "type": "uint256"
        }
      ],
      "payable": false,
      "stateMutability": "view",
      "type": "function"
    },
    {
      "constant": false,
      "inputs": [
        {
          "name": "_timeline",
          "type": "bytes"
        }
      ],
      "name": "upgradeTimeline",
      "outputs": [],
      "payable": false,
      "stateMutability": "nonpayable",
      "type": "function"
    },
    {
      "inputs": [
        {
          "name": "_word",
          "type": "string"
        },
        {
          "name": "_design",
          "type": "bytes32"
        },
        {
          "name": "_designLocation",
          "type": "string"
        },
        {
          "name": "_timeline",
          "type": "bytes"
        }
      ],
      "payable": false,
      "stateMutability": "nonpayable",
      "type": "constructor"
    }
  ],
  "bytecode": "0x608060405234801561001057600080fd5b506040516108573803806108578339810160409081528151602083015191830151606084015142600090815560018054600160a060020a03191633600160a060020a0316179055908501805193860195929092019284918491849182911115610187576040517f5281042700000000000000000000000000000000000000000000000000000000815260206004820181815283516024840152835173__IbaseLib______________________________9363528104279386939283926044019185019080838360005b838110156100f15781810151838201526020016100d9565b50505050905090810190601f16801561011e5780820380516001836020036101000a031916815260200191505b509250505060206040518083038186803b15801561013b57600080fd5b505af415801561014f573d6000803e3d6000fd5b505050506040513d602081101561016557600080fd5b505160028054600160a060020a031916600160a060020a039092169190911790555b50600383905581516101a09060049060208501906101c1565b505085516101b792506005915060208701906101c1565b505050505061025c565b828054600181600116156101000203166002900490600052602060002090601f016020900481019282601f1061020257805160ff191683800117855561022f565b8280016001018555821561022f579182015b8281111561022f578251825591602001919060010190610214565b5061023b92915061023f565b5090565b61025991905b8082111561023b5760008155600101610245565b90565b6105ec8061026b6000396000f3006080604052600436106100985763ffffffff7c010000000000000000000000000000000000000000000000000000000060003504166317a5410b811461009d5780632f64d386146100ce57806341c0e1b51461015857806352effe111461016f5780638da5cb5b1461019057806393f50206146101a5578063a7ed582a146101cc578063b80777ea146101e1578063f6345414146101f6575b600080fd5b3480156100a957600080fd5b506100b261024f565b60408051600160a060020a039092168252519081900360200190f35b3480156100da57600080fd5b506100e361025e565b6040805160208082528351818301528351919283929083019185019080838360005b8381101561011d578181015183820152602001610105565b50505050905090810190601f16801561014a5780820380516001836020036101000a031916815260200191505b509250505060405180910390f35b34801561016457600080fd5b5061016d6102ec565b005b34801561017b57600080fd5b5061016d600160a060020a0360043516610315565b34801561019c57600080fd5b506100b2610374565b3480156101b157600080fd5b506101ba610383565b60408051918252519081900360200190f35b3480156101d857600080fd5b506100e3610389565b3480156101ed57600080fd5b506101ba6103e4565b34801561020257600080fd5b506040805160206004803580820135601f810184900484028501840190955284845261016d9436949293602493928401919081908401838280828437509497506103ea9650505050505050565b600254600160a060020a031681565b6005805460408051602060026001851615610100026000190190941693909304601f810184900484028201840190925281815292918301828280156102e45780601f106102b9576101008083540402835291602001916102e4565b820191906000526020600020905b8154815290600101906020018083116102c757829003601f168201915b505050505081565b60015433600160a060020a0390811691161461030757600080fd5b600154600160a060020a0316ff5b60015433600160a060020a0390811691161461033057600080fd5b600160a060020a038116151561034557600080fd5b6001805473ffffffffffffffffffffffffffffffffffffffff1916600160a060020a0392909216919091179055565b600154600160a060020a031681565b60035481565b6004805460408051602060026001851615610100026000190190941693909304601f810184900484028201840190925281815292918301828280156102e45780601f106102b9576101008083540402835291602001916102e4565b60005481565b60015460009033600160a060020a0390811691161461040857600080fd5b506002546040517f52810427000000000000000000000000000000000000000000000000000000008152602060048201818152845160248401528451600160a060020a039094169373__IbaseLib______________________________9363528104279387939283926044019185019080838360005b8381101561049657818101518382015260200161047e565b50505050905090810190601f1680156104c35780820380516001836020036101000a031916815260200191505b509250505060206040518083038186803b1580156104e057600080fd5b505af41580156104f4573d6000803e3d6000fd5b505050506040513d602081101561050a57600080fd5b50516002805473ffffffffffffffffffffffffffffffffffffffff1916600160a060020a039283161790558116156105bc57600254604080517f0900f010000000000000000000000000000000000000000000000000000000008152600160a060020a039283166004820152905191831691630900f0109160248082019260009290919082900301818387803b1580156105a357600080fd5b505af11580156105b7573d6000803e3d6000fd5b505050505b50505600a165627a7a7230582088291f8087d2dd44753a121901107fe75a240c3013feb245f6527bb7f3417cce0029",
  "source": "pragma solidity ^0.4.17;\n\nimport \"./DesignMark.sol\";\n\n/**\n * Base contract for representing a WordAndDesignMark chain asset.\n *\n * Copyright (c) 2018 Cognate, Inc.\n */\ncontract WordAndDesignMark is DesignMark {\n    string public word;\n\n    constructor(string _word, bytes32 _design, string _designLocation, bytes _timeline) DesignMark(_design, _designLocation, _timeline) public {\n        word = _word;\n    }\n}",
  "sourcePath": "/Users/cmurdock/Cog/cog-asset/contracts/asset/Trademarks/WordAndDesignMark.sol",
  "compiler": {
    "name": "solc",
    "version": "0.4.23+commit.124ca40d.Emscripten.clang"
  },
  "schemaVersion": "2.0.0",
  "updatedAt": "2018-05-21T16:36:25.360Z"
}